{
  "contractName": "Loans",
  "abi": [
    {
      "inputs": [
        {
          "internalType": "contract MWToken",
          "name": "mwtAddress",
          "type": "address"
        }
      ],
      "payable": false,
      "stateMutability": "nonpayable",
      "type": "constructor"
    },
    {
      "constant": true,
      "inputs": [
        {
          "internalType": "uint256",
          "name": "",
          "type": "uint256"
        }
      ],
      "name": "allLoanEscrows",
      "outputs": [
        {
          "internalType": "uint256",
          "name": "loanID",
          "type": "uint256"
        },
        {
          "internalType": "address payable",
          "name": "buyer",
          "type": "address"
        },
        {
          "internalType": "address payable",
          "name": "provider",
          "type": "address"
        },
        {
          "internalType": "uint256",
          "name": "amount",
          "type": "uint256"
        },
        {
          "internalType": "uint256",
          "name": "duration",
          "type": "uint256"
        },
        {
          "internalType": "enum Loans.loanEscrowState",
          "name": "currState",
          "type": "uint8"
        }
      ],
      "payable": false,
      "stateMutability": "view",
      "type": "function"
    },
    {
      "constant": true,
      "inputs": [
        {
          "internalType": "uint256",
          "name": "",
          "type": "uint256"
        }
      ],
      "name": "allLoans",
      "outputs": [
        {
          "internalType": "uint256",
          "name": "loanID",
          "type": "uint256"
        },
        {
          "internalType": "uint256",
          "name": "propID",
          "type": "uint256"
        },
        {
          "internalType": "address payable",
          "name": "buyer",
          "type": "address"
        },
        {
          "internalType": "address payable",
          "name": "provider",
          "type": "address"
        },
        {
          "internalType": "uint256",
          "name": "amount",
          "type": "uint256"
        },
        {
          "internalType": "uint256",
          "name": "duration",
          "type": "uint256"
        },
        {
          "internalType": "uint256",
          "name": "balamount",
          "type": "uint256"
        },
        {
          "internalType": "uint256",
          "name": "balduration",
          "type": "uint256"
        },
        {
          "internalType": "enum Loans.loanState",
          "name": "currState",
          "type": "uint8"
        }
      ],
      "payable": false,
      "stateMutability": "view",
      "type": "function"
    },
    {
      "constant": true,
      "inputs": [],
      "name": "totalLoansCounter",
      "outputs": [
        {
          "internalType": "uint256",
          "name": "",
          "type": "uint256"
        }
      ],
      "payable": false,
      "stateMutability": "view",
      "type": "function"
    },
    {
      "constant": false,
      "inputs": [
        {
          "internalType": "uint256",
          "name": "_propID",
          "type": "uint256"
        },
        {
          "internalType": "uint256",
          "name": "_amount",
          "type": "uint256"
        },
        {
          "internalType": "uint256",
          "name": "_duration",
          "type": "uint256"
        }
      ],
      "name": "createLoan",
      "outputs": [],
      "payable": false,
      "stateMutability": "nonpayable",
      "type": "function"
    },
    {
      "constant": false,
      "inputs": [
        {
          "internalType": "uint256",
          "name": "_loanID",
          "type": "uint256"
        }
      ],
      "name": "applyLoan",
      "outputs": [],
      "payable": false,
      "stateMutability": "nonpayable",
      "type": "function"
    },
    {
      "constant": false,
      "inputs": [
        {
          "internalType": "uint256",
          "name": "_loanID",
          "type": "uint256"
        }
      ],
      "name": "cancelLoan",
      "outputs": [],
      "payable": false,
      "stateMutability": "nonpayable",
      "type": "function"
    },
    {
      "constant": false,
      "inputs": [
        {
          "internalType": "uint256",
          "name": "_loanID",
          "type": "uint256"
        }
      ],
      "name": "payMortgage",
      "outputs": [],
      "payable": true,
      "stateMutability": "payable",
      "type": "function"
    },
    {
      "constant": false,
      "inputs": [
        {
          "internalType": "uint256",
          "name": "_loanID",
          "type": "uint256"
        }
      ],
      "name": "payBalance",
      "outputs": [],
      "payable": true,
      "stateMutability": "payable",
      "type": "function"
    },
    {
      "constant": true,
      "inputs": [
        {
          "internalType": "uint256",
          "name": "_loanID",
          "type": "uint256"
        }
      ],
      "name": "findLoan",
      "outputs": [
        {
          "internalType": "uint256",
          "name": "",
          "type": "uint256"
        },
        {
          "internalType": "uint256",
          "name": "",
          "type": "uint256"
        },
        {
          "internalType": "address payable",
          "name": "",
          "type": "address"
        },
        {
          "internalType": "address payable",
          "name": "",
          "type": "address"
        },
        {
          "internalType": "uint256",
          "name": "",
          "type": "uint256"
        },
        {
          "internalType": "uint256",
          "name": "",
          "type": "uint256"
        },
        {
          "internalType": "uint256",
          "name": "",
          "type": "uint256"
        },
        {
          "internalType": "uint256",
          "name": "",
          "type": "uint256"
        },
        {
          "internalType": "uint256",
          "name": "",
          "type": "uint256"
        }
      ],
      "payable": false,
      "stateMutability": "view",
      "type": "function"
    },
    {
      "constant": true,
      "inputs": [
        {
          "internalType": "uint256",
          "name": "_loanID",
          "type": "uint256"
        }
      ],
      "name": "findLoanEscrow",
      "outputs": [
        {
          "internalType": "uint256",
          "name": "",
          "type": "uint256"
        },
        {
          "internalType": "address payable",
          "name": "",
          "type": "address"
        },
        {
          "internalType": "address payable",
          "name": "",
          "type": "address"
        },
        {
          "internalType": "uint256",
          "name": "",
          "type": "uint256"
        },
        {
          "internalType": "uint256",
          "name": "",
          "type": "uint256"
        },
        {
          "internalType": "uint256",
          "name": "",
          "type": "uint256"
        }
      ],
      "payable": false,
      "stateMutability": "view",
      "type": "function"
    },
    {
      "constant": false,
      "inputs": [
        {
          "internalType": "uint256",
          "name": "_loanID",
          "type": "uint256"
        },
        {
          "internalType": "address payable",
          "name": "_provider",
          "type": "address"
        },
        {
          "internalType": "uint256",
          "name": "_state",
          "type": "uint256"
        }
      ],
      "name": "updateLoan",
      "outputs": [],
      "payable": false,
      "stateMutability": "nonpayable",
      "type": "function"
    },
    {
      "constant": false,
      "inputs": [
        {
          "internalType": "uint256",
          "name": "_loanID",
          "type": "uint256"
        },
        {
          "internalType": "address payable",
          "name": "_provider",
          "type": "address"
        },
        {
          "internalType": "uint256",
          "name": "_amount",
          "type": "uint256"
        },
        {
          "internalType": "uint256",
          "name": "_duration",
          "type": "uint256"
        },
        {
          "internalType": "uint256",
          "name": "_state",
          "type": "uint256"
        }
      ],
      "name": "updateLoanEscrow",
      "outputs": [],
      "payable": false,
      "stateMutability": "nonpayable",
      "type": "function"
    },
    {
      "constant": false,
      "inputs": [
        {
          "internalType": "address",
          "name": "_from",
          "type": "address"
        },
        {
          "internalType": "address",
          "name": "_to",
          "type": "address"
        },
        {
          "internalType": "uint256",
          "name": "_amt",
          "type": "uint256"
        }
      ],
      "name": "transferMWT",
      "outputs": [],
      "payable": false,
      "stateMutability": "nonpayable",
      "type": "function"
    }
  ],
  "bytecode": "0x6080604052600060015534801561001557600080fd5b50604051611bad380380611bad8339818101604052602081101561003857600080fd5b8101908080519060200190929190505050806000806101000a81548173ffffffffffffffffffffffffffffffffffffffff021916908373ffffffffffffffffffffffffffffffffffffffff16021790555050611b14806100996000396000f3fe6080604052600436106100c25760003560e01c80637dbdf3dc1161007f578063af877a0011610059578063af877a001461046d578063bdbfa3de1461054c578063d31a95ff14610587578063d4d2935714610602576100c2565b80637dbdf3dc14610326578063904b513b146103f057806398902d961461043f576100c2565b80631b8a3548146100c75780632b13d2ab146101b45780634565f482146101e25780634b7253bf1461024757806368f506be146102825780637779d51e146102ad575b600080fd5b3480156100d357600080fd5b50610100600480360360208110156100ea57600080fd5b81019080803590602001909291905050506106da565b604051808a81526020018981526020018873ffffffffffffffffffffffffffffffffffffffff1673ffffffffffffffffffffffffffffffffffffffff1681526020018773ffffffffffffffffffffffffffffffffffffffff1673ffffffffffffffffffffffffffffffffffffffff16815260200186815260200185815260200184815260200183815260200182600381111561019857fe5b60ff168152602001995050505050505050505060405180910390f35b6101e0600480360360208110156101ca57600080fd5b8101908080359060200190929190505050610775565b005b3480156101ee57600080fd5b506102456004803603606081101561020557600080fd5b8101908080359060200190929190803573ffffffffffffffffffffffffffffffffffffffff16906020019092919080359060200190929190505050610ab6565b005b34801561025357600080fd5b506102806004803603602081101561026a57600080fd5b8101908080359060200190929190505050610c26565b005b34801561028e57600080fd5b50610297610c61565b6040518082815260200191505060405180910390f35b3480156102b957600080fd5b50610324600480360360a08110156102d057600080fd5b8101908080359060200190929190803573ffffffffffffffffffffffffffffffffffffffff169060200190929190803590602001909291908035906020019092919080359060200190929190505050610c67565b005b34801561033257600080fd5b5061035f6004803603602081101561034957600080fd5b8101908080359060200190929190505050610e0f565b604051808781526020018673ffffffffffffffffffffffffffffffffffffffff1673ffffffffffffffffffffffffffffffffffffffff1681526020018573ffffffffffffffffffffffffffffffffffffffff1673ffffffffffffffffffffffffffffffffffffffff168152602001848152602001838152602001828152602001965050505050505060405180910390f35b3480156103fc57600080fd5b5061043d6004803603606081101561041357600080fd5b81019080803590602001909291908035906020019092919080359060200190929190505050611018565b005b61046b6004803603602081101561045557600080fd5b810190808035906020019092919050505061131c565b005b34801561047957600080fd5b506104a66004803603602081101561049057600080fd5b81019080803590602001909291905050506115e9565b604051808a81526020018981526020018873ffffffffffffffffffffffffffffffffffffffff1673ffffffffffffffffffffffffffffffffffffffff1681526020018773ffffffffffffffffffffffffffffffffffffffff1673ffffffffffffffffffffffffffffffffffffffff168152602001868152602001858152602001848152602001838152602001828152602001995050505050505050505060405180910390f35b34801561055857600080fd5b506105856004803603602081101561056f57600080fd5b8101908080359060200190929190505050611832565b005b34801561059357600080fd5b50610600600480360360608110156105aa57600080fd5b81019080803573ffffffffffffffffffffffffffffffffffffffff169060200190929190803573ffffffffffffffffffffffffffffffffffffffff1690602001909291908035906020019092919050505061186d565b005b34801561060e57600080fd5b5061063b6004803603602081101561062557600080fd5b8101908080359060200190929190505050611966565b604051808781526020018673ffffffffffffffffffffffffffffffffffffffff1673ffffffffffffffffffffffffffffffffffffffff1681526020018573ffffffffffffffffffffffffffffffffffffffff1673ffffffffffffffffffffffffffffffffffffffff1681526020018481526020018381526020018260038111156106c157fe5b60ff168152602001965050505050505060405180910390f35b60026020528060005260406000206000915090508060000154908060010154908060020160009054906101000a900473ffffffffffffffffffffffffffffffffffffffff16908060030160009054906101000a900473ffffffffffffffffffffffffffffffffffffffff16908060040154908060050154908060060154908060070154908060080160009054906101000a900460ff16905089565b3373ffffffffffffffffffffffffffffffffffffffff166002600083815260200190815260200160002060020160009054906101000a900473ffffffffffffffffffffffffffffffffffffffff1673ffffffffffffffffffffffffffffffffffffffff16146107e357600080fd5b600260038111156107f057fe5b6002600083815260200190815260200160002060080160009054906101000a900460ff16600381111561081f57fe5b14610892576040517f08c379a000000000000000000000000000000000000000000000000000000000815260040180806020018281038252601c8152602001807f4c6f616e20686173206e6f74206265656e20646973627572736564210000000081525060200191505060405180910390fd5b6002600381111561089f57fe5b6003600083815260200190815260200160002060050160009054906101000a900460ff1660038111156108ce57fe5b14610941576040517f08c379a000000000000000000000000000000000000000000000000000000000815260040180806020018281038252601c8152602001807f4c6f616e20686173206e6f74206265656e20646973627572736564210000000081525060200191505060405180910390fd5b6000600260008381526020019081526020016000206007015460026000848152602001908152602001600020600601548161097857fe5b0490506109bc336002600085815260200190815260200160002060030160009054906101000a900473ffffffffffffffffffffffffffffffffffffffff168361186d565b80600260008481526020019081526020016000206006015403600260008481526020019081526020016000206006018190555060016002600084815260200190815260200160002060070154036002600084815260200190815260200160002060070181905550600060026000848152602001908152602001600020600601541415610ab25760036002600084815260200190815260200160002060080160006101000a81548160ff02191690836003811115610a7557fe5b0217905550600380600084815260200190815260200160002060050160006101000a81548160ff02191690836003811115610aac57fe5b02179055505b5050565b816002600085815260200190815260200160002060030160006101000a81548173ffffffffffffffffffffffffffffffffffffffff021916908373ffffffffffffffffffffffffffffffffffffffff1602179055506000811415610b515760006002600085815260200190815260200160002060080160006101000a81548160ff02191690836003811115610b4757fe5b0217905550610c21565b6001811415610b975760016002600085815260200190815260200160002060080160006101000a81548160ff02191690836003811115610b8d57fe5b0217905550610c20565b6002811415610bdc57600280600085815260200190815260200160002060080160006101000a81548160ff02191690836003811115610bd257fe5b0217905550610c1f565b6003811415610c1e5760036002600085815260200190815260200160002060080160006101000a81548160ff02191690836003811115610c1857fe5b02179055505b5b5b5b505050565b60016002600083815260200190815260200160002060080160006101000a81548160ff02191690836003811115610c5957fe5b021790555050565b60015481565b836003600087815260200190815260200160002060020160006101000a81548173ffffffffffffffffffffffffffffffffffffffff021916908373ffffffffffffffffffffffffffffffffffffffff1602179055508260036000878152602001908152602001600020600301819055508160036000878152602001908152602001600020600401819055506000811415610d385760006003600087815260200190815260200160002060050160006101000a81548160ff02191690836003811115610d2e57fe5b0217905550610e08565b6001811415610d7e5760016003600087815260200190815260200160002060050160006101000a81548160ff02191690836003811115610d7457fe5b0217905550610e07565b6002811415610dc45760026003600087815260200190815260200160002060050160006101000a81548160ff02191690836003811115610dba57fe5b0217905550610e06565b6003811415610e0557600380600087815260200190815260200160002060050160006101000a81548160ff02191690836003811115610dff57fe5b02179055505b5b5b5b5050505050565b6000806000806000806000610e226119ef565b600360008a81526020019081526020016000206040518060c0016040529081600082015481526020016001820160009054906101000a900473ffffffffffffffffffffffffffffffffffffffff1673ffffffffffffffffffffffffffffffffffffffff1673ffffffffffffffffffffffffffffffffffffffff1681526020016002820160009054906101000a900473ffffffffffffffffffffffffffffffffffffffff1673ffffffffffffffffffffffffffffffffffffffff1673ffffffffffffffffffffffffffffffffffffffff16815260200160038201548152602001600482015481526020016005820160009054906101000a900460ff166003811115610f2857fe5b6003811115610f3357fe5b81525050905060006003811115610f4657fe5b8160a001516003811115610f5657fe5b1415610f655760009150610fe7565b60016003811115610f7257fe5b8160a001516003811115610f8257fe5b1415610f915760019150610fe6565b60026003811115610f9e57fe5b8160a001516003811115610fae57fe5b1415610fbd5760029150610fe5565b600380811115610fc957fe5b8160a001516003811115610fd957fe5b1415610fe457600391505b5b5b5b8060000151816020015182604001518360600151846080015186975097509750975097509750505091939550919395565b600180540160018190555061102b611a5c565b60405180610120016040528060015481526020018581526020013373ffffffffffffffffffffffffffffffffffffffff1681526020013373ffffffffffffffffffffffffffffffffffffffff168152602001848152602001838152602001848152602001838152602001600160038111156110a257fe5b815250905080600260006001548152602001908152602001600020600082015181600001556020820151816001015560408201518160020160006101000a81548173ffffffffffffffffffffffffffffffffffffffff021916908373ffffffffffffffffffffffffffffffffffffffff16021790555060608201518160030160006101000a81548173ffffffffffffffffffffffffffffffffffffffff021916908373ffffffffffffffffffffffffffffffffffffffff1602179055506080820151816004015560a0820151816005015560c0820151816006015560e082015181600701556101008201518160080160006101000a81548160ff021916908360038111156111ac57fe5b02179055509050506111bc6119ef565b6040518060c0016040528060015481526020013373ffffffffffffffffffffffffffffffffffffffff1681526020013373ffffffffffffffffffffffffffffffffffffffff16815260200160008152602001600081526020016000600381111561122257fe5b8152509050806003600060015481526020019081526020016000206000820151816000015560208201518160010160006101000a81548173ffffffffffffffffffffffffffffffffffffffff021916908373ffffffffffffffffffffffffffffffffffffffff16021790555060408201518160020160006101000a81548173ffffffffffffffffffffffffffffffffffffffff021916908373ffffffffffffffffffffffffffffffffffffffff160217905550606082015181600301556080820151816004015560a08201518160050160006101000a81548160ff0219169083600381111561130d57fe5b02179055509050505050505050565b3373ffffffffffffffffffffffffffffffffffffffff166002600083815260200190815260200160002060020160009054906101000a900473ffffffffffffffffffffffffffffffffffffffff1673ffffffffffffffffffffffffffffffffffffffff161461138a57600080fd5b6002600381111561139757fe5b6002600083815260200190815260200160002060080160009054906101000a900460ff1660038111156113c657fe5b14611439576040517f08c379a000000000000000000000000000000000000000000000000000000000815260040180806020018281038252601c8152602001807f4c6f616e20686173206e6f74206265656e20646973627572736564210000000081525060200191505060405180910390fd5b6002600381111561144657fe5b6003600083815260200190815260200160002060050160009054906101000a900460ff16600381111561147557fe5b146114e8576040517f08c379a000000000000000000000000000000000000000000000000000000000815260040180806020018281038252601c8152602001807f4c6f616e20686173206e6f74206265656e20646973627572736564210000000081525060200191505060405180910390fd5b61153f336002600084815260200190815260200160002060030160009054906101000a900473ffffffffffffffffffffffffffffffffffffffff16600260008581526020019081526020016000206006015461186d565b600060026000838152602001908152602001600020600601819055506000600260008381526020019081526020016000206007018190555060036002600083815260200190815260200160002060080160006101000a81548160ff021916908360038111156115aa57fe5b0217905550600380600083815260200190815260200160002060050160006101000a81548160ff021916908360038111156115e157fe5b021790555050565b600080600080600080600080600080611600611a5c565b600260008d81526020019081526020016000206040518061012001604052908160008201548152602001600182015481526020016002820160009054906101000a900473ffffffffffffffffffffffffffffffffffffffff1673ffffffffffffffffffffffffffffffffffffffff1673ffffffffffffffffffffffffffffffffffffffff1681526020016003820160009054906101000a900473ffffffffffffffffffffffffffffffffffffffff1673ffffffffffffffffffffffffffffffffffffffff1673ffffffffffffffffffffffffffffffffffffffff168152602001600482015481526020016005820154815260200160068201548152602001600782015481526020016008820160009054906101000a900460ff16600381111561172557fe5b600381111561173057fe5b8152505090506000600381111561174357fe5b816101000151600381111561175457fe5b141561176357600091506117e8565b6001600381111561177057fe5b816101000151600381111561178157fe5b141561179057600191506117e7565b6002600381111561179d57fe5b81610100015160038111156117ae57fe5b14156117bd57600291506117e6565b6003808111156117c957fe5b81610100015160038111156117da57fe5b14156117e557600391505b5b5b5b806000015181602001518260400151836060015184608001518560a001518660c001518760e00151899a509a509a509a509a509a509a509a509a5050509193959799909294969850565b60006002600083815260200190815260200160002060080160006101000a81548160ff0219169083600381111561186557fe5b021790555050565b6000809054906101000a900473ffffffffffffffffffffffffffffffffffffffff1673ffffffffffffffffffffffffffffffffffffffff1663beabacc88484846040518463ffffffff1660e01b8152600401808473ffffffffffffffffffffffffffffffffffffffff1673ffffffffffffffffffffffffffffffffffffffff1681526020018373ffffffffffffffffffffffffffffffffffffffff1673ffffffffffffffffffffffffffffffffffffffff1681526020018281526020019350505050600060405180830381600087803b15801561194957600080fd5b505af115801561195d573d6000803e3d6000fd5b50505050505050565b60036020528060005260406000206000915090508060000154908060010160009054906101000a900473ffffffffffffffffffffffffffffffffffffffff16908060020160009054906101000a900473ffffffffffffffffffffffffffffffffffffffff16908060030154908060040154908060050160009054906101000a900460ff16905086565b6040518060c0016040528060008152602001600073ffffffffffffffffffffffffffffffffffffffff168152602001600073ffffffffffffffffffffffffffffffffffffffff168152602001600081526020016000815260200160006003811115611a5657fe5b81525090565b6040518061012001604052806000815260200160008152602001600073ffffffffffffffffffffffffffffffffffffffff168152602001600073ffffffffffffffffffffffffffffffffffffffff1681526020016000815260200160008152602001600081526020016000815260200160006003811115611ad957fe5b8152509056fea265627a7a72315820ef09695c9c8aafe85b95bb870d45b33283df3001e631d454c008e78b4609dfec64736f6c63430005100032",
  "source": "pragma solidity ^0.5.0;\r\nimport \"./MWToken.sol\";\r\n\r\ncontract Loans {\r\n\r\n    MWToken mwtContract;\r\n\r\n    constructor (MWToken mwtAddress) public {\r\n        mwtContract = mwtAddress;\r\n    }\r\n\r\n    uint public totalLoansCounter = 0;\r\n    enum loanState {NONE, APPLIED, IN_FORCE, COMPLETE}\r\n    enum loanEscrowState {NONE, ACCEPTED, DISBURSED, COMPLETE}\r\n\r\n    struct Loan {\r\n        uint loanID;\r\n        uint propID;\r\n        address payable buyer;\r\n        address payable provider;\r\n        uint amount;\r\n        uint duration;\r\n        uint balamount;\r\n        uint balduration;\r\n        loanState currState;\r\n    }\r\n    struct LoanEscrow {\r\n        uint loanID;\r\n        address payable buyer;\r\n        address payable provider;\r\n        uint amount;\r\n        uint duration;\r\n        loanEscrowState currState;\r\n    }\r\n    mapping(uint => Loan) public allLoans;\r\n    mapping(uint => LoanEscrow) public allLoanEscrows;\r\n\r\n    function createLoan(uint _propID, uint _amount, uint _duration) public {\r\n        totalLoansCounter = totalLoansCounter + 1;\r\n        Loan memory myLoan = Loan({\r\n            loanID: totalLoansCounter,\r\n            propID: _propID,\r\n            buyer: msg.sender,\r\n            provider: msg.sender,\r\n            amount: _amount,\r\n            duration: _duration,\r\n            balamount: _amount,\r\n            balduration: _duration,\r\n            currState: loanState.APPLIED\r\n        });\r\n        allLoans[totalLoansCounter] = myLoan;\r\n\r\n        LoanEscrow memory nullLoanEscrow = LoanEscrow({\r\n            loanID: totalLoansCounter,\r\n            buyer: msg.sender,\r\n            provider: msg.sender,\r\n            amount: 0,\r\n            duration: 0,\r\n            currState: loanEscrowState.NONE\r\n        });\r\n        allLoanEscrows[totalLoansCounter] = nullLoanEscrow;\r\n    }\r\n\r\n    function applyLoan(uint _loanID) public {\r\n        allLoans[_loanID].currState = loanState.APPLIED;\r\n    }\r\n\r\n    function cancelLoan(uint _loanID) public {\r\n        allLoans[_loanID].currState = loanState.NONE;\r\n    }\r\n\r\n    function payMortgage(uint _loanID) public payable {\r\n        require(allLoans[_loanID].buyer == msg.sender);\r\n        require(allLoans[_loanID].currState == loanState.IN_FORCE, \"Loan has not been disbursed!\");\r\n        require(allLoanEscrows[_loanID].currState == loanEscrowState.DISBURSED, \"Loan has not been disbursed!\");\r\n\r\n        uint amt = allLoans[_loanID].balamount / allLoans[_loanID].balduration;\r\n        transferMWT(msg.sender, allLoans[_loanID].provider, amt);\r\n        allLoans[_loanID].balamount = allLoans[_loanID].balamount - amt;\r\n        allLoans[_loanID].balduration = allLoans[_loanID].balduration - 1;\r\n\r\n        if (allLoans[_loanID].balamount == 0) {\r\n            allLoans[_loanID].currState = loanState.COMPLETE;\r\n            allLoanEscrows[_loanID].currState = loanEscrowState.COMPLETE;\r\n        }\r\n    }\r\n\r\n    function payBalance(uint _loanID) public payable {\r\n        require(allLoans[_loanID].buyer == msg.sender);\r\n        require(allLoans[_loanID].currState == loanState.IN_FORCE, \"Loan has not been disbursed!\");\r\n        require(allLoanEscrows[_loanID].currState == loanEscrowState.DISBURSED, \"Loan has not been disbursed!\");\r\n\r\n        transferMWT(msg.sender, allLoans[_loanID].provider, allLoans[_loanID].balamount);\r\n        allLoans[_loanID].balamount = 0;\r\n        allLoans[_loanID].balduration = 0;\r\n        allLoans[_loanID].currState = loanState.COMPLETE;\r\n        allLoanEscrows[_loanID].currState = loanEscrowState.COMPLETE;\r\n    }\r\n\r\n    function findLoan(uint _loanID) public view returns(uint, uint, address payable, address payable, uint, uint, uint, uint, uint) {\r\n        uint _status;\r\n        Loan memory myLoan = allLoans[_loanID];\r\n        if (myLoan.currState == loanState.NONE) {\r\n            _status=0;\r\n        } else if (myLoan.currState == loanState.APPLIED) {\r\n            _status=1;\r\n        } else if (myLoan.currState == loanState.IN_FORCE) {\r\n            _status=2;\r\n        } else if (myLoan.currState == loanState.COMPLETE) {\r\n            _status=3;\r\n        }\r\n        return (myLoan.loanID, myLoan.propID, myLoan.buyer, myLoan.provider, myLoan.amount, myLoan.duration, myLoan.balamount, myLoan.balduration, _status);\r\n    }\r\n\r\n    function findLoanEscrow(uint _loanID) public view returns(uint, address payable, address payable, uint, uint, uint) {\r\n        uint _status;\r\n        LoanEscrow memory myEscrow = allLoanEscrows[_loanID];\r\n        if (myEscrow.currState == loanEscrowState.NONE) {\r\n            _status=0;\r\n        } else if (myEscrow.currState == loanEscrowState.ACCEPTED) {\r\n            _status=1;\r\n        } else if (myEscrow.currState == loanEscrowState.DISBURSED) {\r\n            _status=2;\r\n        } else if (myEscrow.currState == loanEscrowState.COMPLETE) {\r\n            _status=3;\r\n        }\r\n        return (myEscrow.loanID, myEscrow.buyer, myEscrow.provider, myEscrow.amount, myEscrow.duration, _status);\r\n    }\r\n\r\n    function updateLoan(uint _loanID, address payable _provider, uint _state) public {\r\n        allLoans[_loanID].provider = _provider;\r\n        if (_state == 0) {\r\n            allLoans[_loanID].currState = loanState.NONE;\r\n        } else if (_state == 1) {\r\n            allLoans[_loanID].currState = loanState.APPLIED;\r\n        } else if (_state == 2) {\r\n            allLoans[_loanID].currState = loanState.IN_FORCE;\r\n        } else if (_state == 3) {\r\n            allLoans[_loanID].currState = loanState.COMPLETE;\r\n        }\r\n    }\r\n\r\n    function updateLoanEscrow(uint _loanID, address payable _provider, uint _amount, uint _duration, uint _state) public {\r\n        allLoanEscrows[_loanID].provider = _provider;\r\n        allLoanEscrows[_loanID].amount = _amount;\r\n        allLoanEscrows[_loanID].duration = _duration;\r\n        if (_state == 0) {\r\n            allLoanEscrows[_loanID].currState = loanEscrowState.NONE;\r\n        } else if (_state == 1) {\r\n            allLoanEscrows[_loanID].currState = loanEscrowState.ACCEPTED;\r\n        } else if (_state == 2) {\r\n            allLoanEscrows[_loanID].currState = loanEscrowState.DISBURSED;\r\n        } else if (_state == 3) {\r\n            allLoanEscrows[_loanID].currState = loanEscrowState.COMPLETE;\r\n        }\r\n        \r\n    }\r\n\r\n    //function to transfer MWT tokens between accounts\r\n    function transferMWT(address _from, address _to, uint256 _amt) public {\r\n        mwtContract.transfer(_from, _to, _amt);\r\n    }\r\n\r\n}",
  "sourcePath": "C:\\Users\\arvin\\Documents\\1Personal\\Education\\Masters\\middlewhere\\src\\contracts\\Loans.sol",
  "compiler": {
    "name": "solc",
    "version": "0.5.16+commit.9c3226ce.Emscripten.clang"
  },
  "schemaVersion": "3.2.3",
  "updatedAt": "2022-03-03T21:27:27.578Z",
  "networkType": "ethereum",
  "devdoc": {
    "methods": {}
  },
  "userdoc": {
    "methods": {}
  }
}