{
  "contractName": "Marketplace",
  "abi": [
    {
      "inputs": [],
      "payable": false,
      "stateMutability": "nonpayable",
      "type": "constructor"
    },
    {
      "anonymous": false,
      "inputs": [
        {
          "indexed": false,
          "internalType": "uint256",
          "name": "_propID",
          "type": "uint256"
        },
        {
          "indexed": false,
          "internalType": "uint256",
          "name": "_percentage",
          "type": "uint256"
        },
        {
          "indexed": false,
          "internalType": "uint256",
          "name": "_value",
          "type": "uint256"
        },
        {
          "indexed": false,
          "internalType": "uint256",
          "name": "_amount",
          "type": "uint256"
        },
        {
          "indexed": false,
          "internalType": "address payable",
          "name": "_propOwner",
          "type": "address"
        },
        {
          "indexed": false,
          "internalType": "address payable",
          "name": "_buyer",
          "type": "address"
        },
        {
          "indexed": false,
          "internalType": "uint256",
          "name": "_salePercent",
          "type": "uint256"
        },
        {
          "indexed": false,
          "internalType": "enum Marketplace.State",
          "name": "_currState",
          "type": "uint8"
        }
      ],
      "name": "CreatedEscrow",
      "type": "event"
    },
    {
      "anonymous": false,
      "inputs": [
        {
          "indexed": false,
          "internalType": "uint256",
          "name": "_propID",
          "type": "uint256"
        },
        {
          "indexed": false,
          "internalType": "uint256",
          "name": "_percentage",
          "type": "uint256"
        },
        {
          "indexed": false,
          "internalType": "uint256",
          "name": "_amount",
          "type": "uint256"
        },
        {
          "indexed": false,
          "internalType": "address payable",
          "name": "_stakeOwner",
          "type": "address"
        },
        {
          "indexed": false,
          "internalType": "address payable",
          "name": "_buyer",
          "type": "address"
        },
        {
          "indexed": false,
          "internalType": "enum Marketplace.State",
          "name": "_currState",
          "type": "uint8"
        }
      ],
      "name": "CreatedOffer",
      "type": "event"
    },
    {
      "anonymous": false,
      "inputs": [
        {
          "indexed": false,
          "internalType": "uint256",
          "name": "_propID",
          "type": "uint256"
        },
        {
          "indexed": false,
          "internalType": "string",
          "name": "_propTitle",
          "type": "string"
        },
        {
          "indexed": false,
          "internalType": "string",
          "name": "_propAddress",
          "type": "string"
        },
        {
          "indexed": false,
          "internalType": "string",
          "name": "_propDescription",
          "type": "string"
        },
        {
          "indexed": false,
          "internalType": "string",
          "name": "_imgURL",
          "type": "string"
        },
        {
          "indexed": false,
          "internalType": "uint256",
          "name": "_accounted",
          "type": "uint256"
        }
      ],
      "name": "CreatedProperty",
      "type": "event"
    },
    {
      "anonymous": false,
      "inputs": [
        {
          "indexed": false,
          "internalType": "uint256",
          "name": "_propID",
          "type": "uint256"
        },
        {
          "indexed": false,
          "internalType": "uint256",
          "name": "_percentage",
          "type": "uint256"
        },
        {
          "indexed": false,
          "internalType": "uint256",
          "name": "_amount",
          "type": "uint256"
        },
        {
          "indexed": false,
          "internalType": "address payable",
          "name": "_stakeOwner",
          "type": "address"
        }
      ],
      "name": "PurchasedStake",
      "type": "event"
    },
    {
      "constant": true,
      "inputs": [],
      "name": "admin",
      "outputs": [
        {
          "internalType": "address",
          "name": "",
          "type": "address"
        }
      ],
      "payable": false,
      "stateMutability": "view",
      "type": "function"
    },
    {
      "constant": true,
      "inputs": [
        {
          "internalType": "uint256",
          "name": "",
          "type": "uint256"
        },
        {
          "internalType": "uint256",
          "name": "",
          "type": "uint256"
        }
      ],
      "name": "allEscrows",
      "outputs": [
        {
          "internalType": "uint256",
          "name": "propID",
          "type": "uint256"
        },
        {
          "internalType": "uint256",
          "name": "percentage",
          "type": "uint256"
        },
        {
          "internalType": "uint256",
          "name": "value",
          "type": "uint256"
        },
        {
          "internalType": "uint256",
          "name": "amount",
          "type": "uint256"
        },
        {
          "internalType": "address payable",
          "name": "stakeOwner",
          "type": "address"
        },
        {
          "internalType": "address payable",
          "name": "buyer",
          "type": "address"
        },
        {
          "internalType": "uint256",
          "name": "salePercent",
          "type": "uint256"
        },
        {
          "internalType": "enum Marketplace.State",
          "name": "currState",
          "type": "uint8"
        }
      ],
      "payable": false,
      "stateMutability": "view",
      "type": "function"
    },
    {
      "constant": true,
      "inputs": [
        {
          "internalType": "uint256",
          "name": "",
          "type": "uint256"
        },
        {
          "internalType": "uint256",
          "name": "",
          "type": "uint256"
        }
      ],
      "name": "allOffers",
      "outputs": [
        {
          "internalType": "uint256",
          "name": "propID",
          "type": "uint256"
        },
        {
          "internalType": "uint256",
          "name": "percentage",
          "type": "uint256"
        },
        {
          "internalType": "uint256",
          "name": "amount",
          "type": "uint256"
        },
        {
          "internalType": "address payable",
          "name": "stakeOwner",
          "type": "address"
        },
        {
          "internalType": "address payable",
          "name": "buyer",
          "type": "address"
        },
        {
          "internalType": "enum Marketplace.State",
          "name": "currState",
          "type": "uint8"
        }
      ],
      "payable": false,
      "stateMutability": "view",
      "type": "function"
    },
    {
      "constant": true,
      "inputs": [
        {
          "internalType": "uint256",
          "name": "",
          "type": "uint256"
        }
      ],
      "name": "allProperty",
      "outputs": [
        {
          "internalType": "uint256",
          "name": "propID",
          "type": "uint256"
        },
        {
          "internalType": "string",
          "name": "propTitle",
          "type": "string"
        },
        {
          "internalType": "string",
          "name": "propAddress",
          "type": "string"
        },
        {
          "internalType": "string",
          "name": "propDescription",
          "type": "string"
        },
        {
          "internalType": "string",
          "name": "imgURL",
          "type": "string"
        },
        {
          "internalType": "uint256",
          "name": "accounted",
          "type": "uint256"
        }
      ],
      "payable": false,
      "stateMutability": "view",
      "type": "function"
    },
    {
      "constant": true,
      "inputs": [
        {
          "internalType": "uint256",
          "name": "",
          "type": "uint256"
        }
      ],
      "name": "escrowCounts",
      "outputs": [
        {
          "internalType": "uint256",
          "name": "",
          "type": "uint256"
        }
      ],
      "payable": false,
      "stateMutability": "view",
      "type": "function"
    },
    {
      "constant": true,
      "inputs": [
        {
          "internalType": "uint256",
          "name": "",
          "type": "uint256"
        }
      ],
      "name": "offerCounts",
      "outputs": [
        {
          "internalType": "uint256",
          "name": "",
          "type": "uint256"
        }
      ],
      "payable": false,
      "stateMutability": "view",
      "type": "function"
    },
    {
      "constant": true,
      "inputs": [],
      "name": "totalPropertyCounter",
      "outputs": [
        {
          "internalType": "uint256",
          "name": "",
          "type": "uint256"
        }
      ],
      "payable": false,
      "stateMutability": "view",
      "type": "function"
    },
    {
      "constant": false,
      "inputs": [
        {
          "internalType": "uint256",
          "name": "_propID",
          "type": "uint256"
        },
        {
          "internalType": "uint256",
          "name": "_percentage",
          "type": "uint256"
        },
        {
          "internalType": "uint256",
          "name": "_value",
          "type": "uint256"
        }
      ],
      "name": "addEscrow",
      "outputs": [],
      "payable": false,
      "stateMutability": "nonpayable",
      "type": "function"
    },
    {
      "constant": false,
      "inputs": [
        {
          "internalType": "string",
          "name": "_propTitle",
          "type": "string"
        },
        {
          "internalType": "string",
          "name": "_propAddress",
          "type": "string"
        },
        {
          "internalType": "string",
          "name": "_propDescription",
          "type": "string"
        },
        {
          "internalType": "uint256",
          "name": "_percentage",
          "type": "uint256"
        },
        {
          "internalType": "uint256",
          "name": "_value",
          "type": "uint256"
        },
        {
          "internalType": "string",
          "name": "_imgURL",
          "type": "string"
        }
      ],
      "name": "addProperty",
      "outputs": [],
      "payable": false,
      "stateMutability": "nonpayable",
      "type": "function"
    },
    {
      "constant": false,
      "inputs": [
        {
          "internalType": "uint256",
          "name": "_propID",
          "type": "uint256"
        },
        {
          "internalType": "string",
          "name": "_propTitle",
          "type": "string"
        },
        {
          "internalType": "string",
          "name": "_propDescription",
          "type": "string"
        },
        {
          "internalType": "uint256",
          "name": "_value",
          "type": "uint256"
        },
        {
          "internalType": "uint256",
          "name": "_salePercent",
          "type": "uint256"
        },
        {
          "internalType": "string",
          "name": "_imgURL",
          "type": "string"
        }
      ],
      "name": "editProperty",
      "outputs": [],
      "payable": false,
      "stateMutability": "nonpayable",
      "type": "function"
    },
    {
      "constant": true,
      "inputs": [
        {
          "internalType": "uint256",
          "name": "_propID",
          "type": "uint256"
        }
      ],
      "name": "getPropertyDetails",
      "outputs": [
        {
          "internalType": "uint256",
          "name": "",
          "type": "uint256"
        },
        {
          "internalType": "string",
          "name": "",
          "type": "string"
        },
        {
          "internalType": "string",
          "name": "",
          "type": "string"
        },
        {
          "internalType": "string",
          "name": "",
          "type": "string"
        },
        {
          "internalType": "string",
          "name": "",
          "type": "string"
        }
      ],
      "payable": false,
      "stateMutability": "view",
      "type": "function"
    },
    {
      "constant": true,
      "inputs": [],
      "name": "getOwnersPropertyCount",
      "outputs": [
        {
          "internalType": "uint256",
          "name": "",
          "type": "uint256"
        }
      ],
      "payable": false,
      "stateMutability": "view",
      "type": "function"
    },
    {
      "constant": false,
      "inputs": [
        {
          "internalType": "uint256",
          "name": "_propID",
          "type": "uint256"
        },
        {
          "internalType": "uint256",
          "name": "_amount",
          "type": "uint256"
        },
        {
          "internalType": "address payable",
          "name": "_stakeOwner",
          "type": "address"
        }
      ],
      "name": "makeOffer",
      "outputs": [],
      "payable": false,
      "stateMutability": "nonpayable",
      "type": "function"
    },
    {
      "constant": false,
      "inputs": [
        {
          "internalType": "uint256",
          "name": "_propID",
          "type": "uint256"
        },
        {
          "internalType": "address payable",
          "name": "_buyer",
          "type": "address"
        }
      ],
      "name": "acceptOffer",
      "outputs": [],
      "payable": false,
      "stateMutability": "nonpayable",
      "type": "function"
    },
    {
      "constant": false,
      "inputs": [
        {
          "internalType": "uint256",
          "name": "_propID",
          "type": "uint256"
        },
        {
          "internalType": "address payable",
          "name": "_buyer",
          "type": "address"
        }
      ],
      "name": "rejectOffer",
      "outputs": [],
      "payable": false,
      "stateMutability": "nonpayable",
      "type": "function"
    },
    {
      "constant": false,
      "inputs": [
        {
          "internalType": "uint256",
          "name": "_propID",
          "type": "uint256"
        },
        {
          "internalType": "address payable",
          "name": "_stakeOwner",
          "type": "address"
        }
      ],
      "name": "cancelOffer",
      "outputs": [],
      "payable": false,
      "stateMutability": "nonpayable",
      "type": "function"
    },
    {
      "constant": false,
      "inputs": [
        {
          "internalType": "uint256",
          "name": "_propID",
          "type": "uint256"
        }
      ],
      "name": "cancelDeal",
      "outputs": [],
      "payable": false,
      "stateMutability": "nonpayable",
      "type": "function"
    },
    {
      "constant": false,
      "inputs": [
        {
          "internalType": "uint256",
          "name": "_propID",
          "type": "uint256"
        }
      ],
      "name": "purchaseProperty",
      "outputs": [],
      "payable": true,
      "stateMutability": "payable",
      "type": "function"
    }
  ],
  "bytecode": "0x6080604052600060015534801561001557600080fd5b50336000806101000a81548173ffffffffffffffffffffffffffffffffffffffff021916908373ffffffffffffffffffffffffffffffffffffffff1602179055506151ef806100656000396000f3fe6080604052600436106101095760003560e01c80639ab2f2a011610095578063c0fc80a211610064578063c0fc80a214610d8c578063db9371c214610de7578063f0e78b2b14610e42578063f1b85c4d14610e6d578063f851a44014610ebc57610109565b80639ab2f2a014610957578063abe29bdb14610a39578063b053c10914610b29578063c07296fa14610d3d57610109565b80636457c4f8116100dc5780636457c4f81461059d5780636f4bab6414610602578063739b1fa2146108a357806379d9c439146108ce578063918d407d146108fc57610109565b8063048ede581461010e578063126dbe431461031457806331ea1a3914610513578063371297db1461054e575b600080fd5b34801561011a57600080fd5b506101476004803603602081101561013157600080fd5b8101908080359060200190929190505050610f13565b604051808781526020018060200180602001806020018060200186815260200185810385528a818151815260200191508051906020019080838360005b8381101561019f578082015181840152602081019050610184565b50505050905090810190601f1680156101cc5780820380516001836020036101000a031916815260200191505b50858103845289818151815260200191508051906020019080838360005b838110156102055780820151818401526020810190506101ea565b50505050905090810190601f1680156102325780820380516001836020036101000a031916815260200191505b50858103835288818151815260200191508051906020019080838360005b8381101561026b578082015181840152602081019050610250565b50505050905090810190601f1680156102985780820380516001836020036101000a031916815260200191505b50858103825287818151815260200191508051906020019080838360005b838110156102d15780820151818401526020810190506102b6565b50505050905090810190601f1680156102fe5780820380516001836020036101000a031916815260200191505b509a505050505050505050505060405180910390f35b34801561032057600080fd5b5061034d6004803603602081101561033757600080fd5b81019080803590602001909291905050506111af565b6040518086815260200180602001806020018060200180602001858103855289818151815260200191508051906020019080838360005b8381101561039f578082015181840152602081019050610384565b50505050905090810190601f1680156103cc5780820380516001836020036101000a031916815260200191505b50858103845288818151815260200191508051906020019080838360005b838110156104055780820151818401526020810190506103ea565b50505050905090810190601f1680156104325780820380516001836020036101000a031916815260200191505b50858103835287818151815260200191508051906020019080838360005b8381101561046b578082015181840152602081019050610450565b50505050905090810190601f1680156104985780820380516001836020036101000a031916815260200191505b50858103825286818151815260200191508051906020019080838360005b838110156104d15780820151818401526020810190506104b6565b50505050905090810190601f1680156104fe5780820380516001836020036101000a031916815260200191505b50995050505050505050505060405180910390f35b34801561051f57600080fd5b5061054c6004803603602081101561053657600080fd5b81019080803590602001909291905050506114a9565b005b34801561055a57600080fd5b506105876004803603602081101561057157600080fd5b81019080803590602001909291905050506119ff565b6040518082815260200191505060405180910390f35b3480156105a957600080fd5b50610600600480360360608110156105c057600080fd5b810190808035906020019092919080359060200190929190803573ffffffffffffffffffffffffffffffffffffffff169060200190929190505050611a17565b005b34801561060e57600080fd5b506108a1600480360360c081101561062557600080fd5b810190808035906020019064010000000081111561064257600080fd5b82018360208201111561065457600080fd5b8035906020019184600183028401116401000000008311171561067657600080fd5b91908080601f016020809104026020016040519081016040528093929190818152602001838380828437600081840152601f19601f820116905080830192505050505050509192919290803590602001906401000000008111156106d957600080fd5b8201836020820111156106eb57600080fd5b8035906020019184600183028401116401000000008311171561070d57600080fd5b91908080601f016020809104026020016040519081016040528093929190818152602001838380828437600081840152601f19601f8201169050808301925050505050505091929192908035906020019064010000000081111561077057600080fd5b82018360208201111561078257600080fd5b803590602001918460018302840111640100000000831117156107a457600080fd5b91908080601f016020809104026020016040519081016040528093929190818152602001838380828437600081840152601f19601f82011690508083019250505050505050919291929080359060200190929190803590602001909291908035906020019064010000000081111561081b57600080fd5b82018360208201111561082d57600080fd5b8035906020019184600183028401116401000000008311171561084f57600080fd5b91908080601f016020809104026020016040519081016040528093929190818152602001838380828437600081840152601f19601f82011690508083019250505050505050919291929050505061201d565b005b3480156108af57600080fd5b506108b86125e9565b6040518082815260200191505060405180910390f35b6108fa600480360360208110156108e457600080fd5b81019080803590602001909291905050506125ef565b005b34801561090857600080fd5b506109556004803603604081101561091f57600080fd5b8101908080359060200190929190803573ffffffffffffffffffffffffffffffffffffffff169060200190929190505050613071565b005b34801561096357600080fd5b5061099a6004803603604081101561097a57600080fd5b810190808035906020019092919080359060200190929190505050613772565b604051808781526020018681526020018581526020018473ffffffffffffffffffffffffffffffffffffffff1673ffffffffffffffffffffffffffffffffffffffff1681526020018373ffffffffffffffffffffffffffffffffffffffff1673ffffffffffffffffffffffffffffffffffffffff168152602001826003811115610a2057fe5b60ff168152602001965050505050505060405180910390f35b348015610a4557600080fd5b50610a7c60048036036040811015610a5c57600080fd5b810190808035906020019092919080359060200190929190505050613815565b604051808981526020018881526020018781526020018681526020018573ffffffffffffffffffffffffffffffffffffffff1673ffffffffffffffffffffffffffffffffffffffff1681526020018473ffffffffffffffffffffffffffffffffffffffff1673ffffffffffffffffffffffffffffffffffffffff168152602001838152602001826003811115610b0e57fe5b60ff1681526020019850505050505050505060405180910390f35b348015610b3557600080fd5b50610d3b600480360360c0811015610b4c57600080fd5b810190808035906020019092919080359060200190640100000000811115610b7357600080fd5b820183602082011115610b8557600080fd5b80359060200191846001830284011164010000000083111715610ba757600080fd5b91908080601f016020809104026020016040519081016040528093929190818152602001838380828437600081840152601f19601f82011690508083019250505050505050919291929080359060200190640100000000811115610c0a57600080fd5b820183602082011115610c1c57600080fd5b80359060200191846001830284011164010000000083111715610c3e57600080fd5b91908080601f016020809104026020016040519081016040528093929190818152602001838380828437600081840152601f19601f820116905080830192505050505050509192919290803590602001909291908035906020019092919080359060200190640100000000811115610cb557600080fd5b820183602082011115610cc757600080fd5b80359060200191846001830284011164010000000083111715610ce957600080fd5b91908080601f016020809104026020016040519081016040528093929190818152602001838380828437600081840152601f19601f8201169050808301925050505050505091929192905050506138c4565b005b348015610d4957600080fd5b50610d7660048036036020811015610d6057600080fd5b8101908080359060200190929190505050613e14565b6040518082815260200191505060405180910390f35b348015610d9857600080fd5b50610de560048036036040811015610daf57600080fd5b8101908080359060200190929190803573ffffffffffffffffffffffffffffffffffffffff169060200190929190505050613e2c565b005b348015610df357600080fd5b50610e4060048036036040811015610e0a57600080fd5b8101908080359060200190929190803573ffffffffffffffffffffffffffffffffffffffff169060200190929190505050614590565b005b348015610e4e57600080fd5b50610e57614a5d565b6040518082815260200191505060405180910390f35b348015610e7957600080fd5b50610eba60048036036060811015610e9057600080fd5b81019080803590602001909291908035906020019092919080359060200190929190505050614b4b565b005b348015610ec857600080fd5b50610ed1614df2565b604051808273ffffffffffffffffffffffffffffffffffffffff1673ffffffffffffffffffffffffffffffffffffffff16815260200191505060405180910390f35b6002602052806000526040600020600091509050806000015490806001018054600181600116156101000203166002900480601f016020809104026020016040519081016040528092919081815260200182805460018160011615610100020316600290048015610fc55780601f10610f9a57610100808354040283529160200191610fc5565b820191906000526020600020905b815481529060010190602001808311610fa857829003601f168201915b505050505090806002018054600181600116156101000203166002900480601f0160208091040260200160405190810160405280929190818152602001828054600181600116156101000203166002900480156110635780601f1061103857610100808354040283529160200191611063565b820191906000526020600020905b81548152906001019060200180831161104657829003601f168201915b505050505090806003018054600181600116156101000203166002900480601f0160208091040260200160405190810160405280929190818152602001828054600181600116156101000203166002900480156111015780601f106110d657610100808354040283529160200191611101565b820191906000526020600020905b8154815290600101906020018083116110e457829003601f168201915b505050505090806004018054600181600116156101000203166002900480601f01602080910402602001604051908101604052809291908181526020018280546001816001161561010002031660029004801561119f5780601f106111745761010080835404028352916020019161119f565b820191906000526020600020905b81548152906001019060200180831161118257829003601f168201915b5050505050908060050154905086565b600060608060608060026000878152602001908152602001600020600001546002600088815260200190815260200160002060010160026000898152602001908152602001600020600201600260008a8152602001908152602001600020600301600260008b8152602001908152602001600020600401838054600181600116156101000203166002900480601f0160208091040260200160405190810160405280929190818152602001828054600181600116156101000203166002900480156112bb5780601f10611290576101008083540402835291602001916112bb565b820191906000526020600020905b81548152906001019060200180831161129e57829003601f168201915b50505050509350828054600181600116156101000203166002900480601f0160208091040260200160405190810160405280929190818152602001828054600181600116156101000203166002900480156113575780601f1061132c57610100808354040283529160200191611357565b820191906000526020600020905b81548152906001019060200180831161133a57829003601f168201915b50505050509250818054600181600116156101000203166002900480601f0160208091040260200160405190810160405280929190818152602001828054600181600116156101000203166002900480156113f35780601f106113c8576101008083540402835291602001916113f3565b820191906000526020600020905b8154815290600101906020018083116113d657829003601f168201915b50505050509150808054600181600116156101000203166002900480601f01602080910402602001604051908101604052809291908181526020018280546001816001161561010002031660029004801561148f5780601f106114645761010080835404028352916020019161148f565b820191906000526020600020905b81548152906001019060200180831161147257829003601f168201915b505050505090509450945094509450945091939590929450565b600080600090505b6005600084815260200190815260200160002080549050811015611567573373ffffffffffffffffffffffffffffffffffffffff1660056000858152602001908152602001600020828154811061150457fe5b906000526020600020906008020160040160009054906101000a900473ffffffffffffffffffffffffffffffffffffffff1673ffffffffffffffffffffffffffffffffffffffff16141561155a57809150611567565b80806001019150506114b1565b50600080600090505b6003600085815260200190815260200160002080549050811015611626573373ffffffffffffffffffffffffffffffffffffffff166003600086815260200190815260200160002082815481106115c357fe5b906000526020600020906005020160030160009054906101000a900473ffffffffffffffffffffffffffffffffffffffff1673ffffffffffffffffffffffffffffffffffffffff16141561161957809150611626565b8080600101915050611570565b50600082101561169e576040517f08c379a00000000000000000000000000000000000000000000000000000000081526004018080602001828103825260168152602001807f596f7520617265206e6f7420746865206f776e6572210000000000000000000081525060200191505060405180910390fd5b6116a6614e17565b6005600085815260200190815260200160002083815481106116c457fe5b906000526020600020906008020160405180610100016040529081600082015481526020016001820154815260200160028201548152602001600382015481526020016004820160009054906101000a900473ffffffffffffffffffffffffffffffffffffffff1673ffffffffffffffffffffffffffffffffffffffff1673ffffffffffffffffffffffffffffffffffffffff1681526020016005820160009054906101000a900473ffffffffffffffffffffffffffffffffffffffff1673ffffffffffffffffffffffffffffffffffffffff1673ffffffffffffffffffffffffffffffffffffffff168152602001600682015481526020016007820160009054906101000a900460ff1660038111156117da57fe5b60038111156117e557fe5b815250509050600160038111156117f857fe5b8160e00151600381111561180857fe5b1461181257600080fd5b600060036000868152602001908152602001600020838154811061183257fe5b906000526020600020906005020160040160146101000a81548160ff0219169083600381111561185e57fe5b021790555080608001518160a0019073ffffffffffffffffffffffffffffffffffffffff16908173ffffffffffffffffffffffffffffffffffffffff168152505060648160c00151816118ad57fe5b0481604001510281606001818152505060008160e0019060038111156118cf57fe5b908160038111156118dc57fe5b81525050806005600086815260200190815260200160002084815481106118ff57fe5b90600052602060002090600802016000820151816000015560208201518160010155604082015181600201556060820151816003015560808201518160040160006101000a81548173ffffffffffffffffffffffffffffffffffffffff021916908373ffffffffffffffffffffffffffffffffffffffff16021790555060a08201518160050160006101000a81548173ffffffffffffffffffffffffffffffffffffffff021916908373ffffffffffffffffffffffffffffffffffffffff16021790555060c0820151816006015560e08201518160070160006101000a81548160ff021916908360038111156119f157fe5b021790555090505050505050565b60066020528060005260406000206000915090505481565b600080600090505b6005600086815260200190815260200160002080549050811015611ad5578273ffffffffffffffffffffffffffffffffffffffff16600560008781526020019081526020016000208281548110611a7257fe5b906000526020600020906008020160040160009054906101000a900473ffffffffffffffffffffffffffffffffffffffff1673ffffffffffffffffffffffffffffffffffffffff161415611ac857809150611ad5565b8080600101915050611a1f565b50611ade614e17565b600560008681526020019081526020016000208281548110611afc57fe5b906000526020600020906008020160405180610100016040529081600082015481526020016001820154815260200160028201548152602001600382015481526020016004820160009054906101000a900473ffffffffffffffffffffffffffffffffffffffff1673ffffffffffffffffffffffffffffffffffffffff1673ffffffffffffffffffffffffffffffffffffffff1681526020016005820160009054906101000a900473ffffffffffffffffffffffffffffffffffffffff1673ffffffffffffffffffffffffffffffffffffffff1673ffffffffffffffffffffffffffffffffffffffff168152602001600682015481526020016007820160009054906101000a900460ff166003811115611c1257fe5b6003811115611c1d57fe5b81525050905060008160c0015111611c80576040517f08c379a00000000000000000000000000000000000000000000000000000000081526004018080602001828103825260378152602001806151636037913960400191505060405180910390fd5b806080015173ffffffffffffffffffffffffffffffffffffffff163373ffffffffffffffffffffffffffffffffffffffff161415611d26576040517f08c379a000000000000000000000000000000000000000000000000000000000815260040180806020018281038252601b8152602001807f596f7520617265207468652070726f7065727479206f776e657221000000000081525060200191505060405180910390fd5b60008411611d9c576040517f08c379a000000000000000000000000000000000000000000000000000000000815260040180806020018281038252601a8152602001807f456e74657220612076616c6964206f666665722076616c75652100000000000081525060200191505060405180910390fd5b60008160c001519050611dad614e93565b6040518060c001604052808881526020018381526020018781526020018673ffffffffffffffffffffffffffffffffffffffff1681526020013373ffffffffffffffffffffffffffffffffffffffff16815260200160006003811115611e0f57fe5b815250905060036000888152602001908152602001600020819080600181540180825580915050906001820390600052602060002090600502016000909192909190915060008201518160000155602082015181600101556040820151816002015560608201518160030160006101000a81548173ffffffffffffffffffffffffffffffffffffffff021916908373ffffffffffffffffffffffffffffffffffffffff16021790555060808201518160040160006101000a81548173ffffffffffffffffffffffffffffffffffffffff021916908373ffffffffffffffffffffffffffffffffffffffff16021790555060a08201518160040160146101000a81548160ff02191690836003811115611f2357fe5b021790555050505060046000888152602001908152602001600020600081548092919060010191905055507f742521a10893d30625fdc5ecaffae0d1f86dc9c6adbfae1b96f4e41e125d22ea87838888336000604051808781526020018681526020018581526020018473ffffffffffffffffffffffffffffffffffffffff1673ffffffffffffffffffffffffffffffffffffffff1681526020018373ffffffffffffffffffffffffffffffffffffffff1673ffffffffffffffffffffffffffffffffffffffff168152602001826003811115611ffc57fe5b60ff168152602001965050505050505060405180910390a150505050505050565b600085511161202b57600080fd5b600060019050600080905060008090506000600154111561227a576000600190505b600154811161227857886040516020018082805190602001908083835b6020831061208d578051825260208201915060208101905060208303925061206a565b6001836020036101000a0380198251168184511680821785525050505050509050019150506040516020818303038152906040528051906020012060026000838152602001908152602001600020600201604051602001808280546001816001161561010002031660029004801561213c5780601f1061211a57610100808354040283529182019161213c565b820191906000526020600020905b815481529060010190602001808311612128575b505091505060405160208183030381529060405280519060200120141561226b57600093508091508660026000838152602001908152602001600020600501540192506064600260008381526020019081526020016000206005015414156121ef576040517f08c379a000000000000000000000000000000000000000000000000000000000815260040180806020018281038252603c815260200180615127603c913960400191505060405180910390fd5b6064831115612266576040517f08c379a00000000000000000000000000000000000000000000000000000000081526004018080602001828103825260208152602001807f5374616b652073697a6520636c61696d656420697320746f6f206c617267652181525060200191505060405180910390fd5b612278565b808060010191505061204d565b505b6001151583151514156125b7576000851161229457600080fd5b60018054016001819055506000600660006001548152602001908152602001600020819055506000600460006001548152602001908152602001600020819055506122dd614f00565b6040518060c0016040528060015481526020018b81526020018a81526020018981526020018681526020018881525090508060026000600154815260200190815260200160002060008201518160000155602082015181600101908051906020019061234a929190614f36565b506040820151816002019080519060200190612367929190614f36565b506060820151816003019080519060200190612384929190614f36565b5060808201518160040190805190602001906123a1929190614f36565b5060a082015181600501559050507f2a6f0d713cae921cdaebce3a0436b13a961b3a7f39a6d2df7a9e931a3d9fb3dc6001548b8b8b898c604051808781526020018060200180602001806020018060200186815260200185810385528a818151815260200191508051906020019080838360005b83811015612430578082015181840152602081019050612415565b50505050905090810190601f16801561245d5780820380516001836020036101000a031916815260200191505b50858103845289818151815260200191508051906020019080838360005b8381101561249657808201518184015260208101905061247b565b50505050905090810190601f1680156124c35780820380516001836020036101000a031916815260200191505b50858103835288818151815260200191508051906020019080838360005b838110156124fc5780820151818401526020810190506124e1565b50505050905090810190601f1680156125295780820380516001836020036101000a031916815260200191505b50858103825287818151815260200191508051906020019080838360005b83811015612562578082015181840152602081019050612547565b50505050905090810190601f16801561258f5780820380516001836020036101000a031916815260200191505b509a505050505050505050505060405180910390a16125b16001548888614b4b565b506125de565b6125c2818787614b4b565b8160026000838152602001908152602001600020600501819055505b505050505050505050565b60015481565b80600080600090505b60056000848152602001908152602001600020805490508110156126ae573373ffffffffffffffffffffffffffffffffffffffff1660056000858152602001908152602001600020828154811061264b57fe5b906000526020600020906008020160040160009054906101000a900473ffffffffffffffffffffffffffffffffffffffff1673ffffffffffffffffffffffffffffffffffffffff1614156126a1578091506126ae565b80806001019150506125f8565b506000821180156126c157506001548211155b612733576040517f08c379a00000000000000000000000000000000000000000000000000000000081526004018080602001828103825260168152602001807f50726f706572747920494420697320696e76616c69640000000000000000000081525060200191505060405180910390fd5b3373ffffffffffffffffffffffffffffffffffffffff1660056000848152602001908152602001600020828154811061276857fe5b906000526020600020906008020160050160009054906101000a900473ffffffffffffffffffffffffffffffffffffffff1673ffffffffffffffffffffffffffffffffffffffff1614612823576040517f08c379a00000000000000000000000000000000000000000000000000000000081526004018080602001828103825260168152602001807f596f7520617265206e6f7420746865206275796572210000000000000000000081525060200191505060405180910390fd5b6001600381111561283057fe5b60056000848152602001908152602001600020828154811061284e57fe5b906000526020600020906008020160070160009054906101000a900460ff16600381111561287857fe5b146128eb576040517f08c379a00000000000000000000000000000000000000000000000000000000081526004018080602001828103825260158152602001807f5061796d656e7420616c7265616479206d61646521000000000000000000000081525060200191505060405180910390fd5b600080600090505b60056000868152602001908152602001600020805490508110156129a9573373ffffffffffffffffffffffffffffffffffffffff1660056000878152602001908152602001600020828154811061294657fe5b906000526020600020906008020160050160009054906101000a900473ffffffffffffffffffffffffffffffffffffffff1673ffffffffffffffffffffffffffffffffffffffff16141561299c578091506129a9565b80806001019150506128f3565b506129b2614e17565b6005600086815260200190815260200160002082815481106129d057fe5b906000526020600020906008020160405180610100016040529081600082015481526020016001820154815260200160028201548152602001600382015481526020016004820160009054906101000a900473ffffffffffffffffffffffffffffffffffffffff1673ffffffffffffffffffffffffffffffffffffffff1673ffffffffffffffffffffffffffffffffffffffff1681526020016005820160009054906101000a900473ffffffffffffffffffffffffffffffffffffffff1673ffffffffffffffffffffffffffffffffffffffff1673ffffffffffffffffffffffffffffffffffffffff168152602001600682015481526020016007820160009054906101000a900460ff166003811115612ae657fe5b6003811115612af157fe5b81525050905080606001513414612b70576040517f08c379a00000000000000000000000000000000000000000000000000000000081526004018080602001828103825260198152602001807f496e636f7272656374207061796d656e7420616d6f756e74210000000000000081525060200191505060405180910390fd5b60008160800151905060008260a0015190508173ffffffffffffffffffffffffffffffffffffffff166108fc349081150290604051600060405180830381858888f19350505050158015612bc8573d6000803e3d6000fd5b5060028360e001906003811115612bdb57fe5b90816003811115612be857fe5b8152505060026003811115612bf957fe5b8360e001516003811115612c0957fe5b14612c1357600080fd5b60648360c001511415612db6578260a00151836080019073ffffffffffffffffffffffffffffffffffffffff16908173ffffffffffffffffffffffffffffffffffffffff1681525050826060015183604001818152505060038360e001906003811115612c7c57fe5b90816003811115612c8957fe5b8152505060008360c001818152505082600560008981526020019081526020016000208581548110612cb757fe5b90600052602060002090600802016000820151816000015560208201518160010155604082015181600201556060820151816003015560808201518160040160006101000a81548173ffffffffffffffffffffffffffffffffffffffff021916908373ffffffffffffffffffffffffffffffffffffffff16021790555060a08201518160050160006101000a81548173ffffffffffffffffffffffffffffffffffffffff021916908373ffffffffffffffffffffffffffffffffffffffff16021790555060c0820151816006015560e08201518160070160006101000a81548160ff02191690836003811115612da957fe5b0217905550905050612f4c565b612dc9878460c001518560600151614b4b565b8260c001518360200151038360c00151846060015181612de557fe5b04028360400181815250508260c0015183602001510383602001818152505060038360e001906003811115612e1657fe5b90816003811115612e2357fe5b8152505060008360c001818152505082600560008981526020019081526020016000208581548110612e5157fe5b90600052602060002090600802016000820151816000015560208201518160010155604082015181600201556060820151816003015560808201518160040160006101000a81548173ffffffffffffffffffffffffffffffffffffffff021916908373ffffffffffffffffffffffffffffffffffffffff16021790555060a08201518160050160006101000a81548173ffffffffffffffffffffffffffffffffffffffff021916908373ffffffffffffffffffffffffffffffffffffffff16021790555060c0820151816006015560e08201518160070160006101000a81548160ff02191690836003811115612f4357fe5b02179055509050505b60008090505b6003600089815260200190815260200160002080549050811015612fa45760036000898152602001908152602001600020805480919060019003612f969190614fb6565b508080600101915050612f52565b50600060046000898152602001908152602001600020819055507fb840f82d8d2eb1c6318ff5128b9e66fadd61f587c0ca9bbc00b46e0b488defaf87600560008a81526020019081526020016000208681548110612ffe57fe5b9060005260206000209060080201600101543484604051808581526020018481526020018381526020018273ffffffffffffffffffffffffffffffffffffffff1673ffffffffffffffffffffffffffffffffffffffff16815260200194505050505060405180910390a150505050505050565b600080600090505b600560008581526020019081526020016000208054905081101561312f573373ffffffffffffffffffffffffffffffffffffffff166005600086815260200190815260200160002082815481106130cc57fe5b906000526020600020906008020160040160009054906101000a900473ffffffffffffffffffffffffffffffffffffffff1673ffffffffffffffffffffffffffffffffffffffff1614156131225780915061312f565b8080600101915050613079565b5060008110156131a7576040517f08c379a00000000000000000000000000000000000000000000000000000000081526004018080602001828103825260168152602001807f596f7520617265206e6f7420746865206f776e6572210000000000000000000081525060200191505060405180910390fd5b6131af614e17565b6005600085815260200190815260200160002082815481106131cd57fe5b906000526020600020906008020160405180610100016040529081600082015481526020016001820154815260200160028201548152602001600382015481526020016004820160009054906101000a900473ffffffffffffffffffffffffffffffffffffffff1673ffffffffffffffffffffffffffffffffffffffff1673ffffffffffffffffffffffffffffffffffffffff1681526020016005820160009054906101000a900473ffffffffffffffffffffffffffffffffffffffff1673ffffffffffffffffffffffffffffffffffffffff1673ffffffffffffffffffffffffffffffffffffffff168152602001600682015481526020016007820160009054906101000a900460ff1660038111156132e357fe5b60038111156132ee57fe5b8152505090506000600381111561330157fe5b8160e00151600381111561331157fe5b1461331b57600080fd5b3373ffffffffffffffffffffffffffffffffffffffff168373ffffffffffffffffffffffffffffffffffffffff1614156133a0576040517f08c379a000000000000000000000000000000000000000000000000000000000815260040180806020018281038252602181526020018061519a6021913960400191505060405180910390fd5b600080600090505b600360008781526020019081526020016000208054905081101561345e578473ffffffffffffffffffffffffffffffffffffffff166003600088815260200190815260200160002082815481106133fb57fe5b906000526020600020906005020160040160009054906101000a900473ffffffffffffffffffffffffffffffffffffffff1673ffffffffffffffffffffffffffffffffffffffff1614156134515780915061345e565b80806001019150506133a8565b50600160036000878152602001908152602001600020828154811061347f57fe5b906000526020600020906005020160040160146101000a81548160ff021916908360038111156134ab57fe5b02179055506134b8614e93565b6003600087815260200190815260200160002082815481106134d657fe5b90600052602060002090600502016040518060c00160405290816000820154815260200160018201548152602001600282015481526020016003820160009054906101000a900473ffffffffffffffffffffffffffffffffffffffff1673ffffffffffffffffffffffffffffffffffffffff1673ffffffffffffffffffffffffffffffffffffffff1681526020016004820160009054906101000a900473ffffffffffffffffffffffffffffffffffffffff1673ffffffffffffffffffffffffffffffffffffffff1673ffffffffffffffffffffffffffffffffffffffff1681526020016004820160149054906101000a900460ff1660038111156135d757fe5b60038111156135e257fe5b815250509050848360a0019073ffffffffffffffffffffffffffffffffffffffff16908173ffffffffffffffffffffffffffffffffffffffff1681525050806040015183606001818152505060018360e00190600381111561364057fe5b9081600381111561364d57fe5b815250508260056000888152602001908152602001600020858154811061367057fe5b90600052602060002090600802016000820151816000015560208201518160010155604082015181600201556060820151816003015560808201518160040160006101000a81548173ffffffffffffffffffffffffffffffffffffffff021916908373ffffffffffffffffffffffffffffffffffffffff16021790555060a08201518160050160006101000a81548173ffffffffffffffffffffffffffffffffffffffff021916908373ffffffffffffffffffffffffffffffffffffffff16021790555060c0820151816006015560e08201518160070160006101000a81548160ff0219169083600381111561376257fe5b0217905550905050505050505050565b6003602052816000526040600020818154811061378b57fe5b9060005260206000209060050201600091509150508060000154908060010154908060020154908060030160009054906101000a900473ffffffffffffffffffffffffffffffffffffffff16908060040160009054906101000a900473ffffffffffffffffffffffffffffffffffffffff16908060040160149054906101000a900460ff16905086565b6005602052816000526040600020818154811061382e57fe5b9060005260206000209060080201600091509150508060000154908060010154908060020154908060030154908060040160009054906101000a900473ffffffffffffffffffffffffffffffffffffffff16908060050160009054906101000a900473ffffffffffffffffffffffffffffffffffffffff16908060060154908060070160009054906101000a900460ff16905088565b600080600090505b6005600089815260200190815260200160002080549050811015613982573373ffffffffffffffffffffffffffffffffffffffff16600560008a8152602001908152602001600020828154811061391f57fe5b906000526020600020906008020160040160009054906101000a900473ffffffffffffffffffffffffffffffffffffffff1673ffffffffffffffffffffffffffffffffffffffff16141561397557809150613982565b80806001019150506138cc565b5060008110156139fa576040517f08c379a00000000000000000000000000000000000000000000000000000000081526004018080602001828103825260168152602001807f596f7520617265206e6f7420746865206f776e6572210000000000000000000081525060200191505060405180910390fd5b613a02614e17565b600560008981526020019081526020016000208281548110613a2057fe5b906000526020600020906008020160405180610100016040529081600082015481526020016001820154815260200160028201548152602001600382015481526020016004820160009054906101000a900473ffffffffffffffffffffffffffffffffffffffff1673ffffffffffffffffffffffffffffffffffffffff1673ffffffffffffffffffffffffffffffffffffffff1681526020016005820160009054906101000a900473ffffffffffffffffffffffffffffffffffffffff1673ffffffffffffffffffffffffffffffffffffffff1673ffffffffffffffffffffffffffffffffffffffff168152602001600682015481526020016007820160009054906101000a900460ff166003811115613b3657fe5b6003811115613b4157fe5b81525050905060006003811115613b5457fe5b8160e001516003811115613b6457fe5b1480613b895750600380811115613b7757fe5b8160e001516003811115613b8757fe5b145b613bfb576040517f08c379a00000000000000000000000000000000000000000000000000000000081526004018080602001828103825260208152602001807f546865726520697320616e206f6e676f696e67207472616e73616374696f6e2181525060200191505060405180910390fd5b86600260008a81526020019081526020016000206001019080519060200190613c25929190614fe8565b5085600260008a81526020019081526020016000206003019080519060200190613c50929190614fe8565b5082600260008a81526020019081526020016000206004019080519060200190613c7b929190614fe8565b5084816040018181525050838160c0015114613cf157838160c00181815250506000841115613ccc5760008160e001906003811115613cb657fe5b90816003811115613cc357fe5b81525050613cf0565b60038160e001906003811115613cde57fe5b90816003811115613ceb57fe5b815250505b5b80600560008a81526020019081526020016000208381548110613d1057fe5b90600052602060002090600802016000820151816000015560208201518160010155604082015181600201556060820151816003015560808201518160040160006101000a81548173ffffffffffffffffffffffffffffffffffffffff021916908373ffffffffffffffffffffffffffffffffffffffff16021790555060a08201518160050160006101000a81548173ffffffffffffffffffffffffffffffffffffffff021916908373ffffffffffffffffffffffffffffffffffffffff16021790555060c0820151816006015560e08201518160070160006101000a81548160ff02191690836003811115613e0257fe5b02179055509050505050505050505050565b60046020528060005260406000206000915090505481565b600080600090505b6005600085815260200190815260200160002080549050811015613eea578273ffffffffffffffffffffffffffffffffffffffff16600560008681526020019081526020016000208281548110613e8757fe5b906000526020600020906008020160040160009054906101000a900473ffffffffffffffffffffffffffffffffffffffff1673ffffffffffffffffffffffffffffffffffffffff161415613edd57809150613eea565b8080600101915050613e34565b50613ef3614e17565b600560008581526020019081526020016000208281548110613f1157fe5b906000526020600020906008020160405180610100016040529081600082015481526020016001820154815260200160028201548152602001600382015481526020016004820160009054906101000a900473ffffffffffffffffffffffffffffffffffffffff1673ffffffffffffffffffffffffffffffffffffffff1673ffffffffffffffffffffffffffffffffffffffff1681526020016005820160009054906101000a900473ffffffffffffffffffffffffffffffffffffffff1673ffffffffffffffffffffffffffffffffffffffff1673ffffffffffffffffffffffffffffffffffffffff168152602001600682015481526020016007820160009054906101000a900460ff16600381111561402757fe5b600381111561403257fe5b8152505090506000600381111561404557fe5b60056000868152602001908152602001600020838154811061406357fe5b906000526020600020906008020160070160009054906101000a900460ff16600381111561408d57fe5b14806140eb5750600160038111156140a157fe5b6005600086815260200190815260200160002083815481106140bf57fe5b906000526020600020906008020160070160009054906101000a900460ff1660038111156140e957fe5b145b6140f457600080fd5b600080600090505b60036000878152602001908152602001600020805490508110156141b2573373ffffffffffffffffffffffffffffffffffffffff1660036000888152602001908152602001600020828154811061414f57fe5b906000526020600020906005020160040160009054906101000a900473ffffffffffffffffffffffffffffffffffffffff1673ffffffffffffffffffffffffffffffffffffffff1614156141a5578091506141b2565b80806001019150506140fc565b50600360008681526020019081526020016000206001600360008881526020019081526020016000208054905003815481106141ea57fe5b906000526020600020906005020160036000878152602001908152602001600020828154811061421657fe5b90600052602060002090600502016000820154816000015560018201548160010155600282015481600201556003820160009054906101000a900473ffffffffffffffffffffffffffffffffffffffff168160030160006101000a81548173ffffffffffffffffffffffffffffffffffffffff021916908373ffffffffffffffffffffffffffffffffffffffff1602179055506004820160009054906101000a900473ffffffffffffffffffffffffffffffffffffffff168160040160006101000a81548173ffffffffffffffffffffffffffffffffffffffff021916908373ffffffffffffffffffffffffffffffffffffffff1602179055506004820160149054906101000a900460ff168160040160146101000a81548160ff0219169083600381111561434157fe5b02179055509050506003600086815260200190815260200160002080548091906001900361436f9190614fb6565b50600460008681526020019081526020016000206000815480929190600190039190505550600160038111156143a157fe5b8260e0015160038111156143b157fe5b1480156143ed57503373ffffffffffffffffffffffffffffffffffffffff168260a0015173ffffffffffffffffffffffffffffffffffffffff16145b156145895781608001518260a0019073ffffffffffffffffffffffffffffffffffffffff16908173ffffffffffffffffffffffffffffffffffffffff168152505060648260c001518161443c57fe5b0482604001510282606001818152505060008260e00190600381111561445e57fe5b9081600381111561446b57fe5b815250508160056000878152602001908152602001600020848154811061448e57fe5b90600052602060002090600802016000820151816000015560208201518160010155604082015181600201556060820151816003015560808201518160040160006101000a81548173ffffffffffffffffffffffffffffffffffffffff021916908373ffffffffffffffffffffffffffffffffffffffff16021790555060a08201518160050160006101000a81548173ffffffffffffffffffffffffffffffffffffffff021916908373ffffffffffffffffffffffffffffffffffffffff16021790555060c0820151816006015560e08201518160070160006101000a81548160ff0219169083600381111561458057fe5b02179055509050505b5050505050565b600080600090505b600560008581526020019081526020016000208054905081101561464e573373ffffffffffffffffffffffffffffffffffffffff166005600086815260200190815260200160002082815481106145eb57fe5b906000526020600020906008020160040160009054906101000a900473ffffffffffffffffffffffffffffffffffffffff1673ffffffffffffffffffffffffffffffffffffffff1614156146415780915061464e565b8080600101915050614598565b5060008110156146c6576040517f08c379a00000000000000000000000000000000000000000000000000000000081526004018080602001828103825260168152602001807f596f7520617265206e6f7420746865206f776e6572210000000000000000000081525060200191505060405180910390fd5b8173ffffffffffffffffffffffffffffffffffffffff166005600085815260200190815260200160002082815481106146fb57fe5b906000526020600020906008020160050160009054906101000a900473ffffffffffffffffffffffffffffffffffffffff1673ffffffffffffffffffffffffffffffffffffffff1614156147b7576040517f08c379a000000000000000000000000000000000000000000000000000000000815260040180806020018281038252601c8152602001807f416c72656164792061636365707465642074686973206f66666572210000000081525060200191505060405180910390fd5b600080600090505b6003600086815260200190815260200160002080549050811015614875578373ffffffffffffffffffffffffffffffffffffffff1660036000878152602001908152602001600020828154811061481257fe5b906000526020600020906005020160040160009054906101000a900473ffffffffffffffffffffffffffffffffffffffff1673ffffffffffffffffffffffffffffffffffffffff16141561486857809150614875565b80806001019150506147bf565b50600360008581526020019081526020016000206001600360008781526020019081526020016000208054905003815481106148ad57fe5b90600052602060002090600502016003600086815260200190815260200160002082815481106148d957fe5b90600052602060002090600502016000820154816000015560018201548160010155600282015481600201556003820160009054906101000a900473ffffffffffffffffffffffffffffffffffffffff168160030160006101000a81548173ffffffffffffffffffffffffffffffffffffffff021916908373ffffffffffffffffffffffffffffffffffffffff1602179055506004820160009054906101000a900473ffffffffffffffffffffffffffffffffffffffff168160040160006101000a81548173ffffffffffffffffffffffffffffffffffffffff021916908373ffffffffffffffffffffffffffffffffffffffff1602179055506004820160149054906101000a900460ff168160040160146101000a81548160ff02191690836003811115614a0457fe5b021790555090505060036000858152602001908152602001600020805480919060019003614a329190614fb6565b5060046000858152602001908152602001600020600081548092919060019003919050555050505050565b600080600090506000600190505b6001548111614b435760008090505b6005600083815260200190815260200160002080549050811015614b35573373ffffffffffffffffffffffffffffffffffffffff16600560008481526020019081526020016000208281548110614acd57fe5b906000526020600020906008020160040160009054906101000a900473ffffffffffffffffffffffffffffffffffffffff1673ffffffffffffffffffffffffffffffffffffffff161415614b28578280600101935050614b35565b8080600101915050614a7a565b508080600101915050614a6b565b508091505090565b614b53614e17565b6040518061010001604052808581526020018481526020018381526020018381526020013373ffffffffffffffffffffffffffffffffffffffff1681526020013373ffffffffffffffffffffffffffffffffffffffff1681526020016000815260200160006003811115614bc357fe5b81525090506005600085815260200190815260200160002081908060018154018082558091505090600182039060005260206000209060080201600090919290919091506000820151816000015560208201518160010155604082015181600201556060820151816003015560808201518160040160006101000a81548173ffffffffffffffffffffffffffffffffffffffff021916908373ffffffffffffffffffffffffffffffffffffffff16021790555060a08201518160050160006101000a81548173ffffffffffffffffffffffffffffffffffffffff021916908373ffffffffffffffffffffffffffffffffffffffff16021790555060c0820151816006015560e08201518160070160006101000a81548160ff02191690836003811115614ceb57fe5b021790555050505060066000858152602001908152602001600020600081548092919060010191905055507f915a0e6b9e60f2f78efb4822a40ef94559f4d99d4137400abc1d2e2f288a5c3d848484853333600080604051808981526020018881526020018781526020018681526020018573ffffffffffffffffffffffffffffffffffffffff1673ffffffffffffffffffffffffffffffffffffffff1681526020018473ffffffffffffffffffffffffffffffffffffffff1673ffffffffffffffffffffffffffffffffffffffff168152602001838152602001826003811115614dd257fe5b60ff1681526020019850505050505050505060405180910390a150505050565b6000809054906101000a900473ffffffffffffffffffffffffffffffffffffffff1681565b60405180610100016040528060008152602001600081526020016000815260200160008152602001600073ffffffffffffffffffffffffffffffffffffffff168152602001600073ffffffffffffffffffffffffffffffffffffffff1681526020016000815260200160006003811115614e8d57fe5b81525090565b6040518060c00160405280600081526020016000815260200160008152602001600073ffffffffffffffffffffffffffffffffffffffff168152602001600073ffffffffffffffffffffffffffffffffffffffff16815260200160006003811115614efa57fe5b81525090565b6040518060c001604052806000815260200160608152602001606081526020016060815260200160608152602001600081525090565b828054600181600116156101000203166002900490600052602060002090601f016020900481019282601f10614f7757805160ff1916838001178555614fa5565b82800160010185558215614fa5579182015b82811115614fa4578251825591602001919060010190614f89565b5b509050614fb29190615068565b5090565b815481835581811115614fe357600502816005028360005260206000209182019101614fe2919061508d565b5b505050565b828054600181600116156101000203166002900490600052602060002090601f016020900481019282601f1061502957805160ff1916838001178555615057565b82800160010185558215615057579182015b8281111561505657825182559160200191906001019061503b565b5b5090506150649190615068565b5090565b61508a91905b8082111561508657600081600090555060010161506e565b5090565b90565b61512391905b8082111561511f57600080820160009055600182016000905560028201600090556003820160006101000a81549073ffffffffffffffffffffffffffffffffffffffff02191690556004820160006101000a81549073ffffffffffffffffffffffffffffffffffffffff02191690556004820160146101000a81549060ff021916905550600501615093565b5090565b9056fe546869732070726f706572747920697320616c7265616479207265676973746572656420616e642066756c6c79206163636f756e74656420666f7221546861742070726f7065727479206973206e6f7420666f722073616c652e20506c6561736520656469742069742773207374617475732e596f752063616e6e6f742061636365707420796f7572206f776e206f6666657221a265627a7a7231582006a17c1328894d36ec079697b2bc56733435df16867acb418da0ec5f983de44d64736f6c63430005100032",
  "source": "pragma solidity ^0.5.0;\r\n\r\ncontract Marketplace {\r\n\r\n    address public admin;\r\n    uint public totalPropertyCounter = 0;\r\n    enum State {NONE, AWAITING_PAYMENT, AWAITING_TRANSFER, COMPLETE}\r\n    struct Property {\r\n        uint propID;\r\n        string propTitle;\r\n        string propAddress;\r\n        string propDescription;\r\n        string imgURL;\r\n        uint accounted;\r\n    }\r\n    struct Escrow {\r\n        uint propID;\r\n        uint percentage;\r\n        uint value;\r\n        uint amount;\r\n        address payable stakeOwner;\r\n        address payable buyer;\r\n        uint salePercent;\r\n        State currState;\r\n    }\r\n    struct Offer {\r\n        uint propID;\r\n        uint percentage;\r\n        uint amount;\r\n        address payable stakeOwner;\r\n        address payable buyer;\r\n        State currState;\r\n    }\r\n    mapping(uint => Property) public allProperty;\r\n    mapping(uint => Offer[]) public allOffers;\r\n    mapping(uint => uint) public offerCounts;\r\n    mapping(uint => Escrow[]) public allEscrows;\r\n    mapping(uint => uint) public escrowCounts;\r\n\r\n    event CreatedProperty(uint _propID, string _propTitle, string _propAddress, string _propDescription, string _imgURL, uint _accounted);\r\n    event CreatedEscrow(uint _propID, uint _percentage, uint _value, uint _amount, address payable _propOwner, address payable _buyer, uint _salePercent, State _currState);\r\n    event CreatedOffer(uint _propID, uint _percentage, uint _amount, address payable _stakeOwner, address payable _buyer, State _currState);\r\n    event PurchasedStake(uint _propID, uint _percentage, uint _amount, address payable _stakeOwner);\r\n    \r\n    constructor() public {\r\n       //The admin account is used to deploy the contract.\r\n       admin = msg.sender;\r\n    }\r\n\r\n    modifier isAdmin {\r\n        require(msg.sender == admin, \"You are not authorised to add property!\");\r\n        _;\r\n    }\r\n\r\n    modifier checkPayment(uint _propID) {\r\n        uint index;\r\n        for(uint i=0; i<allEscrows[_propID].length; i++) {\r\n            if(allEscrows[_propID][i].stakeOwner == msg.sender) {\r\n                index = i;\r\n                break;\r\n            }\r\n        }\r\n        require(_propID > 0 && _propID <= totalPropertyCounter, \"Property ID is invalid\");\r\n        require(allEscrows[_propID][index].buyer == msg.sender, \"You are not the buyer!\");\r\n        require(allEscrows[_propID][index].currState == State.AWAITING_PAYMENT, \"Payment already made!\");\r\n        _;\r\n    }\r\n\r\n    function addEscrow(uint _propID, uint _percentage, uint _value) public {\r\n        Escrow memory nullEscrow = Escrow({\r\n            propID: _propID,\r\n            percentage: _percentage,\r\n            value: _value,\r\n            amount: _value,\r\n            stakeOwner: msg.sender,\r\n            buyer: msg.sender,\r\n            salePercent: 0,\r\n            currState: State.NONE\r\n        });\r\n        allEscrows[_propID].push(nullEscrow);\r\n        escrowCounts[_propID]++;\r\n        emit CreatedEscrow(_propID, _percentage, _value, _value, msg.sender, msg.sender, 0, State.NONE);\r\n    }\r\n\r\n    function addProperty(string memory _propTitle, string memory _propAddress, string memory _propDescription, uint _percentage, uint _value, string memory _imgURL) public {\r\n        require(bytes(_propAddress).length > 0);\r\n\r\n        // Check if unique property and/or all owners are registered\r\n        bool isUnique = true;\r\n        uint percentAcc = 0;\r\n        uint propID = 0;\r\n        if(totalPropertyCounter > 0) {\r\n            for(uint i=1; i<=totalPropertyCounter; i++) {\r\n                if (keccak256(abi.encodePacked(allProperty[i].propAddress)) == keccak256(abi.encodePacked(_propAddress))) {\r\n                    isUnique = false;\r\n                    propID = i;\r\n                    percentAcc = allProperty[i].accounted + _percentage;\r\n                    if (allProperty[i].accounted == 100) {\r\n                        revert(\"This property is already registered and fully accounted for!\");\r\n                    } else if (percentAcc > 100) {\r\n                        revert(\"Stake size claimed is too large!\");\r\n                    }\r\n                    break;\r\n                }\r\n            }\r\n        }\r\n        // Create new property if unique\r\n        if (isUnique == true) {\r\n            require(_value > 0);\r\n            totalPropertyCounter = totalPropertyCounter + 1;\r\n            escrowCounts[totalPropertyCounter] = 0;\r\n            offerCounts[totalPropertyCounter] = 0;\r\n            \r\n            Property memory myProperty = Property({\r\n                propID: totalPropertyCounter,\r\n                propTitle: _propTitle,\r\n                propAddress: _propAddress,\r\n                propDescription: _propDescription,\r\n                imgURL: _imgURL,\r\n                accounted: _percentage\r\n            });\r\n\r\n            allProperty[totalPropertyCounter] = myProperty;\r\n            emit CreatedProperty(totalPropertyCounter, _propTitle, _propAddress, _propDescription, _imgURL, _percentage);\r\n            // Add stake for person first adding the property\r\n            addEscrow(totalPropertyCounter, _percentage, _value);\r\n\r\n        } else {\r\n            // Only need to add new stake owner as property already exists. Need to update accounted percentage of property.\r\n            addEscrow(propID, _percentage, _value);\r\n            allProperty[propID].accounted = percentAcc;\r\n        }\r\n    }\r\n\r\n    function editProperty(uint _propID, string memory _propTitle, string memory _propDescription, uint _value, uint _salePercent, string memory _imgURL) public {\r\n        uint index;\r\n        for(uint i=0; i<allEscrows[_propID].length; i++) {\r\n            if(allEscrows[_propID][i].stakeOwner == msg.sender) {\r\n                index = i;\r\n                break;\r\n            }\r\n        }\r\n        require(index >= 0, \"You are not the owner!\");\r\n        Escrow memory myEscrow = allEscrows[_propID][index];\r\n        require(myEscrow.currState == State.NONE || myEscrow.currState == State.COMPLETE, \"There is an ongoing transaction!\");\r\n\r\n        allProperty[_propID].propTitle = _propTitle;\r\n        allProperty[_propID].propDescription = _propDescription;\r\n        allProperty[_propID].imgURL = _imgURL;\r\n        myEscrow.value = _value;\r\n        if (myEscrow.salePercent != _salePercent) {\r\n            myEscrow.salePercent = _salePercent;\r\n            if (_salePercent > 0) {\r\n                myEscrow.currState = State.NONE;\r\n            } else {\r\n                myEscrow.currState = State.COMPLETE;\r\n            }\r\n        }\r\n        allEscrows[_propID][index] = myEscrow;\r\n    }\r\n    \r\n    function getPropertyDetails(uint _propID) public view returns (uint, string memory, string memory, string memory, string memory) {\r\n        return (allProperty[_propID].propID,\r\n            allProperty[_propID].propTitle, \r\n            allProperty[_propID].propAddress,\r\n            allProperty[_propID].propDescription,\r\n            allProperty[_propID].imgURL);\r\n    }\r\n\r\n    function getOwnersPropertyCount() public view returns (uint) {\r\n        uint propCount = 0;\r\n        for(uint i=1; i<=totalPropertyCounter; i++) {\r\n            for(uint j=0; j<allEscrows[i].length; j++) {\r\n                if(allEscrows[i][j].stakeOwner == msg.sender) {\r\n                    propCount++;\r\n                    break;\r\n                }\r\n            }\r\n        }\r\n        return propCount;\r\n    }\r\n\r\n    function makeOffer(uint _propID, uint _amount, address payable _stakeOwner) public {\r\n        uint index;\r\n        for(uint i=0; i<allEscrows[_propID].length; i++) {\r\n            if(allEscrows[_propID][i].stakeOwner == _stakeOwner) {\r\n                index = i;\r\n                break;\r\n            }\r\n        }\r\n        Escrow memory myEscrow = allEscrows[_propID][index];\r\n        require(myEscrow.salePercent > 0, \"That property is not for sale. Please edit it's status.\");\r\n        require(msg.sender != myEscrow.stakeOwner, 'You are the property owner!');\r\n        require(_amount > 0, 'Enter a valid offer value!');\r\n\r\n        uint _percentage = myEscrow.salePercent;\r\n\r\n        Offer memory myOffer = Offer({\r\n            propID: _propID,\r\n            percentage: _percentage,\r\n            amount: _amount,\r\n            stakeOwner: _stakeOwner,\r\n            buyer: msg.sender,\r\n            currState: State.NONE\r\n        });\r\n        allOffers[_propID].push(myOffer);\r\n        offerCounts[_propID]++;\r\n        emit CreatedOffer(_propID, _percentage, _amount, _stakeOwner, msg.sender, State.NONE);\r\n    }\r\n\r\n    function acceptOffer(uint _propID, address payable _buyer) public {\r\n        uint indexE;\r\n        for(uint i=0; i<allEscrows[_propID].length; i++) {\r\n            if(allEscrows[_propID][i].stakeOwner == msg.sender) {\r\n                indexE = i;\r\n                break;\r\n            }\r\n        }\r\n        require(indexE >= 0, \"You are not the owner!\");\r\n        Escrow memory myEscrow = allEscrows[_propID][indexE];\r\n        require(myEscrow.currState == State.NONE);\r\n        require(_buyer != msg.sender, \"You cannot accept your own offer!\");\r\n        uint indexO;\r\n        for(uint i=0; i<allOffers[_propID].length; i++) {\r\n            if(allOffers[_propID][i].buyer == _buyer) {\r\n                indexO = i;\r\n                break;\r\n            }\r\n        }\r\n        // Update offer status\r\n        allOffers[_propID][indexO].currState = State.AWAITING_PAYMENT;\r\n        Offer memory acceptedOffer = allOffers[_propID][indexO];\r\n        // Update escrow\r\n        myEscrow.buyer = _buyer;\r\n        myEscrow.amount = acceptedOffer.amount;\r\n        myEscrow.currState = State.AWAITING_PAYMENT;\r\n        allEscrows[_propID][indexE] = myEscrow;\r\n    }\r\n\r\n    //For the seller to reject offers.\r\n    function rejectOffer(uint _propID, address payable _buyer) public {\r\n        uint indexE;\r\n        for(uint i=0; i<allEscrows[_propID].length; i++) {\r\n            if(allEscrows[_propID][i].stakeOwner == msg.sender) {\r\n                indexE = i;\r\n                break;\r\n            }\r\n        }\r\n        require(indexE >= 0, \"You are not the owner!\");\r\n        require(allEscrows[_propID][indexE].buyer != _buyer, \"Already accepted this offer!\");\r\n        uint indexO;\r\n        for(uint i=0; i<allOffers[_propID].length; i++) {\r\n            if(allOffers[_propID][i].buyer == _buyer) {\r\n                indexO = i;\r\n                break;\r\n            }\r\n        }\r\n        //Remove offer\r\n        allOffers[_propID][indexO] = allOffers[_propID][(allOffers[_propID].length-1)];\r\n        allOffers[_propID].length--;\r\n        offerCounts[_propID]--;\r\n    }\r\n\r\n    //For the buyer to back out of offers, even if they have been accepted by seller. Must be before payment. Resets escrow.\r\n    function cancelOffer(uint _propID, address payable _stakeOwner) public {\r\n        uint indexE;\r\n        for(uint i=0; i<allEscrows[_propID].length; i++) {\r\n            if(allEscrows[_propID][i].stakeOwner == _stakeOwner) {\r\n                indexE = i;\r\n                break;\r\n            }\r\n        }\r\n        Escrow memory myEscrow = allEscrows[_propID][indexE];\r\n        require(allEscrows[_propID][indexE].currState == State.NONE || allEscrows[_propID][indexE].currState == State.AWAITING_PAYMENT);\r\n        uint indexO;\r\n        for(uint i=0; i<allOffers[_propID].length; i++) {\r\n            if(allOffers[_propID][i].buyer == msg.sender) {\r\n                indexO = i;\r\n                break;\r\n            }\r\n        }\r\n        //Remove offer\r\n        allOffers[_propID][indexO] = allOffers[_propID][(allOffers[_propID].length-1)];\r\n        allOffers[_propID].length--;\r\n        offerCounts[_propID]--;\r\n        //If buyer is cancelling an offer that has already been accepted by a seller.\r\n        if (myEscrow.currState == State.AWAITING_PAYMENT && myEscrow.buyer == msg.sender) {\r\n            //Reset the fields in the escrow.\r\n            myEscrow.buyer = myEscrow.stakeOwner;\r\n            myEscrow.amount = myEscrow.value * (myEscrow.salePercent/100);\r\n            myEscrow.currState = State.NONE;\r\n            allEscrows[_propID][indexE] = myEscrow;\r\n        }\r\n    }\r\n\r\n    //For the seller to back out of offers before payment. Will not remove the related offer.\r\n    function cancelDeal(uint _propID) public {\r\n        uint indexE;\r\n        for(uint i=0; i<allEscrows[_propID].length; i++) {\r\n            if(allEscrows[_propID][i].stakeOwner == msg.sender) {\r\n                indexE = i;\r\n                break;\r\n            }\r\n        }\r\n        uint indexO;\r\n        for(uint i=0; i<allOffers[_propID].length; i++) {\r\n            if(allOffers[_propID][i].stakeOwner == msg.sender) {\r\n                indexO = i;\r\n                break;\r\n            }\r\n        }\r\n        require(indexE >= 0, \"You are not the owner!\");\r\n        Escrow memory myEscrow = allEscrows[_propID][indexE];\r\n        require(myEscrow.currState == State.AWAITING_PAYMENT);\r\n        // Reset offer status\r\n        allOffers[_propID][indexO].currState = State.NONE;\r\n        // Reset the fields in the escrow.\r\n        myEscrow.buyer = myEscrow.stakeOwner;\r\n        myEscrow.amount = myEscrow.value * (myEscrow.salePercent/100);\r\n        myEscrow.currState = State.NONE;\r\n        allEscrows[_propID][indexE] = myEscrow;\r\n    }\r\n\r\n    function purchaseProperty(uint _propID) public payable checkPayment(_propID) {\r\n        uint indexE;\r\n        for(uint i=0; i<allEscrows[_propID].length; i++) {\r\n            if(allEscrows[_propID][i].buyer == msg.sender) {\r\n                indexE = i;\r\n                break;\r\n            }\r\n        }\r\n        Escrow memory myEscrow = allEscrows[_propID][indexE];\r\n        require(msg.value == myEscrow.amount, \"Incorrect payment amount!\");\r\n        //make payment\r\n        address payable _stakeOwner = myEscrow.stakeOwner;\r\n        address payable _buyer = myEscrow.buyer;\r\n        _stakeOwner.transfer(msg.value);\r\n        myEscrow.currState = State.AWAITING_TRANSFER;\r\n\r\n        //transfer property by updating escrow\r\n        require(myEscrow.currState == State.AWAITING_TRANSFER);\r\n        // if 100% transfer, just change existing escrow. else, modify existing escrow and create new one for new stakeholder.\r\n        if (myEscrow.salePercent == 100) {\r\n            myEscrow.stakeOwner = myEscrow.buyer;\r\n            myEscrow.value = myEscrow.amount;\r\n            myEscrow.currState = State.COMPLETE;\r\n            myEscrow.salePercent = 0;\r\n            allEscrows[_propID][indexE] = myEscrow;\r\n        } else {\r\n            addEscrow(_propID, myEscrow.salePercent, myEscrow.amount);\r\n            myEscrow.value = (myEscrow.amount / myEscrow.salePercent) * (myEscrow.percentage - myEscrow.salePercent);\r\n            myEscrow.percentage = myEscrow.percentage - myEscrow.salePercent;\r\n            myEscrow.currState = State.COMPLETE;\r\n            myEscrow.salePercent = 0;\r\n            allEscrows[_propID][indexE] = myEscrow;\r\n        }\r\n        \r\n        //Set loan escrow status if required\r\n        //for(uint j=0; j<totalLoansCounter; j++) {\r\n        //    if(allLoans[j].propID == _propID) {\r\n        //        allLoanEscrows[j].currState = loanEscrowState.COMPLETE;\r\n        //    }\r\n        //}\r\n\r\n        //Remove all offers on the property\r\n        for(uint i=0; i<allOffers[_propID].length; i++) {\r\n            allOffers[_propID].length--;\r\n        }\r\n        offerCounts[_propID] = 0;\r\n        emit PurchasedStake(_propID, allEscrows[_propID][indexE].percentage, msg.value, _buyer);\r\n    }\r\n}",
  "sourcePath": "C:/Users/arvin/Documents/1Personal/Education/Masters/IT5007 - Software Engineering on Application Architecture/Project/code/middlewhere/src/contracts/Marketplace.sol",
  "compiler": {
    "name": "solc",
    "version": "0.5.16+commit.9c3226ce.Emscripten.clang"
  },
  "schemaVersion": "3.2.3",
  "updatedAt": "2022-02-28T17:59:45.368Z",
  "networkType": "ethereum",
  "devdoc": {
    "methods": {}
  },
  "userdoc": {
    "methods": {}
  }
}