{
  "contractName": "Marketplace",
  "abi": [
    {
      "inputs": [],
      "payable": false,
      "stateMutability": "nonpayable",
      "type": "constructor"
    },
    {
      "anonymous": false,
      "inputs": [
        {
          "indexed": false,
          "internalType": "uint256",
          "name": "_propID",
          "type": "uint256"
        },
        {
          "indexed": false,
          "internalType": "string",
          "name": "_propTitle",
          "type": "string"
        },
        {
          "indexed": false,
          "internalType": "string",
          "name": "_propAddress",
          "type": "string"
        },
        {
          "indexed": false,
          "internalType": "string",
          "name": "_propDescription",
          "type": "string"
        },
        {
          "indexed": false,
          "internalType": "uint256",
          "name": "_propValue",
          "type": "uint256"
        },
        {
          "indexed": false,
          "internalType": "address payable",
          "name": "_propOwner",
          "type": "address"
        },
        {
          "indexed": false,
          "internalType": "address payable",
          "name": "_buyer",
          "type": "address"
        },
        {
          "indexed": false,
          "internalType": "bool",
          "name": "_pendingSale",
          "type": "bool"
        },
        {
          "indexed": false,
          "internalType": "string",
          "name": "_imgURL",
          "type": "string"
        }
      ],
      "name": "AddedProperty",
      "type": "event"
    },
    {
      "anonymous": false,
      "inputs": [
        {
          "indexed": false,
          "internalType": "uint256",
          "name": "_propID",
          "type": "uint256"
        },
        {
          "indexed": false,
          "internalType": "address payable",
          "name": "_propOwner",
          "type": "address"
        },
        {
          "indexed": false,
          "internalType": "address payable",
          "name": "_buyer",
          "type": "address"
        },
        {
          "indexed": false,
          "internalType": "uint256",
          "name": "_amount",
          "type": "uint256"
        }
      ],
      "name": "CreatedEscrow",
      "type": "event"
    },
    {
      "anonymous": false,
      "inputs": [
        {
          "indexed": false,
          "internalType": "uint256",
          "name": "_propID",
          "type": "uint256"
        },
        {
          "indexed": false,
          "internalType": "address payable",
          "name": "_buyer",
          "type": "address"
        },
        {
          "indexed": false,
          "internalType": "uint256",
          "name": "_amount",
          "type": "uint256"
        }
      ],
      "name": "CreatedOffer",
      "type": "event"
    },
    {
      "anonymous": false,
      "inputs": [
        {
          "indexed": false,
          "internalType": "uint256",
          "name": "_propID",
          "type": "uint256"
        },
        {
          "indexed": false,
          "internalType": "address payable",
          "name": "_propOwner",
          "type": "address"
        },
        {
          "indexed": false,
          "internalType": "uint256",
          "name": "_amount",
          "type": "uint256"
        }
      ],
      "name": "PurchasedProperty",
      "type": "event"
    },
    {
      "constant": true,
      "inputs": [],
      "name": "admin",
      "outputs": [
        {
          "internalType": "address",
          "name": "",
          "type": "address"
        }
      ],
      "payable": false,
      "stateMutability": "view",
      "type": "function"
    },
    {
      "constant": true,
      "inputs": [
        {
          "internalType": "uint256",
          "name": "",
          "type": "uint256"
        }
      ],
      "name": "allEscrows",
      "outputs": [
        {
          "internalType": "uint256",
          "name": "propID",
          "type": "uint256"
        },
        {
          "internalType": "address payable",
          "name": "propOwner",
          "type": "address"
        },
        {
          "internalType": "address payable",
          "name": "buyer",
          "type": "address"
        },
        {
          "internalType": "uint256",
          "name": "amount",
          "type": "uint256"
        },
        {
          "internalType": "enum Marketplace.State",
          "name": "currState",
          "type": "uint8"
        }
      ],
      "payable": false,
      "stateMutability": "view",
      "type": "function"
    },
    {
      "constant": true,
      "inputs": [
        {
          "internalType": "uint256",
          "name": "",
          "type": "uint256"
        }
      ],
      "name": "allLoanEscrows",
      "outputs": [
        {
          "internalType": "uint256",
          "name": "loanID",
          "type": "uint256"
        },
        {
          "internalType": "address payable",
          "name": "buyer",
          "type": "address"
        },
        {
          "internalType": "address payable",
          "name": "provider",
          "type": "address"
        },
        {
          "internalType": "uint256",
          "name": "amount",
          "type": "uint256"
        },
        {
          "internalType": "uint256",
          "name": "duration",
          "type": "uint256"
        },
        {
          "internalType": "enum Marketplace.loanEscrowState",
          "name": "currState",
          "type": "uint8"
        }
      ],
      "payable": false,
      "stateMutability": "view",
      "type": "function"
    },
    {
      "constant": true,
      "inputs": [
        {
          "internalType": "uint256",
          "name": "",
          "type": "uint256"
        },
        {
          "internalType": "uint256",
          "name": "",
          "type": "uint256"
        }
      ],
      "name": "allLoanOffers",
      "outputs": [
        {
          "internalType": "uint256",
          "name": "loanID",
          "type": "uint256"
        },
        {
          "internalType": "address payable",
          "name": "buyer",
          "type": "address"
        },
        {
          "internalType": "address payable",
          "name": "provider",
          "type": "address"
        },
        {
          "internalType": "uint256",
          "name": "amount",
          "type": "uint256"
        },
        {
          "internalType": "uint256",
          "name": "duration",
          "type": "uint256"
        }
      ],
      "payable": false,
      "stateMutability": "view",
      "type": "function"
    },
    {
      "constant": true,
      "inputs": [
        {
          "internalType": "uint256",
          "name": "",
          "type": "uint256"
        }
      ],
      "name": "allLoans",
      "outputs": [
        {
          "internalType": "uint256",
          "name": "loanID",
          "type": "uint256"
        },
        {
          "internalType": "uint256",
          "name": "propID",
          "type": "uint256"
        },
        {
          "internalType": "address payable",
          "name": "buyer",
          "type": "address"
        },
        {
          "internalType": "address payable",
          "name": "provider",
          "type": "address"
        },
        {
          "internalType": "uint256",
          "name": "amount",
          "type": "uint256"
        },
        {
          "internalType": "uint256",
          "name": "duration",
          "type": "uint256"
        },
        {
          "internalType": "uint256",
          "name": "balamount",
          "type": "uint256"
        },
        {
          "internalType": "uint256",
          "name": "balduration",
          "type": "uint256"
        },
        {
          "internalType": "enum Marketplace.loanState",
          "name": "currState",
          "type": "uint8"
        }
      ],
      "payable": false,
      "stateMutability": "view",
      "type": "function"
    },
    {
      "constant": true,
      "inputs": [
        {
          "internalType": "uint256",
          "name": "",
          "type": "uint256"
        },
        {
          "internalType": "uint256",
          "name": "",
          "type": "uint256"
        }
      ],
      "name": "allOffers",
      "outputs": [
        {
          "internalType": "uint256",
          "name": "propID",
          "type": "uint256"
        },
        {
          "internalType": "address payable",
          "name": "buyer",
          "type": "address"
        },
        {
          "internalType": "uint256",
          "name": "amount",
          "type": "uint256"
        }
      ],
      "payable": false,
      "stateMutability": "view",
      "type": "function"
    },
    {
      "constant": true,
      "inputs": [
        {
          "internalType": "uint256",
          "name": "",
          "type": "uint256"
        }
      ],
      "name": "allProperty",
      "outputs": [
        {
          "internalType": "uint256",
          "name": "propID",
          "type": "uint256"
        },
        {
          "internalType": "string",
          "name": "propTitle",
          "type": "string"
        },
        {
          "internalType": "string",
          "name": "propAddress",
          "type": "string"
        },
        {
          "internalType": "string",
          "name": "propDescription",
          "type": "string"
        },
        {
          "internalType": "uint256",
          "name": "propValue",
          "type": "uint256"
        },
        {
          "internalType": "address payable",
          "name": "propOwner",
          "type": "address"
        },
        {
          "internalType": "address payable",
          "name": "buyer",
          "type": "address"
        },
        {
          "internalType": "bool",
          "name": "pendingSale",
          "type": "bool"
        },
        {
          "internalType": "string",
          "name": "imgURL",
          "type": "string"
        }
      ],
      "payable": false,
      "stateMutability": "view",
      "type": "function"
    },
    {
      "constant": true,
      "inputs": [
        {
          "internalType": "uint256",
          "name": "",
          "type": "uint256"
        }
      ],
      "name": "loanOfferCounts",
      "outputs": [
        {
          "internalType": "uint256",
          "name": "",
          "type": "uint256"
        }
      ],
      "payable": false,
      "stateMutability": "view",
      "type": "function"
    },
    {
      "constant": true,
      "inputs": [
        {
          "internalType": "uint256",
          "name": "",
          "type": "uint256"
        }
      ],
      "name": "offerCounts",
      "outputs": [
        {
          "internalType": "uint256",
          "name": "",
          "type": "uint256"
        }
      ],
      "payable": false,
      "stateMutability": "view",
      "type": "function"
    },
    {
      "constant": true,
      "inputs": [],
      "name": "totalLoansCounter",
      "outputs": [
        {
          "internalType": "uint256",
          "name": "",
          "type": "uint256"
        }
      ],
      "payable": false,
      "stateMutability": "view",
      "type": "function"
    },
    {
      "constant": true,
      "inputs": [],
      "name": "totalPropertyCounter",
      "outputs": [
        {
          "internalType": "uint256",
          "name": "",
          "type": "uint256"
        }
      ],
      "payable": false,
      "stateMutability": "view",
      "type": "function"
    },
    {
      "constant": false,
      "inputs": [
        {
          "internalType": "string",
          "name": "_propTitle",
          "type": "string"
        },
        {
          "internalType": "string",
          "name": "_propAddress",
          "type": "string"
        },
        {
          "internalType": "string",
          "name": "_propDescription",
          "type": "string"
        },
        {
          "internalType": "uint256",
          "name": "_propValue",
          "type": "uint256"
        },
        {
          "internalType": "string",
          "name": "_imgURL",
          "type": "string"
        }
      ],
      "name": "addProperty",
      "outputs": [
        {
          "internalType": "uint256",
          "name": "",
          "type": "uint256"
        }
      ],
      "payable": false,
      "stateMutability": "nonpayable",
      "type": "function"
    },
    {
      "constant": false,
      "inputs": [
        {
          "internalType": "uint256",
          "name": "_propID",
          "type": "uint256"
        },
        {
          "internalType": "string",
          "name": "_propTitle",
          "type": "string"
        },
        {
          "internalType": "string",
          "name": "_propDescription",
          "type": "string"
        },
        {
          "internalType": "uint256",
          "name": "_propValue",
          "type": "uint256"
        },
        {
          "internalType": "bool",
          "name": "_pendingSale",
          "type": "bool"
        },
        {
          "internalType": "string",
          "name": "_imgURL",
          "type": "string"
        }
      ],
      "name": "editProperty",
      "outputs": [],
      "payable": false,
      "stateMutability": "nonpayable",
      "type": "function"
    },
    {
      "constant": true,
      "inputs": [
        {
          "internalType": "uint256",
          "name": "_propID",
          "type": "uint256"
        }
      ],
      "name": "getPropertyDetails",
      "outputs": [
        {
          "internalType": "uint256",
          "name": "",
          "type": "uint256"
        },
        {
          "internalType": "string",
          "name": "",
          "type": "string"
        },
        {
          "internalType": "string",
          "name": "",
          "type": "string"
        },
        {
          "internalType": "string",
          "name": "",
          "type": "string"
        },
        {
          "internalType": "uint256",
          "name": "",
          "type": "uint256"
        },
        {
          "internalType": "bool",
          "name": "",
          "type": "bool"
        },
        {
          "internalType": "string",
          "name": "",
          "type": "string"
        }
      ],
      "payable": false,
      "stateMutability": "view",
      "type": "function"
    },
    {
      "constant": true,
      "inputs": [],
      "name": "getOwnersPropertyCount",
      "outputs": [
        {
          "internalType": "uint256",
          "name": "",
          "type": "uint256"
        }
      ],
      "payable": false,
      "stateMutability": "view",
      "type": "function"
    },
    {
      "constant": false,
      "inputs": [
        {
          "internalType": "uint256",
          "name": "_propID",
          "type": "uint256"
        },
        {
          "internalType": "uint256",
          "name": "_amount",
          "type": "uint256"
        }
      ],
      "name": "makeOffer",
      "outputs": [],
      "payable": false,
      "stateMutability": "nonpayable",
      "type": "function"
    },
    {
      "constant": false,
      "inputs": [
        {
          "internalType": "uint256",
          "name": "_propID",
          "type": "uint256"
        },
        {
          "internalType": "address payable",
          "name": "_buyer",
          "type": "address"
        }
      ],
      "name": "acceptOffer",
      "outputs": [],
      "payable": false,
      "stateMutability": "nonpayable",
      "type": "function"
    },
    {
      "constant": false,
      "inputs": [
        {
          "internalType": "uint256",
          "name": "_propID",
          "type": "uint256"
        },
        {
          "internalType": "address payable",
          "name": "_buyer",
          "type": "address"
        }
      ],
      "name": "rejectOffer",
      "outputs": [],
      "payable": false,
      "stateMutability": "nonpayable",
      "type": "function"
    },
    {
      "constant": false,
      "inputs": [
        {
          "internalType": "uint256",
          "name": "_propID",
          "type": "uint256"
        }
      ],
      "name": "cancelOffer",
      "outputs": [],
      "payable": false,
      "stateMutability": "nonpayable",
      "type": "function"
    },
    {
      "constant": false,
      "inputs": [
        {
          "internalType": "uint256",
          "name": "_propID",
          "type": "uint256"
        }
      ],
      "name": "cancelEscrow",
      "outputs": [],
      "payable": false,
      "stateMutability": "nonpayable",
      "type": "function"
    },
    {
      "constant": false,
      "inputs": [
        {
          "internalType": "uint256",
          "name": "_propID",
          "type": "uint256"
        }
      ],
      "name": "purchaseProperty",
      "outputs": [],
      "payable": true,
      "stateMutability": "payable",
      "type": "function"
    },
    {
      "constant": false,
      "inputs": [
        {
          "internalType": "uint256",
          "name": "_propID",
          "type": "uint256"
        },
        {
          "internalType": "uint256",
          "name": "_amount",
          "type": "uint256"
        },
        {
          "internalType": "uint256",
          "name": "_duration",
          "type": "uint256"
        }
      ],
      "name": "applyLoan",
      "outputs": [],
      "payable": false,
      "stateMutability": "nonpayable",
      "type": "function"
    },
    {
      "constant": false,
      "inputs": [
        {
          "internalType": "uint256",
          "name": "_loanID",
          "type": "uint256"
        }
      ],
      "name": "cancelLoan",
      "outputs": [],
      "payable": false,
      "stateMutability": "nonpayable",
      "type": "function"
    },
    {
      "constant": false,
      "inputs": [
        {
          "internalType": "uint256",
          "name": "_loanID",
          "type": "uint256"
        }
      ],
      "name": "offerLoan",
      "outputs": [],
      "payable": false,
      "stateMutability": "nonpayable",
      "type": "function"
    },
    {
      "constant": false,
      "inputs": [
        {
          "internalType": "uint256",
          "name": "_loanID",
          "type": "uint256"
        },
        {
          "internalType": "address payable",
          "name": "_provider",
          "type": "address"
        }
      ],
      "name": "acceptLoan",
      "outputs": [],
      "payable": false,
      "stateMutability": "nonpayable",
      "type": "function"
    },
    {
      "constant": false,
      "inputs": [
        {
          "internalType": "uint256",
          "name": "_loanID",
          "type": "uint256"
        }
      ],
      "name": "disburseLoan",
      "outputs": [],
      "payable": true,
      "stateMutability": "payable",
      "type": "function"
    },
    {
      "constant": false,
      "inputs": [
        {
          "internalType": "uint256",
          "name": "_loanID",
          "type": "uint256"
        }
      ],
      "name": "rejectLoan",
      "outputs": [],
      "payable": false,
      "stateMutability": "nonpayable",
      "type": "function"
    },
    {
      "constant": false,
      "inputs": [
        {
          "internalType": "uint256",
          "name": "_loanID",
          "type": "uint256"
        }
      ],
      "name": "payMortgage",
      "outputs": [],
      "payable": true,
      "stateMutability": "payable",
      "type": "function"
    }
  ],
  "bytecode": "0x60806040526000600155600060065534801561001a57600080fd5b50336000806101000a81548173ffffffffffffffffffffffffffffffffffffffff021916908373ffffffffffffffffffffffffffffffffffffffff160217905550615e0b806200006b6000396000f3fe6080604052600436106101b75760003560e01c80638313d437116100ec578063d4d293571161008a578063ef706adf11610064578063ef706adf146112cf578063f0e78b2b1461130a578063f38f51ae14611335578063f851a44014611370576101b7565b8063d4d2935714611161578063db9371c214611239578063e018243614611294576101b7565b8063afb1458c116100c6578063afb1458c14610e93578063b73e4da0146110a9578063bdbfa3de146110d7578063c07296fa14611112576101b7565b80638313d43714610d4a578063918d407d14610da55780639ab2f2a014610e00576101b7565b80631d3afee6116101595780635d29cb98116101335780635d29cb9814610c8b57806368f506be14610cc6578063739b1fa214610cf157806379d9c43914610d1c576101b7565b80631d3afee6146108e15780632b13d2ab146109b25780632e94a0a6146109e0576101b7565b8063120fb04d11610195578063120fb04d14610545578063126dbe431461059457806317baedb0146107a55780631b8a3548146107f4576101b7565b8063048ede58146101bc57806305b7cdd3146104335780630c84630114610478575b600080fd5b3480156101c857600080fd5b506101f5600480360360208110156101df57600080fd5b81019080803590602001909291905050506113c7565b604051808a81526020018060200180602001806020018981526020018873ffffffffffffffffffffffffffffffffffffffff1673ffffffffffffffffffffffffffffffffffffffff1681526020018773ffffffffffffffffffffffffffffffffffffffff1673ffffffffffffffffffffffffffffffffffffffff168152602001861515151581526020018060200185810385528d818151815260200191508051906020019080838360005b838110156102bb5780820151818401526020810190506102a0565b50505050905090810190601f1680156102e85780820380516001836020036101000a031916815260200191505b5085810384528c818151815260200191508051906020019080838360005b83811015610321578082015181840152602081019050610306565b50505050905090810190601f16801561034e5780820380516001836020036101000a031916815260200191505b5085810383528b818151815260200191508051906020019080838360005b8381101561038757808201518184015260208101905061036c565b50505050905090810190601f1680156103b45780820380516001836020036101000a031916815260200191505b50858103825286818151815260200191508051906020019080838360005b838110156103ed5780820151818401526020810190506103d2565b50505050905090810190601f16801561041a5780820380516001836020036101000a031916815260200191505b509d505050505050505050505050505060405180910390f35b34801561043f57600080fd5b506104766004803603604081101561045657600080fd5b8101908080359060200190929190803590602001909291905050506116c2565b005b34801561048457600080fd5b506104bb6004803603604081101561049b57600080fd5b810190808035906020019092919080359060200190929190505050611a03565b604051808681526020018573ffffffffffffffffffffffffffffffffffffffff1673ffffffffffffffffffffffffffffffffffffffff1681526020018473ffffffffffffffffffffffffffffffffffffffff1673ffffffffffffffffffffffffffffffffffffffff1681526020018381526020018281526020019550505050505060405180910390f35b34801561055157600080fd5b506105926004803603606081101561056857600080fd5b81019080803590602001909291908035906020019092919080359060200190929190505050611a93565b005b3480156105a057600080fd5b506105cd600480360360208110156105b757600080fd5b8101908080359060200190929190505050611e79565b60405180888152602001806020018060200180602001878152602001861515151581526020018060200185810385528b818151815260200191508051906020019080838360005b8381101561062f578082015181840152602081019050610614565b50505050905090810190601f16801561065c5780820380516001836020036101000a031916815260200191505b5085810384528a818151815260200191508051906020019080838360005b8381101561069557808201518184015260208101905061067a565b50505050905090810190601f1680156106c25780820380516001836020036101000a031916815260200191505b50858103835289818151815260200191508051906020019080838360005b838110156106fb5780820151818401526020810190506106e0565b50505050905090810190601f1680156107285780820380516001836020036101000a031916815260200191505b50858103825286818151815260200191508051906020019080838360005b83811015610761578082015181840152602081019050610746565b50505050905090810190601f16801561078e5780820380516001836020036101000a031916815260200191505b509b50505050505050505050505060405180910390f35b3480156107b157600080fd5b506107de600480360360208110156107c857600080fd5b81019080803590602001909291905050506121b8565b6040518082815260200191505060405180910390f35b34801561080057600080fd5b5061082d6004803603602081101561081757600080fd5b81019080803590602001909291905050506121d0565b604051808a81526020018981526020018873ffffffffffffffffffffffffffffffffffffffff1673ffffffffffffffffffffffffffffffffffffffff1681526020018773ffffffffffffffffffffffffffffffffffffffff1673ffffffffffffffffffffffffffffffffffffffff1681526020018681526020018581526020018481526020018381526020018260038111156108c557fe5b60ff168152602001995050505050505050505060405180910390f35b3480156108ed57600080fd5b5061091a6004803603602081101561090457600080fd5b810190808035906020019092919050505061226b565b604051808681526020018573ffffffffffffffffffffffffffffffffffffffff1673ffffffffffffffffffffffffffffffffffffffff1681526020018473ffffffffffffffffffffffffffffffffffffffff1673ffffffffffffffffffffffffffffffffffffffff16815260200183815260200182600381111561099a57fe5b60ff1681526020019550505050505060405180910390f35b6109de600480360360208110156109c857600080fd5b81019080803590602001909291905050506122ee565b005b3480156109ec57600080fd5b50610c75600480360360a0811015610a0357600080fd5b8101908080359060200190640100000000811115610a2057600080fd5b820183602082011115610a3257600080fd5b80359060200191846001830284011164010000000083111715610a5457600080fd5b91908080601f016020809104026020016040519081016040528093929190818152602001838380828437600081840152601f19601f82011690508083019250505050505050919291929080359060200190640100000000811115610ab757600080fd5b820183602082011115610ac957600080fd5b80359060200191846001830284011164010000000083111715610aeb57600080fd5b91908080601f016020809104026020016040519081016040528093929190818152602001838380828437600081840152601f19601f82011690508083019250505050505050919291929080359060200190640100000000811115610b4e57600080fd5b820183602082011115610b6057600080fd5b80359060200191846001830284011164010000000083111715610b8257600080fd5b91908080601f016020809104026020016040519081016040528093929190818152602001838380828437600081840152601f19601f8201169050808301925050505050505091929192908035906020019092919080359060200190640100000000811115610bef57600080fd5b820183602082011115610c0157600080fd5b80359060200191846001830284011164010000000083111715610c2357600080fd5b91908080601f016020809104026020016040519081016040528093929190818152602001838380828437600081840152601f19601f820116905080830192505050505050509192919290505050612494565b6040518082815260200191505060405180910390f35b348015610c9757600080fd5b50610cc460048036036020811015610cae57600080fd5b8101908080359060200190929190505050612c24565b005b348015610cd257600080fd5b50610cdb612e11565b6040518082815260200191505060405180910390f35b348015610cfd57600080fd5b50610d06612e17565b6040518082815260200191505060405180910390f35b610d4860048036036020811015610d3257600080fd5b8101908080359060200190929190505050612e1d565b005b348015610d5657600080fd5b50610da360048036036040811015610d6d57600080fd5b8101908080359060200190929190803573ffffffffffffffffffffffffffffffffffffffff169060200190929190505050613902565b005b348015610db157600080fd5b50610dfe60048036036040811015610dc857600080fd5b8101908080359060200190929190803573ffffffffffffffffffffffffffffffffffffffff169060200190929190505050613b7d565b005b348015610e0c57600080fd5b50610e4360048036036040811015610e2357600080fd5b8101908080359060200190929190803590602001909291905050506140e1565b604051808481526020018373ffffffffffffffffffffffffffffffffffffffff1673ffffffffffffffffffffffffffffffffffffffff168152602001828152602001935050505060405180910390f35b348015610e9f57600080fd5b506110a7600480360360c0811015610eb657600080fd5b810190808035906020019092919080359060200190640100000000811115610edd57600080fd5b820183602082011115610eef57600080fd5b80359060200191846001830284011164010000000083111715610f1157600080fd5b91908080601f016020809104026020016040519081016040528093929190818152602001838380828437600081840152601f19601f82011690508083019250505050505050919291929080359060200190640100000000811115610f7457600080fd5b820183602082011115610f8657600080fd5b80359060200191846001830284011164010000000083111715610fa857600080fd5b91908080601f016020809104026020016040519081016040528093929190818152602001838380828437600081840152601f19601f820116905080830192505050505050509192919290803590602001909291908035151590602001909291908035906020019064010000000081111561102157600080fd5b82018360208201111561103357600080fd5b8035906020019184600183028401116401000000008311171561105557600080fd5b91908080601f016020809104026020016040519081016040528093929190818152602001838380828437600081840152601f19601f820116905080830192505050505050509192919290505050614145565b005b6110d5600480360360208110156110bf57600080fd5b810190808035906020019092919050505061449b565b005b3480156110e357600080fd5b50611110600480360360208110156110fa57600080fd5b8101908080359060200190929190505050614868565b005b34801561111e57600080fd5b5061114b6004803603602081101561113557600080fd5b81019080803590602001909291905050506148a3565b6040518082815260200191505060405180910390f35b34801561116d57600080fd5b5061119a6004803603602081101561118457600080fd5b81019080803590602001909291905050506148bb565b604051808781526020018673ffffffffffffffffffffffffffffffffffffffff1673ffffffffffffffffffffffffffffffffffffffff1681526020018573ffffffffffffffffffffffffffffffffffffffff1673ffffffffffffffffffffffffffffffffffffffff16815260200184815260200183815260200182600381111561122057fe5b60ff168152602001965050505050505060405180910390f35b34801561124557600080fd5b506112926004803603604081101561125c57600080fd5b8101908080359060200190929190803573ffffffffffffffffffffffffffffffffffffffff169060200190929190505050614944565b005b3480156112a057600080fd5b506112cd600480360360208110156112b757600080fd5b8101908080359060200190929190505050614c8a565b005b3480156112db57600080fd5b50611308600480360360208110156112f257600080fd5b8101908080359060200190929190505050614ff0565b005b34801561131657600080fd5b5061131f61556b565b6040518082815260200191505060405180910390f35b34801561134157600080fd5b5061136e6004803603602081101561135857600080fd5b810190808035906020019092919050505061560a565b005b34801561137c57600080fd5b50611385615893565b604051808273ffffffffffffffffffffffffffffffffffffffff1673ffffffffffffffffffffffffffffffffffffffff16815260200191505060405180910390f35b6002602052806000526040600020600091509050806000015490806001018054600181600116156101000203166002900480601f0160208091040260200160405190810160405280929190818152602001828054600181600116156101000203166002900480156114795780601f1061144e57610100808354040283529160200191611479565b820191906000526020600020905b81548152906001019060200180831161145c57829003601f168201915b505050505090806002018054600181600116156101000203166002900480601f0160208091040260200160405190810160405280929190818152602001828054600181600116156101000203166002900480156115175780601f106114ec57610100808354040283529160200191611517565b820191906000526020600020905b8154815290600101906020018083116114fa57829003601f168201915b505050505090806003018054600181600116156101000203166002900480601f0160208091040260200160405190810160405280929190818152602001828054600181600116156101000203166002900480156115b55780601f1061158a576101008083540402835291602001916115b5565b820191906000526020600020905b81548152906001019060200180831161159857829003601f168201915b5050505050908060040154908060050160009054906101000a900473ffffffffffffffffffffffffffffffffffffffff16908060060160009054906101000a900473ffffffffffffffffffffffffffffffffffffffff16908060060160149054906101000a900460ff1690806007018054600181600116156101000203166002900480601f0160208091040260200160405190810160405280929190818152602001828054600181600116156101000203166002900480156116b85780601f1061168d576101008083540402835291602001916116b8565b820191906000526020600020905b81548152906001019060200180831161169b57829003601f168201915b5050505050905089565b600115156002600084815260200190815260200160002060060160149054906101000a900460ff16151514611742576040517f08c379a0000000000000000000000000000000000000000000000000000000008152600401808060200182810382526037815260200180615d7f6037913960400191505060405180910390fd5b6002600083815260200190815260200160002060050160009054906101000a900473ffffffffffffffffffffffffffffffffffffffff1673ffffffffffffffffffffffffffffffffffffffff163373ffffffffffffffffffffffffffffffffffffffff16141561181a576040517f08c379a000000000000000000000000000000000000000000000000000000000815260040180806020018281038252601b8152602001807f596f7520617265207468652070726f7065727479206f776e657221000000000081525060200191505060405180910390fd5b60008111611890576040517f08c379a000000000000000000000000000000000000000000000000000000000815260040180806020018281038252601a8152602001807f456e74657220612076616c6964206f666665722076616c75652100000000000081525060200191505060405180910390fd5b6118986158b8565b60405180606001604052808481526020013373ffffffffffffffffffffffffffffffffffffffff1681526020018381525090506003600084815260200190815260200160002081908060018154018082558091505090600182039060005260206000209060030201600090919290919091506000820151816000015560208201518160010160006101000a81548173ffffffffffffffffffffffffffffffffffffffff021916908373ffffffffffffffffffffffffffffffffffffffff1602179055506040820151816002015550505060046000848152602001908152602001600020600081548092919060010191905055507f880a2871d02644b6307caaf150d7ed4c14c8f316ea424076ba42b533e96db29c833384604051808481526020018373ffffffffffffffffffffffffffffffffffffffff1673ffffffffffffffffffffffffffffffffffffffff168152602001828152602001935050505060405180910390a1505050565b60086020528160005260406000208181548110611a1c57fe5b9060005260206000209060050201600091509150508060000154908060010160009054906101000a900473ffffffffffffffffffffffffffffffffffffffff16908060020160009054906101000a900473ffffffffffffffffffffffffffffffffffffffff16908060030154908060040154905085565b60016003811115611aa057fe5b6005600085815260200190815260200160002060040160009054906101000a900460ff166003811115611acf57fe5b148015611b3d57503373ffffffffffffffffffffffffffffffffffffffff166005600085815260200190815260200160002060020160009054906101000a900473ffffffffffffffffffffffffffffffffffffffff1673ffffffffffffffffffffffffffffffffffffffff16145b15611e7457600160065401600681905550611b566158ef565b60405180610120016040528060065481526020018581526020013373ffffffffffffffffffffffffffffffffffffffff1681526020013373ffffffffffffffffffffffffffffffffffffffff1681526020018481526020018381526020016005600087815260200190815260200160002060030154815260200183815260200160016003811115611be357fe5b815250905080600760006006548152602001908152602001600020600082015181600001556020820151816001015560408201518160020160006101000a81548173ffffffffffffffffffffffffffffffffffffffff021916908373ffffffffffffffffffffffffffffffffffffffff16021790555060608201518160030160006101000a81548173ffffffffffffffffffffffffffffffffffffffff021916908373ffffffffffffffffffffffffffffffffffffffff1602179055506080820151816004015560a0820151816005015560c0820151816006015560e082015181600701556101008201518160080160006101000a81548160ff02191690836003811115611ced57fe5b0217905550905050611cfd615972565b6040518060c0016040528060065481526020013373ffffffffffffffffffffffffffffffffffffffff1681526020013373ffffffffffffffffffffffffffffffffffffffff168152602001600081526020016000815260200160006003811115611d6357fe5b8152509050806009600060065481526020019081526020016000206000820151816000015560208201518160010160006101000a81548173ffffffffffffffffffffffffffffffffffffffff021916908373ffffffffffffffffffffffffffffffffffffffff16021790555060408201518160020160006101000a81548173ffffffffffffffffffffffffffffffffffffffff021916908373ffffffffffffffffffffffffffffffffffffffff160217905550606082015181600301556080820151816004015560a08201518160050160006101000a81548160ff02191690836003811115611e4e57fe5b02179055509050506000600a600060065481526020019081526020016000208190555050505b505050565b6000606080606060008060606002600089815260200190815260200160002060000154600260008a8152602001908152602001600020600101600260008b8152602001908152602001600020600201600260008c8152602001908152602001600020600301600260008d815260200190815260200160002060040154600260008e815260200190815260200160002060060160149054906101000a900460ff16600260008f8152602001908152602001600020600701858054600181600116156101000203166002900480601f016020809104026020016040519081016040528092919081815260200182805460018160011615610100020316600290048015611fc45780601f10611f9957610100808354040283529160200191611fc4565b820191906000526020600020905b815481529060010190602001808311611fa757829003601f168201915b50505050509550848054600181600116156101000203166002900480601f0160208091040260200160405190810160405280929190818152602001828054600181600116156101000203166002900480156120605780601f1061203557610100808354040283529160200191612060565b820191906000526020600020905b81548152906001019060200180831161204357829003601f168201915b50505050509450838054600181600116156101000203166002900480601f0160208091040260200160405190810160405280929190818152602001828054600181600116156101000203166002900480156120fc5780601f106120d1576101008083540402835291602001916120fc565b820191906000526020600020905b8154815290600101906020018083116120df57829003601f168201915b50505050509350808054600181600116156101000203166002900480601f0160208091040260200160405190810160405280929190818152602001828054600181600116156101000203166002900480156121985780601f1061216d57610100808354040283529160200191612198565b820191906000526020600020905b81548152906001019060200180831161217b57829003601f168201915b505050505090509650965096509650965096509650919395979092949650565b600a6020528060005260406000206000915090505481565b60076020528060005260406000206000915090508060000154908060010154908060020160009054906101000a900473ffffffffffffffffffffffffffffffffffffffff16908060030160009054906101000a900473ffffffffffffffffffffffffffffffffffffffff16908060040154908060050154908060060154908060070154908060080160009054906101000a900460ff16905089565b60056020528060005260406000206000915090508060000154908060010160009054906101000a900473ffffffffffffffffffffffffffffffffffffffff16908060020160009054906101000a900473ffffffffffffffffffffffffffffffffffffffff16908060030154908060040160009054906101000a900460ff16905085565b3373ffffffffffffffffffffffffffffffffffffffff166007600083815260200190815260200160002060020160009054906101000a900473ffffffffffffffffffffffffffffffffffffffff1673ffffffffffffffffffffffffffffffffffffffff161461235c57600080fd5b60006007600083815260200190815260200160002060030160009054906101000a900473ffffffffffffffffffffffffffffffffffffffff1690508073ffffffffffffffffffffffffffffffffffffffff166108fc349081150290604051600060405180830381858888f193505050501580156123dd573d6000803e3d6000fd5b503460076000848152602001908152602001600020600601540360076000848152602001908152602001600020600601819055506007600083815260200190815260200160002060070160008154809291906001900391905055506000600760008481526020019081526020016000206006015414156124905760036007600084815260200190815260200160002060080160006101000a81548160ff0219169083600381111561248a57fe5b02179055505b5050565b600084600060019050600060015411156125d7576000600190505b60015481116125d557826040516020018082805190602001908083835b602083106124ef57805182526020820191506020810190506020830392506124cc565b6001836020036101000a0380198251168184511680821785525050505050509050019150506040516020818303038152906040528051906020012060026000838152602001908152602001600020600201604051602001808280546001816001161561010002031660029004801561259e5780601f1061257c57610100808354040283529182019161259e565b820191906000526020600020905b81548152906001019060200180831161258a575b50509150506040516020818303038152906040528051906020012014156125c857600091506125d5565b80806001019150506124af565b505b6001151581151514612651576040517f08c379a000000000000000000000000000000000000000000000000000000000815260040180806020018281038252601c8152602001807f54686174206164647265737320616c726561647920657869737473210000000081525060200191505060405180910390fd5b600087511161265f57600080fd5b6000851161266c57600080fd5b600180540160018190555061267f6159df565b60405180610120016040528060015481526020018a81526020018981526020018881526020018781526020013373ffffffffffffffffffffffffffffffffffffffff1681526020013373ffffffffffffffffffffffffffffffffffffffff1681526020016001151581526020018681525090508060026000600154815260200190815260200160002060008201518160000155602082015181600101908051906020019061272e929190615a59565b50604082015181600201908051906020019061274b929190615a59565b506060820151816003019080519060200190612768929190615a59565b506080820151816004015560a08201518160050160006101000a81548173ffffffffffffffffffffffffffffffffffffffff021916908373ffffffffffffffffffffffffffffffffffffffff16021790555060c08201518160060160006101000a81548173ffffffffffffffffffffffffffffffffffffffff021916908373ffffffffffffffffffffffffffffffffffffffff16021790555060e08201518160060160146101000a81548160ff02191690831515021790555061010082015181600701908051906020019061283e929190615a59565b509050507f21082eec5e6b5d7497b19282829c61a0804537e6d449225d6592050dc8a134366001548a8a8a8a333360018d604051808a81526020018060200180602001806020018981526020018873ffffffffffffffffffffffffffffffffffffffff1673ffffffffffffffffffffffffffffffffffffffff1681526020018773ffffffffffffffffffffffffffffffffffffffff1673ffffffffffffffffffffffffffffffffffffffff168152602001861515151581526020018060200185810385528d818151815260200191508051906020019080838360005b8381101561293557808201518184015260208101905061291a565b50505050905090810190601f1680156129625780820380516001836020036101000a031916815260200191505b5085810384528c818151815260200191508051906020019080838360005b8381101561299b578082015181840152602081019050612980565b50505050905090810190601f1680156129c85780820380516001836020036101000a031916815260200191505b5085810383528b818151815260200191508051906020019080838360005b83811015612a015780820151818401526020810190506129e6565b50505050905090810190601f168015612a2e5780820380516001836020036101000a031916815260200191505b50858103825286818151815260200191508051906020019080838360005b83811015612a67578082015181840152602081019050612a4c565b50505050905090810190601f168015612a945780820380516001836020036101000a031916815260200191505b509d505050505050505050505050505060405180910390a1612ab4615ad9565b6040518060a0016040528060015481526020013373ffffffffffffffffffffffffffffffffffffffff1681526020013373ffffffffffffffffffffffffffffffffffffffff1681526020016000815260200160006003811115612b1357fe5b8152509050806005600060015481526020019081526020016000206000820151816000015560208201518160010160006101000a81548173ffffffffffffffffffffffffffffffffffffffff021916908373ffffffffffffffffffffffffffffffffffffffff16021790555060408201518160020160006101000a81548173ffffffffffffffffffffffffffffffffffffffff021916908373ffffffffffffffffffffffffffffffffffffffff1602179055506060820151816003015560808201518160040160006101000a81548160ff02191690836003811115612bf457fe5b02179055509050506000600460006001548152602001908152602001600020819055505050505095945050505050565b3373ffffffffffffffffffffffffffffffffffffffff16600560006007600085815260200190815260200160002060010154815260200190815260200160002060010160009054906101000a900473ffffffffffffffffffffffffffffffffffffffff1673ffffffffffffffffffffffffffffffffffffffff161415612ca957600080fd5b60016003811115612cb657fe5b600560006007600085815260200190815260200160002060010154815260200190815260200160002060040160009054906101000a900460ff166003811115612cfb57fe5b14612d0557600080fd5b60006007600083815260200190815260200160002060030160009054906101000a900473ffffffffffffffffffffffffffffffffffffffff1690508073ffffffffffffffffffffffffffffffffffffffff166108fc60076000858152602001908152602001600020600401549081150290604051600060405180830381858888f19350505050158015612d9c573d6000803e3d6000fd5b5060006009600084815260200190815260200160002060050160006101000a81548160ff02191690836003811115612dd057fe5b021790555060016007600084815260200190815260200160002060080160006101000a81548160ff02191690836003811115612e0857fe5b02179055505050565b60065481565b60015481565b80600081118015612e3057506001548111155b612ea2576040517f08c379a00000000000000000000000000000000000000000000000000000000081526004018080602001828103825260168152602001807f50726f706572747920494420697320696e76616c69640000000000000000000081525060200191505060405180910390fd5b3373ffffffffffffffffffffffffffffffffffffffff166002600083815260200190815260200160002060060160009054906101000a900473ffffffffffffffffffffffffffffffffffffffff1673ffffffffffffffffffffffffffffffffffffffff1614612f79576040517f08c379a00000000000000000000000000000000000000000000000000000000081526004018080602001828103825260168152602001807f596f7520617265206e6f7420746865206275796572210000000000000000000081525060200191505060405180910390fd5b60016003811115612f8657fe5b6005600083815260200190815260200160002060040160009054906101000a900460ff166003811115612fb557fe5b14613028576040517f08c379a00000000000000000000000000000000000000000000000000000000081526004018080602001828103825260158152602001807f5061796d656e7420616c7265616479206d61646521000000000000000000000081525060200191505060405180910390fd5b600560008381526020019081526020016000206003015434146130b3576040517f08c379a00000000000000000000000000000000000000000000000000000000081526004018080602001828103825260198152602001807f496e636f7272656374207061796d656e7420616d6f756e74210000000000000081525060200191505060405180910390fd5b60006002600084815260200190815260200160002060050160009054906101000a900473ffffffffffffffffffffffffffffffffffffffff1690508073ffffffffffffffffffffffffffffffffffffffff166108fc349081150290604051600060405180830381858888f19350505050158015613134573d6000803e3d6000fd5b5060026005600085815260200190815260200160002060040160006101000a81548160ff0219169083600381111561316857fe5b02179055506002600381111561317a57fe5b6005600085815260200190815260200160002060040160009054906101000a900460ff1660038111156131a957fe5b146131b357600080fd5b60006002600085815260200190815260200160002060060160009054906101000a900473ffffffffffffffffffffffffffffffffffffffff1690506131f66159df565b600260008681526020019081526020016000206040518061012001604052908160008201548152602001600182018054600181600116156101000203166002900480601f0160208091040260200160405190810160405280929190818152602001828054600181600116156101000203166002900480156132b85780601f1061328d576101008083540402835291602001916132b8565b820191906000526020600020905b81548152906001019060200180831161329b57829003601f168201915b50505050508152602001600282018054600181600116156101000203166002900480601f01602080910402602001604051908101604052809291908181526020018280546001816001161561010002031660029004801561335a5780601f1061332f5761010080835404028352916020019161335a565b820191906000526020600020905b81548152906001019060200180831161333d57829003601f168201915b50505050508152602001600382018054600181600116156101000203166002900480601f0160208091040260200160405190810160405280929190818152602001828054600181600116156101000203166002900480156133fc5780601f106133d1576101008083540402835291602001916133fc565b820191906000526020600020905b8154815290600101906020018083116133df57829003601f168201915b50505050508152602001600482015481526020016005820160009054906101000a900473ffffffffffffffffffffffffffffffffffffffff1673ffffffffffffffffffffffffffffffffffffffff1673ffffffffffffffffffffffffffffffffffffffff1681526020016006820160009054906101000a900473ffffffffffffffffffffffffffffffffffffffff1673ffffffffffffffffffffffffffffffffffffffff1673ffffffffffffffffffffffffffffffffffffffff1681526020016006820160149054906101000a900460ff16151515158152602001600782018054600181600116156101000203166002900480601f01602080910402602001604051908101604052809291908181526020018280546001816001161561010002031660029004801561356f5780601f106135445761010080835404028352916020019161356f565b820191906000526020600020905b81548152906001019060200180831161355257829003601f168201915b5050505050815250509050818160a0019073ffffffffffffffffffffffffffffffffffffffff16908173ffffffffffffffffffffffffffffffffffffffff16815250506005600086815260200190815260200160002060030154816080018181525050818160c0019073ffffffffffffffffffffffffffffffffffffffff16908173ffffffffffffffffffffffffffffffffffffffff168152505060008160e00190151590811515815250508060026000878152602001908152602001600020600082015181600001556020820151816001019080519060200190613655929190615a59565b506040820151816002019080519060200190613672929190615a59565b50606082015181600301908051906020019061368f929190615a59565b506080820151816004015560a08201518160050160006101000a81548173ffffffffffffffffffffffffffffffffffffffff021916908373ffffffffffffffffffffffffffffffffffffffff16021790555060c08201518160060160006101000a81548173ffffffffffffffffffffffffffffffffffffffff021916908373ffffffffffffffffffffffffffffffffffffffff16021790555060e08201518160060160146101000a81548160ff021916908315150217905550610100820151816007019080519060200190613765929190615a59565b5090505060036005600087815260200190815260200160002060040160006101000a81548160ff0219169083600381111561379c57fe5b021790555060008090505b6006548110156138155785600760008381526020019081526020016000206001015414156138085760036009600083815260200190815260200160002060050160006101000a81548160ff0219169083600381111561380257fe5b02179055505b80806001019150506137a7565b5060008090505b600360008781526020019081526020016000208054905081101561386e57600360008781526020019081526020016000208054809190600190036138609190615b3f565b50808060010191505061381c565b50600060046000878152602001908152602001600020819055507f179e035296924c39b69ac7e5648621f89456dc328bd1c9e5973d7ec8d24b62aa858334604051808481526020018373ffffffffffffffffffffffffffffffffffffffff1673ffffffffffffffffffffffffffffffffffffffff168152602001828152602001935050505060405180910390a15050505050565b600080600090505b600a6000858152602001908152602001600020548110156139bd578273ffffffffffffffffffffffffffffffffffffffff1660086000868152602001908152602001600020828154811061395a57fe5b906000526020600020906005020160020160009054906101000a900473ffffffffffffffffffffffffffffffffffffffff1673ffffffffffffffffffffffffffffffffffffffff1614156139b0578091506139bd565b808060010191505061390a565b506139c6615972565b6040518060c001604052808581526020013373ffffffffffffffffffffffffffffffffffffffff1681526020018473ffffffffffffffffffffffffffffffffffffffff168152602001600860008781526020019081526020016000208481548110613a2d57fe5b9060005260206000209060050201600301548152602001600860008781526020019081526020016000208481548110613a6257fe5b906000526020600020906005020160040154815260200160016003811115613a8657fe5b815250905080600960008681526020019081526020016000206000820151816000015560208201518160010160006101000a81548173ffffffffffffffffffffffffffffffffffffffff021916908373ffffffffffffffffffffffffffffffffffffffff16021790555060408201518160020160006101000a81548173ffffffffffffffffffffffffffffffffffffffff021916908373ffffffffffffffffffffffffffffffffffffffff160217905550606082015181600301556080820151816004015560a08201518160050160006101000a81548160ff02191690836003811115613b6f57fe5b021790555090505050505050565b813373ffffffffffffffffffffffffffffffffffffffff166002600083815260200190815260200160002060050160009054906101000a900473ffffffffffffffffffffffffffffffffffffffff1673ffffffffffffffffffffffffffffffffffffffff1614613c55576040517f08c379a00000000000000000000000000000000000000000000000000000000081526004018080602001828103825260168152602001807f596f7520617265206e6f7420746865206f776e6572210000000000000000000081525060200191505060405180910390fd5b60006003811115613c6257fe5b6005600085815260200190815260200160002060040160009054906101000a900460ff166003811115613c9157fe5b14613c9b57600080fd5b3373ffffffffffffffffffffffffffffffffffffffff168273ffffffffffffffffffffffffffffffffffffffff161415613d20576040517f08c379a0000000000000000000000000000000000000000000000000000000008152600401808060200182810382526021815260200180615db66021913960400191505060405180910390fd5b600080600090505b6003600086815260200190815260200160002080549050811015613dde578373ffffffffffffffffffffffffffffffffffffffff16600360008781526020019081526020016000208281548110613d7b57fe5b906000526020600020906003020160010160009054906101000a900473ffffffffffffffffffffffffffffffffffffffff1673ffffffffffffffffffffffffffffffffffffffff161415613dd157809150613dde565b8080600101915050613d28565b50613de76158b8565b600360008681526020019081526020016000208281548110613e0557fe5b9060005260206000209060030201604051806060016040529081600082015481526020016001820160009054906101000a900473ffffffffffffffffffffffffffffffffffffffff1673ffffffffffffffffffffffffffffffffffffffff1673ffffffffffffffffffffffffffffffffffffffff1681526020016002820154815250509050836002600087815260200190815260200160002060060160006101000a81548173ffffffffffffffffffffffffffffffffffffffff021916908373ffffffffffffffffffffffffffffffffffffffff160217905550613ee7615ad9565b6040518060a001604052808781526020013373ffffffffffffffffffffffffffffffffffffffff1681526020018673ffffffffffffffffffffffffffffffffffffffff1681526020018360400151815260200160016003811115613f4757fe5b815250905080600560008881526020019081526020016000206000820151816000015560208201518160010160006101000a81548173ffffffffffffffffffffffffffffffffffffffff021916908373ffffffffffffffffffffffffffffffffffffffff16021790555060408201518160020160006101000a81548173ffffffffffffffffffffffffffffffffffffffff021916908373ffffffffffffffffffffffffffffffffffffffff1602179055506060820151816003015560808201518160040160006101000a81548160ff0219169083600381111561402657fe5b02179055509050507fd056c73dc34df2aaef196c0560921dc8c7d228a5fb04a9d6b6466537892388288633878560400151604051808581526020018473ffffffffffffffffffffffffffffffffffffffff1673ffffffffffffffffffffffffffffffffffffffff1681526020018373ffffffffffffffffffffffffffffffffffffffff1673ffffffffffffffffffffffffffffffffffffffff16815260200182815260200194505050505060405180910390a1505050505050565b600360205281600052604060002081815481106140fa57fe5b9060005260206000209060030201600091509150508060000154908060010160009054906101000a900473ffffffffffffffffffffffffffffffffffffffff16908060020154905083565b853373ffffffffffffffffffffffffffffffffffffffff166002600083815260200190815260200160002060050160009054906101000a900473ffffffffffffffffffffffffffffffffffffffff1673ffffffffffffffffffffffffffffffffffffffff161461421d576040517f08c379a00000000000000000000000000000000000000000000000000000000081526004018080602001828103825260168152602001807f596f7520617265206e6f7420746865206f776e6572210000000000000000000081525060200191505060405180910390fd5b6000600381111561422a57fe5b6005600089815260200190815260200160002060040160009054906101000a900460ff16600381111561425957fe5b148061429d575060038081111561426c57fe5b6005600089815260200190815260200160002060040160009054906101000a900460ff16600381111561429b57fe5b145b6142a657600080fd5b856002600089815260200190815260200160002060010190805190602001906142d0929190615b71565b50846002600089815260200190815260200160002060030190805190602001906142fb929190615b71565b5083600260008981526020019081526020016000206004018190555081600260008981526020019081526020016000206007019080519060200190614341929190615b71565b508215156002600089815260200190815260200160002060060160149054906101000a900460ff1615151461449257826002600089815260200190815260200160002060060160146101000a81548160ff02191690831515021790555060011515831515141561445857336005600089815260200190815260200160002060010160006101000a81548173ffffffffffffffffffffffffffffffffffffffff021916908373ffffffffffffffffffffffffffffffffffffffff16021790555083600560008981526020019081526020016000206003018190555060006005600089815260200190815260200160002060040160006101000a81548160ff0219169083600381111561444e57fe5b0217905550614491565b60036005600089815260200190815260200160002060040160006101000a81548160ff0219169083600381111561448b57fe5b02179055505b5b50505050505050565b3373ffffffffffffffffffffffffffffffffffffffff166009600083815260200190815260200160002060020160009054906101000a900473ffffffffffffffffffffffffffffffffffffffff1673ffffffffffffffffffffffffffffffffffffffff161461450957600080fd5b60006009600083815260200190815260200160002060010160009054906101000a900473ffffffffffffffffffffffffffffffffffffffff1690508073ffffffffffffffffffffffffffffffffffffffff166108fc349081150290604051600060405180830381858888f1935050505015801561458a573d6000803e3d6000fd5b5060026009600084815260200190815260200160002060050160006101000a81548160ff021916908360038111156145be57fe5b02179055506145cb6158ef565b604051806101200160405280848152602001600760008681526020019081526020016000206001015481526020016007600086815260200190815260200160002060020160009054906101000a900473ffffffffffffffffffffffffffffffffffffffff1673ffffffffffffffffffffffffffffffffffffffff1681526020013373ffffffffffffffffffffffffffffffffffffffff16815260200160096000868152602001908152602001600020600301548152602001600960008681526020019081526020016000206004015481526020016009600086815260200190815260200160002060030154815260200160096000868152602001908152602001600020600401548152602001600260038111156146e457fe5b81525090508060076000858152602001908152602001600020600082015181600001556020820151816001015560408201518160020160006101000a81548173ffffffffffffffffffffffffffffffffffffffff021916908373ffffffffffffffffffffffffffffffffffffffff16021790555060608201518160030160006101000a81548173ffffffffffffffffffffffffffffffffffffffff021916908373ffffffffffffffffffffffffffffffffffffffff1602179055506080820151816004015560a0820151816005015560c0820151816006015560e082015181600701556101008201518160080160006101000a81548160ff021916908360038111156147ec57fe5b021790555090505060008090505b600a600085815260200190815260200160002054811015614849576008600085815260200190815260200160002080548091906001900361483b9190615bf1565b5080806001019150506147fa565b506000600a600085815260200190815260200160002081905550505050565b60006007600083815260200190815260200160002060080160006101000a81548160ff0219169083600381111561489b57fe5b021790555050565b60046020528060005260406000206000915090505481565b60096020528060005260406000206000915090508060000154908060010160009054906101000a900473ffffffffffffffffffffffffffffffffffffffff16908060020160009054906101000a900473ffffffffffffffffffffffffffffffffffffffff16908060030154908060040154908060050160009054906101000a900460ff16905086565b813373ffffffffffffffffffffffffffffffffffffffff166002600083815260200190815260200160002060050160009054906101000a900473ffffffffffffffffffffffffffffffffffffffff1673ffffffffffffffffffffffffffffffffffffffff1614614a1c576040517f08c379a00000000000000000000000000000000000000000000000000000000081526004018080602001828103825260168152602001807f596f7520617265206e6f7420746865206f776e6572210000000000000000000081525060200191505060405180910390fd5b8173ffffffffffffffffffffffffffffffffffffffff166005600085815260200190815260200160002060020160009054906101000a900473ffffffffffffffffffffffffffffffffffffffff1673ffffffffffffffffffffffffffffffffffffffff161415614a8b57600080fd5b600080600090505b6003600086815260200190815260200160002080549050811015614b49578373ffffffffffffffffffffffffffffffffffffffff16600360008781526020019081526020016000208281548110614ae657fe5b906000526020600020906003020160010160009054906101000a900473ffffffffffffffffffffffffffffffffffffffff1673ffffffffffffffffffffffffffffffffffffffff161415614b3c57809150614b49565b8080600101915050614a93565b5060036000858152602001908152602001600020600160036000878152602001908152602001600020805490500381548110614b8157fe5b9060005260206000209060030201600360008681526020019081526020016000208281548110614bad57fe5b9060005260206000209060030201600082015481600001556001820160009054906101000a900473ffffffffffffffffffffffffffffffffffffffff168160010160006101000a81548173ffffffffffffffffffffffffffffffffffffffff021916908373ffffffffffffffffffffffffffffffffffffffff1602179055506002820154816002015590505060036000858152602001908152602001600020805480919060019003614c5f9190615b3f565b5060046000858152602001908152602001600020600081548092919060019003919050555050505050565b803373ffffffffffffffffffffffffffffffffffffffff166002600083815260200190815260200160002060050160009054906101000a900473ffffffffffffffffffffffffffffffffffffffff1673ffffffffffffffffffffffffffffffffffffffff1614614d62576040517f08c379a00000000000000000000000000000000000000000000000000000000081526004018080602001828103825260168152602001807f596f7520617265206e6f7420746865206f776e6572210000000000000000000081525060200191505060405180910390fd5b60016003811115614d6f57fe5b6005600084815260200190815260200160002060040160009054906101000a900460ff166003811115614d9e57fe5b14614da857600080fd5b6002600083815260200190815260200160002060050160009054906101000a900473ffffffffffffffffffffffffffffffffffffffff166002600084815260200190815260200160002060060160006101000a81548173ffffffffffffffffffffffffffffffffffffffff021916908373ffffffffffffffffffffffffffffffffffffffff160217905550614e3b615ad9565b6040518060a001604052808481526020016002600086815260200190815260200160002060050160009054906101000a900473ffffffffffffffffffffffffffffffffffffffff1673ffffffffffffffffffffffffffffffffffffffff1681526020016002600086815260200190815260200160002060050160009054906101000a900473ffffffffffffffffffffffffffffffffffffffff1673ffffffffffffffffffffffffffffffffffffffff1681526020016000815260200160006003811115614f0457fe5b815250905080600560008581526020019081526020016000206000820151816000015560208201518160010160006101000a81548173ffffffffffffffffffffffffffffffffffffffff021916908373ffffffffffffffffffffffffffffffffffffffff16021790555060408201518160020160006101000a81548173ffffffffffffffffffffffffffffffffffffffff021916908373ffffffffffffffffffffffffffffffffffffffff1602179055506060820151816003015560808201518160040160006101000a81548160ff02191690836003811115614fe357fe5b0217905550905050505050565b60006003811115614ffd57fe5b6005600083815260200190815260200160002060040160009054906101000a900460ff16600381111561502c57fe5b148061507157506001600381111561504057fe5b6005600083815260200190815260200160002060040160009054906101000a900460ff16600381111561506f57fe5b145b61507a57600080fd5b600080600090505b6003600084815260200190815260200160002080549050811015615138573373ffffffffffffffffffffffffffffffffffffffff166003600085815260200190815260200160002082815481106150d557fe5b906000526020600020906003020160010160009054906101000a900473ffffffffffffffffffffffffffffffffffffffff1673ffffffffffffffffffffffffffffffffffffffff16141561512b57809150615138565b8080600101915050615082565b506003600083815260200190815260200160002060016003600085815260200190815260200160002080549050038154811061517057fe5b906000526020600020906003020160036000848152602001908152602001600020828154811061519c57fe5b9060005260206000209060030201600082015481600001556001820160009054906101000a900473ffffffffffffffffffffffffffffffffffffffff168160010160006101000a81548173ffffffffffffffffffffffffffffffffffffffff021916908373ffffffffffffffffffffffffffffffffffffffff160217905550600282015481600201559050506003600083815260200190815260200160002080548091906001900361524e9190615b3f565b506004600083815260200190815260200160002060008154809291906001900391905055506001600381111561528057fe5b6005600084815260200190815260200160002060040160009054906101000a900460ff1660038111156152af57fe5b14801561531d57503373ffffffffffffffffffffffffffffffffffffffff166005600084815260200190815260200160002060020160009054906101000a900473ffffffffffffffffffffffffffffffffffffffff1673ffffffffffffffffffffffffffffffffffffffff16145b15615567576002600083815260200190815260200160002060050160009054906101000a900473ffffffffffffffffffffffffffffffffffffffff166002600084815260200190815260200160002060060160006101000a81548173ffffffffffffffffffffffffffffffffffffffff021916908373ffffffffffffffffffffffffffffffffffffffff1602179055506153b5615ad9565b6040518060a001604052808481526020016002600086815260200190815260200160002060050160009054906101000a900473ffffffffffffffffffffffffffffffffffffffff1673ffffffffffffffffffffffffffffffffffffffff1681526020016002600086815260200190815260200160002060050160009054906101000a900473ffffffffffffffffffffffffffffffffffffffff1673ffffffffffffffffffffffffffffffffffffffff168152602001600081526020016000600381111561547e57fe5b815250905080600560008581526020019081526020016000206000820151816000015560208201518160010160006101000a81548173ffffffffffffffffffffffffffffffffffffffff021916908373ffffffffffffffffffffffffffffffffffffffff16021790555060408201518160020160006101000a81548173ffffffffffffffffffffffffffffffffffffffff021916908373ffffffffffffffffffffffffffffffffffffffff1602179055506060820151816003015560808201518160040160006101000a81548160ff0219169083600381111561555d57fe5b0217905550905050505b5050565b600080600090506000600190505b6001548111615602573373ffffffffffffffffffffffffffffffffffffffff166002600083815260200190815260200160002060050160009054906101000a900473ffffffffffffffffffffffffffffffffffffffff1673ffffffffffffffffffffffffffffffffffffffff1614156155f55781806001019250505b8080600101915050615579565b508091505090565b6001600381111561561757fe5b6007600083815260200190815260200160002060080160009054906101000a900460ff16600381111561564657fe5b1461565057600080fd5b3373ffffffffffffffffffffffffffffffffffffffff166007600083815260200190815260200160002060020160009054906101000a900473ffffffffffffffffffffffffffffffffffffffff1673ffffffffffffffffffffffffffffffffffffffff1614156156bf57600080fd5b6156c7615c23565b6040518060a001604052808381526020016007600085815260200190815260200160002060020160009054906101000a900473ffffffffffffffffffffffffffffffffffffffff1673ffffffffffffffffffffffffffffffffffffffff1681526020013373ffffffffffffffffffffffffffffffffffffffff16815260200160076000858152602001908152602001600020600401548152602001600760008581526020019081526020016000206005015481525090506008600083815260200190815260200160002081908060018154018082558091505090600182039060005260206000209060050201600090919290919091506000820151816000015560208201518160010160006101000a81548173ffffffffffffffffffffffffffffffffffffffff021916908373ffffffffffffffffffffffffffffffffffffffff16021790555060408201518160020160006101000a81548173ffffffffffffffffffffffffffffffffffffffff021916908373ffffffffffffffffffffffffffffffffffffffff1602179055506060820151816003015560808201518160040155505050600a6000838152602001908152602001600020600081548092919060010191905055505050565b6000809054906101000a900473ffffffffffffffffffffffffffffffffffffffff1681565b604051806060016040528060008152602001600073ffffffffffffffffffffffffffffffffffffffff168152602001600081525090565b6040518061012001604052806000815260200160008152602001600073ffffffffffffffffffffffffffffffffffffffff168152602001600073ffffffffffffffffffffffffffffffffffffffff168152602001600081526020016000815260200160008152602001600081526020016000600381111561596c57fe5b81525090565b6040518060c0016040528060008152602001600073ffffffffffffffffffffffffffffffffffffffff168152602001600073ffffffffffffffffffffffffffffffffffffffff1681526020016000815260200160008152602001600060038111156159d957fe5b81525090565b6040518061012001604052806000815260200160608152602001606081526020016060815260200160008152602001600073ffffffffffffffffffffffffffffffffffffffff168152602001600073ffffffffffffffffffffffffffffffffffffffff168152602001600015158152602001606081525090565b828054600181600116156101000203166002900490600052602060002090601f016020900481019282601f10615a9a57805160ff1916838001178555615ac8565b82800160010185558215615ac8579182015b82811115615ac7578251825591602001919060010190615aac565b5b509050615ad59190615c7e565b5090565b6040518060a0016040528060008152602001600073ffffffffffffffffffffffffffffffffffffffff168152602001600073ffffffffffffffffffffffffffffffffffffffff1681526020016000815260200160006003811115615b3957fe5b81525090565b815481835581811115615b6c57600302816003028360005260206000209182019101615b6b9190615ca3565b5b505050565b828054600181600116156101000203166002900490600052602060002090601f016020900481019282601f10615bb257805160ff1916838001178555615be0565b82800160010185558215615be0579182015b82811115615bdf578251825591602001919060010190615bc4565b5b509050615bed9190615c7e565b5090565b815481835581811115615c1e57600502816005028360005260206000209182019101615c1d9190615cf9565b5b505050565b6040518060a0016040528060008152602001600073ffffffffffffffffffffffffffffffffffffffff168152602001600073ffffffffffffffffffffffffffffffffffffffff16815260200160008152602001600081525090565b615ca091905b80821115615c9c576000816000905550600101615c84565b5090565b90565b615cf691905b80821115615cf2576000808201600090556001820160006101000a81549073ffffffffffffffffffffffffffffffffffffffff0219169055600282016000905550600301615ca9565b5090565b90565b615d7b91905b80821115615d77576000808201600090556001820160006101000a81549073ffffffffffffffffffffffffffffffffffffffff02191690556002820160006101000a81549073ffffffffffffffffffffffffffffffffffffffff02191690556003820160009055600482016000905550600501615cff565b5090565b9056fe546861742070726f7065727479206973206e6f7420666f722073616c652e20506c6561736520656469742069742773207374617475732e596f752063616e6e6f742061636365707420796f7572206f776e206f6666657221a265627a7a723158209327c829fbd53835d29faa010c16e15b1500e8a9bdb4d51e15dd8644184ac11064736f6c63430005100032",
  "source": "pragma solidity ^0.5.0;\r\n\r\ncontract Marketplace {\r\n\r\n    address public admin;\r\n    uint public totalPropertyCounter = 0;\r\n    enum State {NONE, AWAITING_PAYMENT, AWAITING_TRANSFER, COMPLETE}\r\n    struct Property {\r\n        uint propID;\r\n        string propTitle;\r\n        string propAddress;\r\n        string propDescription;\r\n        uint propValue;\r\n        address payable propOwner;\r\n        address payable buyer;\r\n        bool pendingSale;\r\n        string imgURL;\r\n    }\r\n    struct Offer {\r\n        uint propID;\r\n        address payable buyer;\r\n        uint amount;\r\n    }\r\n    struct Escrow {\r\n        uint propID;\r\n        address payable propOwner;\r\n        address payable buyer;\r\n        uint amount;\r\n        State currState;\r\n    }\r\n    mapping(uint => Property) public allProperty;\r\n    mapping(uint => Offer[]) public allOffers;\r\n    mapping(uint => uint) public offerCounts;\r\n    mapping(uint => Escrow) public allEscrows;\r\n\r\n    event AddedProperty(uint _propID, string _propTitle, string _propAddress, string _propDescription, uint _propValue, address payable _propOwner, address payable _buyer, bool _pendingSale, string _imgURL);\r\n    event CreatedOffer(uint _propID, address payable _buyer, uint _amount);\r\n    event CreatedEscrow(uint _propID, address payable _propOwner, address payable _buyer, uint _amount);\r\n    event PurchasedProperty(uint _propID, address payable _propOwner, uint _amount);\r\n\r\n    //Loan Mechanics\r\n    uint public totalLoansCounter = 0;\r\n    enum loanState {NONE, APPLIED, IN_FORCE, COMPLETE}\r\n    enum loanEscrowState {NONE, ACCEPTED, DISBURSED, COMPLETE}\r\n    struct Loan {\r\n        uint loanID;\r\n        uint propID;\r\n        address payable buyer;\r\n        address payable provider;\r\n        uint amount;\r\n        uint duration;\r\n        uint balamount;\r\n        uint balduration;\r\n        loanState currState;\r\n    }\r\n    struct LoanOffer {\r\n        uint loanID;\r\n        address payable buyer;\r\n        address payable provider;\r\n        uint amount;\r\n        uint duration;\r\n    }\r\n    struct LoanEscrow {\r\n        uint loanID;\r\n        address payable buyer;\r\n        address payable provider;\r\n        uint amount;\r\n        uint duration;\r\n        loanEscrowState currState;\r\n    }\r\n    mapping(uint => Loan) public allLoans;\r\n    mapping(uint => LoanOffer[]) public allLoanOffers;\r\n    mapping(uint => LoanEscrow) public allLoanEscrows;\r\n    mapping(uint => uint) public loanOfferCounts;\r\n    //End of Loan Mechanics Set-Up\r\n    \r\n    constructor() public {\r\n       //The admin account is used to deploy the contract.\r\n       admin = msg.sender;\r\n    }\r\n\r\n    modifier isAdmin {\r\n        require(msg.sender == admin, \"You are not authorised to add property!\");\r\n        _;\r\n    }\r\n\r\n    modifier isUnique(string memory _propAddress) {\r\n        bool uniq = true;\r\n        if(totalPropertyCounter > 0) {\r\n            for(uint i=1; i<=totalPropertyCounter; i++) {\r\n                if (keccak256(abi.encodePacked(allProperty[i].propAddress)) == keccak256(abi.encodePacked(_propAddress))) {\r\n                    uniq = false;\r\n                    break;\r\n                }\r\n            }\r\n        }\r\n        require(uniq == true, \"That address already exists!\");\r\n        _;\r\n    }\r\n\r\n    modifier isOwner(uint _propID) {\r\n        require(allProperty[_propID].propOwner == msg.sender, \"You are not the owner!\");\r\n        _;\r\n    }\r\n\r\n    modifier checkPayment(uint _propID) {\r\n        require(_propID > 0 && _propID <= totalPropertyCounter, \"Property ID is invalid\");\r\n        require(allProperty[_propID].buyer == msg.sender, \"You are not the buyer!\");\r\n        require(allEscrows[_propID].currState == State.AWAITING_PAYMENT, \"Payment already made!\");\r\n        _;\r\n    }\r\n\r\n    function addProperty(string memory _propTitle, string memory _propAddress, string memory _propDescription, uint _propValue, string memory _imgURL) public isUnique(_propAddress) returns (uint) {\r\n        require(bytes(_propAddress).length > 0);\r\n        require(_propValue > 0);\r\n        totalPropertyCounter = totalPropertyCounter + 1;\r\n        Property memory myProperty = Property({\r\n            propID: totalPropertyCounter,\r\n            propTitle: _propTitle,\r\n            propAddress: _propAddress,\r\n            propDescription: _propDescription,\r\n            propValue: _propValue,\r\n            propOwner: msg.sender,\r\n            buyer: msg.sender,\r\n            pendingSale: true,\r\n            imgURL: _imgURL\r\n        });\r\n        allProperty[totalPropertyCounter] = myProperty;\r\n        emit AddedProperty(totalPropertyCounter, _propTitle, _propAddress, _propDescription, _propValue, msg.sender, msg.sender, true, _imgURL);\r\n        //Create null escrow entry in escrow list for this property\r\n        Escrow memory nullEscrow = Escrow({\r\n            propID: totalPropertyCounter,\r\n            propOwner: msg.sender,\r\n            buyer: msg.sender,\r\n            amount: 0,\r\n            currState: State.NONE\r\n        });\r\n        allEscrows[totalPropertyCounter] = nullEscrow;\r\n        offerCounts[totalPropertyCounter] = 0;\r\n    }\r\n\r\n    function editProperty(uint _propID, string memory _propTitle, string memory _propDescription, uint _propValue, bool _pendingSale, string memory _imgURL) public isOwner(_propID) {\r\n        require(allEscrows[_propID].currState == State.NONE || allEscrows[_propID].currState == State.COMPLETE);\r\n        allProperty[_propID].propTitle = _propTitle;\r\n        allProperty[_propID].propDescription = _propDescription;\r\n        allProperty[_propID].propValue = _propValue;\r\n        allProperty[_propID].imgURL = _imgURL;\r\n        if (allProperty[_propID].pendingSale != _pendingSale) {\r\n            allProperty[_propID].pendingSale = _pendingSale;\r\n            if (_pendingSale == true) {\r\n                allEscrows[_propID].propOwner = msg.sender;\r\n                allEscrows[_propID].amount = _propValue;\r\n                allEscrows[_propID].currState = State.NONE;\r\n            } else {\r\n                allEscrows[_propID].currState = State.COMPLETE;\r\n            }\r\n        }\r\n    }\r\n    \r\n    function getPropertyDetails(uint _propID) public view returns (uint, string memory, string memory, string memory, uint, bool, string memory) {\r\n        return (allProperty[_propID].propID,\r\n            allProperty[_propID].propTitle, \r\n            allProperty[_propID].propAddress,\r\n            allProperty[_propID].propDescription, \r\n            allProperty[_propID].propValue, \r\n            allProperty[_propID].pendingSale,\r\n            allProperty[_propID].imgURL);\r\n    }\r\n\r\n    function getOwnersPropertyCount() public view returns (uint) {\r\n        uint propCount = 0;\r\n        for(uint i=1; i<=totalPropertyCounter; i++) {\r\n            if(allProperty[i].propOwner == msg.sender) {\r\n                propCount++;\r\n            }\r\n        }\r\n        return propCount;\r\n    }\r\n\r\n    function makeOffer(uint _propID, uint _amount) public {\r\n        require(allProperty[_propID].pendingSale == true, \"That property is not for sale. Please edit it's status.\");\r\n        require(msg.sender != allProperty[_propID].propOwner, 'You are the property owner!');\r\n        require(_amount > 0, 'Enter a valid offer value!');\r\n        Offer memory myOffer = Offer({\r\n            propID: _propID,\r\n            buyer: msg.sender,\r\n            amount: _amount\r\n        });\r\n        allOffers[_propID].push(myOffer);\r\n        offerCounts[_propID]++;\r\n        emit CreatedOffer(_propID, msg.sender, _amount);\r\n    }\r\n\r\n    function acceptOffer(uint _propID, address payable _buyer) public isOwner(_propID) {\r\n        require(allEscrows[_propID].currState == State.NONE);\r\n        require(_buyer != msg.sender, \"You cannot accept your own offer!\");\r\n        uint index;\r\n        for(uint i=0; i<allOffers[_propID].length; i++) {\r\n            if(allOffers[_propID][i].buyer == _buyer) {\r\n                index = i;\r\n                break;\r\n            }\r\n        }\r\n        Offer memory acceptedOffer = allOffers[_propID][index];\r\n        allProperty[_propID].buyer = _buyer; //Change the buyer entry on the property listing.\r\n        //Create escrow\r\n        Escrow memory myEscrow = Escrow({\r\n            propID: _propID,\r\n            propOwner: msg.sender,\r\n            buyer: _buyer,\r\n            amount: acceptedOffer.amount,\r\n            currState: State.AWAITING_PAYMENT\r\n        });\r\n        allEscrows[_propID] = myEscrow;\r\n        emit CreatedEscrow(_propID, msg.sender, _buyer, acceptedOffer.amount); \r\n    }\r\n\r\n    //For the seller to reject offers.\r\n    function rejectOffer(uint _propID, address payable _buyer) public isOwner(_propID) {\r\n        require(allEscrows[_propID].buyer != _buyer);\r\n        uint index;\r\n        for(uint i=0; i<allOffers[_propID].length; i++) {\r\n            if(allOffers[_propID][i].buyer == _buyer) {\r\n                index = i;\r\n                break;\r\n            }\r\n        }\r\n        //Remove offer\r\n        allOffers[_propID][index] = allOffers[_propID][(allOffers[_propID].length-1)];\r\n        allOffers[_propID].length--;\r\n        offerCounts[_propID]--;\r\n    }\r\n\r\n    //For the buyer to back out of offers, even if they have been accepted by seller. Must be before payment. Resets existing escrow if reqd.\r\n    function cancelOffer(uint _propID) public {\r\n        require(allEscrows[_propID].currState == State.NONE || allEscrows[_propID].currState == State.AWAITING_PAYMENT);\r\n        uint index;\r\n        for(uint i=0; i<allOffers[_propID].length; i++) {\r\n            if(allOffers[_propID][i].buyer == msg.sender) {\r\n                index = i;\r\n                break;\r\n            }\r\n        }\r\n        //Remove offer\r\n        allOffers[_propID][index] = allOffers[_propID][(allOffers[_propID].length-1)];\r\n        allOffers[_propID].length--;\r\n        offerCounts[_propID]--;\r\n        //If buyer is cancelling an offer that has already been accepted by a seller.\r\n        if (allEscrows[_propID].currState == State.AWAITING_PAYMENT && allEscrows[_propID].buyer == msg.sender) {\r\n            //Set the buyer entry on the property listing to the original owner.\r\n            allProperty[_propID].buyer = allProperty[_propID].propOwner;\r\n            //Remove escrow.\r\n            Escrow memory resetEscrow = Escrow({\r\n                propID: _propID,\r\n                propOwner: allProperty[_propID].propOwner,\r\n                buyer: allProperty[_propID].propOwner,\r\n                amount: 0,\r\n                currState: State.NONE\r\n            });\r\n            allEscrows[_propID] = resetEscrow;\r\n        }\r\n    }\r\n\r\n    //For the seller to back out of escrows before payment. Will not remove the related offer.\r\n    function cancelEscrow(uint _propID) public isOwner(_propID) {\r\n        require(allEscrows[_propID].currState == State.AWAITING_PAYMENT);\r\n        //Set the buyer entry on the property listing to the original owner.\r\n        allProperty[_propID].buyer = allProperty[_propID].propOwner;\r\n        //Remove escrow.\r\n        Escrow memory resetEscrow = Escrow({\r\n            propID: _propID,\r\n            propOwner: allProperty[_propID].propOwner,\r\n            buyer: allProperty[_propID].propOwner,\r\n            amount: 0,\r\n            currState: State.NONE\r\n        });\r\n        allEscrows[_propID] = resetEscrow;\r\n    }\r\n\r\n    function purchaseProperty(uint _propID) public payable checkPayment(_propID) {\r\n        require(msg.value == allEscrows[_propID].amount, \"Incorrect payment amount!\");\r\n        //make payment\r\n        address payable _propOwner = allProperty[_propID].propOwner;\r\n        _propOwner.transfer(msg.value);\r\n        allEscrows[_propID].currState = State.AWAITING_TRANSFER;\r\n        \r\n        //transfer property\r\n        require(allEscrows[_propID].currState == State.AWAITING_TRANSFER);\r\n        address payable _buyer = allProperty[_propID].buyer;\r\n\r\n        Property memory _tempProperty = allProperty[_propID];\r\n        _tempProperty.propOwner = _buyer;\r\n        _tempProperty.propValue = allEscrows[_propID].amount;\r\n        _tempProperty.buyer = _buyer;\r\n        _tempProperty.pendingSale = false;\r\n\r\n        allProperty[_propID] = _tempProperty;\r\n        allEscrows[_propID].currState = State.COMPLETE; //Change state on escrow\r\n\r\n        //Set loan escrow status if required\r\n        for(uint j=0; j<totalLoansCounter; j++) {\r\n            if(allLoans[j].propID == _propID) {\r\n                allLoanEscrows[j].currState = loanEscrowState.COMPLETE;\r\n            }\r\n        }\r\n\r\n        //Remove all offers on the property\r\n        for(uint i=0; i<allOffers[_propID].length; i++) {\r\n            allOffers[_propID].length--;\r\n        }\r\n        offerCounts[_propID] = 0;\r\n        emit PurchasedProperty(_propID, _buyer, msg.value);\r\n    }\r\n\r\n    //For loan mechanics\r\n    function applyLoan(uint _propID, uint _amount, uint _duration) public {\r\n        if(allEscrows[_propID].currState == State.AWAITING_PAYMENT && allEscrows[_propID].buyer == msg.sender) {\r\n            totalLoansCounter = totalLoansCounter + 1;\r\n            Loan memory myLoan = Loan({\r\n                loanID: totalLoansCounter,\r\n                propID: _propID,\r\n                buyer: msg.sender,\r\n                provider: msg.sender,\r\n                amount: _amount,\r\n                duration: _duration,\r\n                balamount: allEscrows[_propID].amount,\r\n                balduration: _duration,\r\n                currState: loanState.APPLIED\r\n            });\r\n            allLoans[totalLoansCounter] = myLoan;\r\n\r\n            LoanEscrow memory nullLoanEscrow = LoanEscrow({\r\n                loanID: totalLoansCounter,\r\n                buyer: msg.sender,\r\n                provider: msg.sender,\r\n                amount: 0,\r\n                duration: 0,\r\n                currState: loanEscrowState.NONE\r\n            });\r\n            allLoanEscrows[totalLoansCounter] = nullLoanEscrow;\r\n            loanOfferCounts[totalLoansCounter] = 0;\r\n        }\r\n    }\r\n\r\n    function cancelLoan(uint _loanID) public {\r\n        allLoans[_loanID].currState = loanState.NONE;\r\n    }\r\n\r\n    function offerLoan(uint _loanID) public {\r\n        require(allLoans[_loanID].currState == loanState.APPLIED);\r\n        require(allLoans[_loanID].buyer != msg.sender);\r\n        LoanOffer memory myLoanOffer = LoanOffer({\r\n            loanID: _loanID,\r\n            buyer: allLoans[_loanID].buyer,\r\n            provider: msg.sender,\r\n            amount: allLoans[_loanID].amount,\r\n            duration: allLoans[_loanID].duration\r\n        });\r\n        allLoanOffers[_loanID].push(myLoanOffer);\r\n        loanOfferCounts[_loanID]++;\r\n    }\r\n\r\n    function acceptLoan(uint _loanID, address payable _provider) public {\r\n        uint index;\r\n        for(uint i=0; i<loanOfferCounts[_loanID]; i++) {\r\n            if(allLoanOffers[_loanID][i].provider == _provider) {\r\n                index = i;\r\n                break;\r\n            }\r\n        }\r\n        LoanEscrow memory myLoanEscrow = LoanEscrow({\r\n            loanID: _loanID,\r\n            buyer: msg.sender,\r\n            provider: _provider,\r\n            amount: allLoanOffers[_loanID][index].amount,\r\n            duration: allLoanOffers[_loanID][index].duration,\r\n            currState: loanEscrowState.ACCEPTED\r\n        });\r\n        allLoanEscrows[_loanID] = myLoanEscrow;\r\n    }\r\n\r\n    function disburseLoan(uint _loanID) public payable {\r\n        require(allLoanEscrows[_loanID].provider == msg.sender);\r\n        address payable _buyer = allLoanEscrows[_loanID].buyer;\r\n        _buyer.transfer(msg.value);\r\n        allLoanEscrows[_loanID].currState = loanEscrowState.DISBURSED;\r\n        \r\n        Loan memory myLoan = Loan({\r\n            loanID: _loanID,\r\n            propID: allLoans[_loanID].propID,\r\n            buyer: allLoans[_loanID].buyer,\r\n            provider: msg.sender,\r\n            amount: allLoanEscrows[_loanID].amount,\r\n            duration: allLoanEscrows[_loanID].duration,\r\n            balamount: allLoanEscrows[_loanID].amount,\r\n            balduration: allLoanEscrows[_loanID].duration,\r\n            currState: loanState.IN_FORCE\r\n        });\r\n        allLoans[_loanID] = myLoan;\r\n        \r\n        //clean up arrays\r\n        for(uint i=0; i<loanOfferCounts[_loanID]; i++) {\r\n            allLoanOffers[_loanID].length--;\r\n        }\r\n        loanOfferCounts[_loanID] = 0;  \r\n    }\r\n\r\n    function rejectLoan(uint _loanID) public {\r\n        require(allEscrows[allLoans[_loanID].propID].propOwner != msg.sender);\r\n        require(allEscrows[allLoans[_loanID].propID].currState == State.AWAITING_PAYMENT);\r\n        address payable _provider = allLoans[_loanID].provider;\r\n        _provider.transfer(allLoans[_loanID].amount);\r\n        allLoanEscrows[_loanID].currState = loanEscrowState.NONE;\r\n        allLoans[_loanID].currState = loanState.APPLIED;\r\n    }\r\n\r\n    function payMortgage(uint _loanID) public payable {\r\n        require(allLoans[_loanID].buyer == msg.sender);\r\n        address payable _provider = allLoans[_loanID].provider;\r\n        _provider.transfer(msg.value);\r\n\r\n        allLoans[_loanID].balamount = allLoans[_loanID].balamount - msg.value;\r\n        allLoans[_loanID].balduration--;\r\n        if (allLoans[_loanID].balamount == 0) {\r\n            allLoans[_loanID].currState = loanState.COMPLETE;\r\n        }\r\n    }\r\n\r\n}",
  "sourcePath": "C:/Users/arvin/Documents/1Personal/Education/Masters/IT5007 - Software Engineering on Application Architecture/Project/code/middlewhere/src/contracts/Marketplace.sol",
  "compiler": {
    "name": "solc",
    "version": "0.5.16+commit.9c3226ce.Emscripten.clang"
  },
  "schemaVersion": "3.2.3",
  "updatedAt": "2021-11-11T17:45:14.421Z",
  "networkType": "ethereum",
  "devdoc": {
    "methods": {}
  },
  "userdoc": {
    "methods": {}
  }
}