{
  "contractName": "Marketplace",
  "abi": [
    {
      "inputs": [
        {
          "internalType": "contract Props",
          "name": "propsAddress",
          "type": "address"
        },
        {
          "internalType": "contract Loans",
          "name": "loansAddress",
          "type": "address"
        },
        {
          "internalType": "uint256",
          "name": "fee",
          "type": "uint256"
        }
      ],
      "payable": false,
      "stateMutability": "nonpayable",
      "type": "constructor"
    },
    {
      "anonymous": false,
      "inputs": [
        {
          "indexed": false,
          "internalType": "uint256",
          "name": "_propID",
          "type": "uint256"
        },
        {
          "indexed": false,
          "internalType": "uint256",
          "name": "_percentage",
          "type": "uint256"
        },
        {
          "indexed": false,
          "internalType": "uint256",
          "name": "_amount",
          "type": "uint256"
        },
        {
          "indexed": false,
          "internalType": "address payable",
          "name": "_stakeOwner",
          "type": "address"
        },
        {
          "indexed": false,
          "internalType": "address payable",
          "name": "_buyer",
          "type": "address"
        },
        {
          "indexed": false,
          "internalType": "enum Marketplace.PropOfferState",
          "name": "_currState",
          "type": "uint8"
        }
      ],
      "name": "CreatedPropOffer",
      "type": "event"
    },
    {
      "anonymous": false,
      "inputs": [
        {
          "indexed": false,
          "internalType": "uint256",
          "name": "_propID",
          "type": "uint256"
        },
        {
          "indexed": false,
          "internalType": "uint256",
          "name": "_percentage",
          "type": "uint256"
        },
        {
          "indexed": false,
          "internalType": "uint256",
          "name": "_amount",
          "type": "uint256"
        },
        {
          "indexed": false,
          "internalType": "address payable",
          "name": "_stakeOwner",
          "type": "address"
        }
      ],
      "name": "PurchasedStake",
      "type": "event"
    },
    {
      "constant": true,
      "inputs": [
        {
          "internalType": "uint256",
          "name": "",
          "type": "uint256"
        },
        {
          "internalType": "uint256",
          "name": "",
          "type": "uint256"
        }
      ],
      "name": "allLoanOffers",
      "outputs": [
        {
          "internalType": "uint256",
          "name": "loanID",
          "type": "uint256"
        },
        {
          "internalType": "address payable",
          "name": "buyer",
          "type": "address"
        },
        {
          "internalType": "address payable",
          "name": "provider",
          "type": "address"
        },
        {
          "internalType": "uint256",
          "name": "amount",
          "type": "uint256"
        },
        {
          "internalType": "uint256",
          "name": "duration",
          "type": "uint256"
        }
      ],
      "payable": false,
      "stateMutability": "view",
      "type": "function"
    },
    {
      "constant": true,
      "inputs": [
        {
          "internalType": "uint256",
          "name": "",
          "type": "uint256"
        },
        {
          "internalType": "uint256",
          "name": "",
          "type": "uint256"
        }
      ],
      "name": "allPropOffers",
      "outputs": [
        {
          "internalType": "uint256",
          "name": "propID",
          "type": "uint256"
        },
        {
          "internalType": "uint256",
          "name": "percentage",
          "type": "uint256"
        },
        {
          "internalType": "uint256",
          "name": "amount",
          "type": "uint256"
        },
        {
          "internalType": "address payable",
          "name": "stakeOwner",
          "type": "address"
        },
        {
          "internalType": "address payable",
          "name": "buyer",
          "type": "address"
        },
        {
          "internalType": "enum Marketplace.PropOfferState",
          "name": "currState",
          "type": "uint8"
        }
      ],
      "payable": false,
      "stateMutability": "view",
      "type": "function"
    },
    {
      "constant": true,
      "inputs": [
        {
          "internalType": "uint256",
          "name": "",
          "type": "uint256"
        }
      ],
      "name": "countLoanOffers",
      "outputs": [
        {
          "internalType": "uint256",
          "name": "",
          "type": "uint256"
        }
      ],
      "payable": false,
      "stateMutability": "view",
      "type": "function"
    },
    {
      "constant": true,
      "inputs": [
        {
          "internalType": "uint256",
          "name": "",
          "type": "uint256"
        }
      ],
      "name": "countPropOffers",
      "outputs": [
        {
          "internalType": "uint256",
          "name": "",
          "type": "uint256"
        }
      ],
      "payable": false,
      "stateMutability": "view",
      "type": "function"
    },
    {
      "constant": false,
      "inputs": [
        {
          "internalType": "uint256",
          "name": "_propID",
          "type": "uint256"
        },
        {
          "internalType": "uint256",
          "name": "_amount",
          "type": "uint256"
        },
        {
          "internalType": "address payable",
          "name": "_stakeOwner",
          "type": "address"
        }
      ],
      "name": "makeOffer",
      "outputs": [],
      "payable": false,
      "stateMutability": "nonpayable",
      "type": "function"
    },
    {
      "constant": false,
      "inputs": [
        {
          "internalType": "uint256",
          "name": "_propID",
          "type": "uint256"
        },
        {
          "internalType": "address payable",
          "name": "_buyer",
          "type": "address"
        }
      ],
      "name": "acceptOffer",
      "outputs": [],
      "payable": false,
      "stateMutability": "nonpayable",
      "type": "function"
    },
    {
      "constant": false,
      "inputs": [
        {
          "internalType": "uint256",
          "name": "_propID",
          "type": "uint256"
        },
        {
          "internalType": "address payable",
          "name": "_buyer",
          "type": "address"
        }
      ],
      "name": "rejectOffer",
      "outputs": [],
      "payable": false,
      "stateMutability": "nonpayable",
      "type": "function"
    },
    {
      "constant": false,
      "inputs": [
        {
          "internalType": "uint256",
          "name": "_propID",
          "type": "uint256"
        },
        {
          "internalType": "address payable",
          "name": "_stakeOwner",
          "type": "address"
        }
      ],
      "name": "cancelOffer",
      "outputs": [],
      "payable": false,
      "stateMutability": "nonpayable",
      "type": "function"
    },
    {
      "constant": false,
      "inputs": [
        {
          "internalType": "uint256",
          "name": "_propID",
          "type": "uint256"
        }
      ],
      "name": "cancelDeal",
      "outputs": [],
      "payable": false,
      "stateMutability": "nonpayable",
      "type": "function"
    },
    {
      "constant": false,
      "inputs": [
        {
          "internalType": "uint256",
          "name": "_propID",
          "type": "uint256"
        },
        {
          "internalType": "address payable",
          "name": "_stakeOwner",
          "type": "address"
        }
      ],
      "name": "purchaseProperty",
      "outputs": [],
      "payable": false,
      "stateMutability": "nonpayable",
      "type": "function"
    },
    {
      "constant": false,
      "inputs": [
        {
          "internalType": "uint256",
          "name": "_loanID",
          "type": "uint256"
        }
      ],
      "name": "offerLoan",
      "outputs": [],
      "payable": false,
      "stateMutability": "nonpayable",
      "type": "function"
    },
    {
      "constant": false,
      "inputs": [
        {
          "internalType": "uint256",
          "name": "_loanID",
          "type": "uint256"
        },
        {
          "internalType": "address payable",
          "name": "_provider",
          "type": "address"
        }
      ],
      "name": "acceptLoan",
      "outputs": [],
      "payable": false,
      "stateMutability": "nonpayable",
      "type": "function"
    },
    {
      "constant": false,
      "inputs": [
        {
          "internalType": "uint256",
          "name": "_loanID",
          "type": "uint256"
        }
      ],
      "name": "disburseLoan",
      "outputs": [],
      "payable": true,
      "stateMutability": "payable",
      "type": "function"
    },
    {
      "constant": false,
      "inputs": [
        {
          "internalType": "uint256",
          "name": "_loanID",
          "type": "uint256"
        },
        {
          "internalType": "address payable",
          "name": "_provider",
          "type": "address"
        }
      ],
      "name": "refuseLoan",
      "outputs": [],
      "payable": false,
      "stateMutability": "nonpayable",
      "type": "function"
    },
    {
      "constant": false,
      "inputs": [
        {
          "internalType": "uint256",
          "name": "_loanID",
          "type": "uint256"
        },
        {
          "internalType": "address payable",
          "name": "_provider",
          "type": "address"
        }
      ],
      "name": "denyLoan",
      "outputs": [],
      "payable": false,
      "stateMutability": "nonpayable",
      "type": "function"
    }
  ],
  "bytecode": "0x608060405233600360006101000a81548173ffffffffffffffffffffffffffffffffffffffff021916908373ffffffffffffffffffffffffffffffffffffffff16021790555034801561005157600080fd5b50604051613ad3380380613ad38339818101604052606081101561007457600080fd5b81019080805190602001909291908051906020019092919080519060200190929190505050826000806101000a81548173ffffffffffffffffffffffffffffffffffffffff021916908373ffffffffffffffffffffffffffffffffffffffff16021790555081600160006101000a81548173ffffffffffffffffffffffffffffffffffffffff021916908373ffffffffffffffffffffffffffffffffffffffff160217905550806002819055505050506139a0806101336000396000f3fe6080604052600436106100e85760003560e01c806373d6889a1161008a578063b73e4da011610059578063b73e4da0146105a1578063c0fc80a2146105cf578063db9371c21461062a578063f38f51ae14610685576100e8565b806373d6889a146104355780638313d43714610490578063918d407d146104eb57806395d1671c14610546576100e8565b80631ebeee84116100c65780631ebeee841461026457806331ea1a39146103465780633cc56e32146103815780636457c4f8146103d0576100e8565b80630177a2a1146100ed5780630c8463011461013c57806311ae8a5314610209575b600080fd5b3480156100f957600080fd5b506101266004803603602081101561011057600080fd5b81019080803590602001909291905050506106c0565b6040518082815260200191505060405180910390f35b34801561014857600080fd5b5061017f6004803603604081101561015f57600080fd5b8101908080359060200190929190803590602001909291905050506106d8565b604051808681526020018573ffffffffffffffffffffffffffffffffffffffff1673ffffffffffffffffffffffffffffffffffffffff1681526020018473ffffffffffffffffffffffffffffffffffffffff1673ffffffffffffffffffffffffffffffffffffffff1681526020018381526020018281526020019550505050505060405180910390f35b34801561021557600080fd5b506102626004803603604081101561022c57600080fd5b8101908080359060200190929190803573ffffffffffffffffffffffffffffffffffffffff169060200190929190505050610768565b005b34801561027057600080fd5b506102a76004803603604081101561028757600080fd5b810190808035906020019092919080359060200190929190505050610bff565b604051808781526020018681526020018581526020018473ffffffffffffffffffffffffffffffffffffffff1673ffffffffffffffffffffffffffffffffffffffff1681526020018373ffffffffffffffffffffffffffffffffffffffff1673ffffffffffffffffffffffffffffffffffffffff16815260200182600181111561032d57fe5b60ff168152602001965050505050505060405180910390f35b34801561035257600080fd5b5061037f6004803603602081101561036957600080fd5b8101908080359060200190929190505050610ca2565b005b34801561038d57600080fd5b506103ba600480360360208110156103a457600080fd5b8101908080359060200190929190505050611010565b6040518082815260200191505060405180910390f35b3480156103dc57600080fd5b50610433600480360360608110156103f357600080fd5b810190808035906020019092919080359060200190929190803573ffffffffffffffffffffffffffffffffffffffff169060200190929190505050611028565b005b34801561044157600080fd5b5061048e6004803603604081101561045857600080fd5b8101908080359060200190929190803573ffffffffffffffffffffffffffffffffffffffff169060200190929190505050611563565b005b34801561049c57600080fd5b506104e9600480360360408110156104b357600080fd5b8101908080359060200190929190803573ffffffffffffffffffffffffffffffffffffffff169060200190929190505050611b67565b005b3480156104f757600080fd5b506105446004803603604081101561050e57600080fd5b8101908080359060200190929190803573ffffffffffffffffffffffffffffffffffffffff169060200190929190505050611d60565b005b34801561055257600080fd5b5061059f6004803603604081101561056957600080fd5b8101908080359060200190929190803573ffffffffffffffffffffffffffffffffffffffff16906020019092919050505061227e565b005b6105cd600480360360208110156105b757600080fd5b81019080803590602001909291905050506124ed565b005b3480156105db57600080fd5b50610628600480360360408110156105f257600080fd5b8101908080359060200190929190803573ffffffffffffffffffffffffffffffffffffffff169060200190929190505050612970565b005b34801561063657600080fd5b506106836004803603604081101561064d57600080fd5b8101908080359060200190929190803573ffffffffffffffffffffffffffffffffffffffff169060200190929190505050612ebe565b005b34801561069157600080fd5b506106be600480360360208110156106a857600080fd5b810190808035906020019092919050505061333a565b005b60076020528060005260406000206000915090505481565b600660205281600052604060002081815481106106f157fe5b9060005260206000209060050201600091509150508060000154908060010160009054906101000a900473ffffffffffffffffffffffffffffffffffffffff16908060020160009054906101000a900473ffffffffffffffffffffffffffffffffffffffff16908060030154908060040154905085565b3373ffffffffffffffffffffffffffffffffffffffff168173ffffffffffffffffffffffffffffffffffffffff1614610809576040517f08c379a00000000000000000000000000000000000000000000000000000000081526004018080602001828103825260178152602001807f596f7520617265206e6f7420746865206c656e6465722100000000000000000081525060200191505060405180910390fd5b600080600090505b60066000858152602001908152602001600020805490508110156108c7578273ffffffffffffffffffffffffffffffffffffffff1660066000868152602001908152602001600020828154811061086457fe5b906000526020600020906005020160020160009054906101000a900473ffffffffffffffffffffffffffffffffffffffff1673ffffffffffffffffffffffffffffffffffffffff1614156108ba578091506108c7565b8080600101915050610811565b50600160009054906101000a900473ffffffffffffffffffffffffffffffffffffffff1673ffffffffffffffffffffffffffffffffffffffff16637779d51e8460066000878152602001908152602001600020848154811061092557fe5b906000526020600020906005020160010160009054906101000a900473ffffffffffffffffffffffffffffffffffffffff1660066000888152602001908152602001600020858154811061097557fe5b9060005260206000209060050201600301546006600089815260200190815260200160002086815481106109a557fe5b90600052602060002090600502016004015460006040518663ffffffff1660e01b8152600401808681526020018573ffffffffffffffffffffffffffffffffffffffff1673ffffffffffffffffffffffffffffffffffffffff16815260200184815260200183815260200182815260200195505050505050600060405180830381600087803b158015610a3757600080fd5b505af1158015610a4b573d6000803e3d6000fd5b5050505060066000848152602001908152602001600020600160066000868152602001908152602001600020805490500381548110610a8657fe5b9060005260206000209060050201600660008581526020019081526020016000208281548110610ab257fe5b9060005260206000209060050201600082015481600001556001820160009054906101000a900473ffffffffffffffffffffffffffffffffffffffff168160010160006101000a81548173ffffffffffffffffffffffffffffffffffffffff021916908373ffffffffffffffffffffffffffffffffffffffff1602179055506002820160009054906101000a900473ffffffffffffffffffffffffffffffffffffffff168160020160006101000a81548173ffffffffffffffffffffffffffffffffffffffff021916908373ffffffffffffffffffffffffffffffffffffffff160217905550600382015481600301556004820154816004015590505060066000848152602001908152602001600020805480919060019003610bd591906136db565b50600760008481526020019081526020016000206000815480929190600190039190505550505050565b60046020528160005260406000208181548110610c1857fe5b9060005260206000209060050201600091509150508060000154908060010154908060020154908060030160009054906101000a900473ffffffffffffffffffffffffffffffffffffffff16908060040160009054906101000a900473ffffffffffffffffffffffffffffffffffffffff16908060040160149054906101000a900460ff16905086565b600080600090505b6004600084815260200190815260200160002080549050811015610d60573373ffffffffffffffffffffffffffffffffffffffff16600460008581526020019081526020016000208281548110610cfd57fe5b906000526020600020906005020160030160009054906101000a900473ffffffffffffffffffffffffffffffffffffffff1673ffffffffffffffffffffffffffffffffffffffff161415610d5357809150610d60565b8080600101915050610caa565b5060008060008060009054906101000a900473ffffffffffffffffffffffffffffffffffffffff1673ffffffffffffffffffffffffffffffffffffffff1663efe7d1ae86336040518363ffffffff1660e01b8152600401808381526020018273ffffffffffffffffffffffffffffffffffffffff1673ffffffffffffffffffffffffffffffffffffffff168152602001925050506101006040518083038186803b158015610e0d57600080fd5b505afa158015610e21573d6000803e3d6000fd5b505050506040513d610100811015610e3857600080fd5b810190808051906020019092919080519060200190929190805190602001909291908051906020019092919080519060200190929190805190602001909291908051906020019092919080519060200190929190505050975097505050509450505060018114610ea757600080fd5b6000600460008781526020019081526020016000208581548110610ec757fe5b906000526020600020906005020160040160146101000a81548160ff02191690836001811115610ef357fe5b02179055506000809054906101000a900473ffffffffffffffffffffffffffffffffffffffff1673ffffffffffffffffffffffffffffffffffffffff166360e73f3a86333360648781610f4257fe5b04880260006040518663ffffffff1660e01b8152600401808681526020018573ffffffffffffffffffffffffffffffffffffffff1673ffffffffffffffffffffffffffffffffffffffff1681526020018473ffffffffffffffffffffffffffffffffffffffff1673ffffffffffffffffffffffffffffffffffffffff16815260200183815260200182815260200195505050505050600060405180830381600087803b158015610ff157600080fd5b505af1158015611005573d6000803e3d6000fd5b505050505050505050565b60056020528060005260406000206000915090505481565b6000806000809054906101000a900473ffffffffffffffffffffffffffffffffffffffff1673ffffffffffffffffffffffffffffffffffffffff1663efe7d1ae86856040518363ffffffff1660e01b8152600401808381526020018273ffffffffffffffffffffffffffffffffffffffff1673ffffffffffffffffffffffffffffffffffffffff168152602001925050506101006040518083038186803b1580156110d257600080fd5b505afa1580156110e6573d6000803e3d6000fd5b505050506040513d6101008110156110fd57600080fd5b81019080805190602001909291908051906020019092919080519060200190929190805190602001909291908051906020019092919080519060200190929190805190602001909291908051906020019092919050505050965050955050505050600081116111d4576040517f08c379a000000000000000000000000000000000000000000000000000000000815260040180806020018281038252601e8152602001807f546861742070726f7065727479206973206e6f7420666f722073616c652e000081525060200191505060405180910390fd5b8173ffffffffffffffffffffffffffffffffffffffff163373ffffffffffffffffffffffffffffffffffffffff161415611276576040517f08c379a000000000000000000000000000000000000000000000000000000000815260040180806020018281038252601b8152602001807f596f7520617265207468652070726f7065727479206f776e657221000000000081525060200191505060405180910390fd5b600084116112ec576040517f08c379a000000000000000000000000000000000000000000000000000000000815260040180806020018281038252601a8152602001807f456e74657220612076616c6964206f666665722076616c75652100000000000081525060200191505060405180910390fd5b6112f461370d565b6040518060c001604052808781526020018381526020018681526020018573ffffffffffffffffffffffffffffffffffffffff1681526020013373ffffffffffffffffffffffffffffffffffffffff1681526020016000600181111561135657fe5b815250905060046000878152602001908152602001600020819080600181540180825580915050906001820390600052602060002090600502016000909192909190915060008201518160000155602082015181600101556040820151816002015560608201518160030160006101000a81548173ffffffffffffffffffffffffffffffffffffffff021916908373ffffffffffffffffffffffffffffffffffffffff16021790555060808201518160040160006101000a81548173ffffffffffffffffffffffffffffffffffffffff021916908373ffffffffffffffffffffffffffffffffffffffff16021790555060a08201518160040160146101000a81548160ff0219169083600181111561146a57fe5b021790555050505060056000878152602001908152602001600020600081548092919060010191905055507fdd3d5f3f2a4384f7dd17ade36c12a2183728757fb4d5bf4fe0d5483a96092f4986838787336000604051808781526020018681526020018581526020018473ffffffffffffffffffffffffffffffffffffffff1673ffffffffffffffffffffffffffffffffffffffff1681526020018373ffffffffffffffffffffffffffffffffffffffff1673ffffffffffffffffffffffffffffffffffffffff16815260200182600181111561154357fe5b60ff168152602001965050505050505060405180910390a1505050505050565b60008060008060009054906101000a900473ffffffffffffffffffffffffffffffffffffffff1673ffffffffffffffffffffffffffffffffffffffff1663efe7d1ae86866040518363ffffffff1660e01b8152600401808381526020018273ffffffffffffffffffffffffffffffffffffffff1673ffffffffffffffffffffffffffffffffffffffff168152602001925050506101006040518083038186803b15801561160f57600080fd5b505afa158015611623573d6000803e3d6000fd5b505050506040513d61010081101561163a57600080fd5b8101908080519060200190929190805190602001909291908051906020019092919080519060200190929190805190602001909291908051906020019092919080519060200190929190805190602001909291905050505096509650509550505050826000809054906101000a900473ffffffffffffffffffffffffffffffffffffffff1673ffffffffffffffffffffffffffffffffffffffff16635f515226336040518263ffffffff1660e01b8152600401808273ffffffffffffffffffffffffffffffffffffffff1673ffffffffffffffffffffffffffffffffffffffff16815260200191505060206040518083038186803b15801561173b57600080fd5b505afa15801561174f573d6000803e3d6000fd5b505050506040513d602081101561176557600080fd5b810190808051906020019092919050505010156117ea576040517f08c379a00000000000000000000000000000000000000000000000000000000081526004018080602001828103825260138152602001807f496e73756666696369656e742066756e6473210000000000000000000000000081525060200191505060405180910390fd5b3373ffffffffffffffffffffffffffffffffffffffff168273ffffffffffffffffffffffffffffffffffffffff161461188b576040517f08c379a00000000000000000000000000000000000000000000000000000000081526004018080602001828103825260168152602001807f596f7520617265206e6f7420746865206275796572210000000000000000000081525060200191505060405180910390fd5b6000809054906101000a900473ffffffffffffffffffffffffffffffffffffffff1673ffffffffffffffffffffffffffffffffffffffff1663d31a95ff8386866040518463ffffffff1660e01b8152600401808473ffffffffffffffffffffffffffffffffffffffff1673ffffffffffffffffffffffffffffffffffffffff1681526020018373ffffffffffffffffffffffffffffffffffffffff1673ffffffffffffffffffffffffffffffffffffffff1681526020018281526020019350505050600060405180830381600087803b15801561196757600080fd5b505af115801561197b573d6000803e3d6000fd5b505050506000809054906101000a900473ffffffffffffffffffffffffffffffffffffffff1673ffffffffffffffffffffffffffffffffffffffff1663793cd3418686336040518463ffffffff1660e01b8152600401808481526020018373ffffffffffffffffffffffffffffffffffffffff1673ffffffffffffffffffffffffffffffffffffffff1681526020018273ffffffffffffffffffffffffffffffffffffffff1673ffffffffffffffffffffffffffffffffffffffff1681526020019350505050600060405180830381600087803b158015611a5b57600080fd5b505af1158015611a6f573d6000803e3d6000fd5b5050505060008090505b6004600087815260200190815260200160002080549050811015611acb5760046000878152602001908152602001600020805480919060019003611abd919061377a565b508080600101915050611a79565b50600060056000878152602001908152602001600020819055507fb840f82d8d2eb1c6318ff5128b9e66fadd61f587c0ca9bbc00b46e0b488defaf85828585604051808581526020018481526020018381526020018273ffffffffffffffffffffffffffffffffffffffff1673ffffffffffffffffffffffffffffffffffffffff16815260200194505050505060405180910390a15050505050565b600080600090505b6007600085815260200190815260200160002054811015611c22578273ffffffffffffffffffffffffffffffffffffffff16600660008681526020019081526020016000208281548110611bbf57fe5b906000526020600020906005020160020160009054906101000a900473ffffffffffffffffffffffffffffffffffffffff1673ffffffffffffffffffffffffffffffffffffffff161415611c1557809150611c22565b8080600101915050611b6f565b50600160009054906101000a900473ffffffffffffffffffffffffffffffffffffffff1673ffffffffffffffffffffffffffffffffffffffff16637779d51e8484600660008881526020019081526020016000208581548110611c8157fe5b906000526020600020906005020160030154600660008981526020019081526020016000208681548110611cb157fe5b90600052602060002090600502016004015460016040518663ffffffff1660e01b8152600401808681526020018573ffffffffffffffffffffffffffffffffffffffff1673ffffffffffffffffffffffffffffffffffffffff16815260200184815260200183815260200182815260200195505050505050600060405180830381600087803b158015611d4357600080fd5b505af1158015611d57573d6000803e3d6000fd5b50505050505050565b60008060009054906101000a900473ffffffffffffffffffffffffffffffffffffffff1673ffffffffffffffffffffffffffffffffffffffff1663efe7d1ae84336040518363ffffffff1660e01b8152600401808381526020018273ffffffffffffffffffffffffffffffffffffffff1673ffffffffffffffffffffffffffffffffffffffff168152602001925050506101006040518083038186803b158015611e0957600080fd5b505afa158015611e1d573d6000803e3d6000fd5b505050506040513d610100811015611e3457600080fd5b81019080805190602001909291908051906020019092919080519060200190929190805190602001909291908051906020019092919080519060200190929190805190602001909291908051906020019092919050505097505050505050505060008114611ea157600080fd5b3373ffffffffffffffffffffffffffffffffffffffff168273ffffffffffffffffffffffffffffffffffffffff161415611f26576040517f08c379a000000000000000000000000000000000000000000000000000000000815260040180806020018281038252602181526020018061394b6021913960400191505060405180910390fd5b600080600090505b6004600086815260200190815260200160002080549050811015611fe4578373ffffffffffffffffffffffffffffffffffffffff16600460008781526020019081526020016000208281548110611f8157fe5b906000526020600020906005020160040160009054906101000a900473ffffffffffffffffffffffffffffffffffffffff1673ffffffffffffffffffffffffffffffffffffffff161415611fd757809150611fe4565b8080600101915050611f2e565b50611fed61370d565b60046000868152602001908152602001600020828154811061200b57fe5b90600052602060002090600502016040518060c00160405290816000820154815260200160018201548152602001600282015481526020016003820160009054906101000a900473ffffffffffffffffffffffffffffffffffffffff1673ffffffffffffffffffffffffffffffffffffffff1673ffffffffffffffffffffffffffffffffffffffff1681526020016004820160009054906101000a900473ffffffffffffffffffffffffffffffffffffffff1673ffffffffffffffffffffffffffffffffffffffff1673ffffffffffffffffffffffffffffffffffffffff1681526020016004820160149054906101000a900460ff16600181111561210c57fe5b600181111561211757fe5b815250509050600160046000878152602001908152602001600020838154811061213d57fe5b906000526020600020906005020160040160146101000a81548160ff0219169083600181111561216957fe5b02179055506000809054906101000a900473ffffffffffffffffffffffffffffffffffffffff1673ffffffffffffffffffffffffffffffffffffffff166360e73f3a863387856040015160016040518663ffffffff1660e01b8152600401808681526020018573ffffffffffffffffffffffffffffffffffffffff1673ffffffffffffffffffffffffffffffffffffffff1681526020018473ffffffffffffffffffffffffffffffffffffffff1673ffffffffffffffffffffffffffffffffffffffff16815260200183815260200182815260200195505050505050600060405180830381600087803b15801561225f57600080fd5b505af1158015612273573d6000803e3d6000fd5b505050505050505050565b600080600090505b600660008581526020019081526020016000208054905081101561233c578273ffffffffffffffffffffffffffffffffffffffff166006600086815260200190815260200160002082815481106122d957fe5b906000526020600020906005020160020160009054906101000a900473ffffffffffffffffffffffffffffffffffffffff1673ffffffffffffffffffffffffffffffffffffffff16141561232f5780915061233c565b8080600101915050612286565b506006600084815260200190815260200160002060016006600086815260200190815260200160002080549050038154811061237457fe5b90600052602060002090600502016006600085815260200190815260200160002082815481106123a057fe5b9060005260206000209060050201600082015481600001556001820160009054906101000a900473ffffffffffffffffffffffffffffffffffffffff168160010160006101000a81548173ffffffffffffffffffffffffffffffffffffffff021916908373ffffffffffffffffffffffffffffffffffffffff1602179055506002820160009054906101000a900473ffffffffffffffffffffffffffffffffffffffff168160020160006101000a81548173ffffffffffffffffffffffffffffffffffffffff021916908373ffffffffffffffffffffffffffffffffffffffff1602179055506003820154816003015560048201548160040155905050600660008481526020019081526020016000208054809190600190036124c391906136db565b50600760008481526020019081526020016000206000815480929190600190039190505550505050565b600080600080600160009054906101000a900473ffffffffffffffffffffffffffffffffffffffff1673ffffffffffffffffffffffffffffffffffffffff16637dbdf3dc866040518263ffffffff1660e01b81526004018082815260200191505060c06040518083038186803b15801561256657600080fd5b505afa15801561257a573d6000803e3d6000fd5b505050506040513d60c081101561259057600080fd5b81019080805190602001909291908051906020019092919080519060200190929190805190602001909291908051906020019092919080519060200190929190505050509450945094509450503373ffffffffffffffffffffffffffffffffffffffff168373ffffffffffffffffffffffffffffffffffffffff1614612661576040517f08c379a00000000000000000000000000000000000000000000000000000000081526004018080602001828103825260258152602001806139266025913960400191505060405180910390fd5b600160009054906101000a900473ffffffffffffffffffffffffffffffffffffffff1673ffffffffffffffffffffffffffffffffffffffff1663d31a95ff8486856040518463ffffffff1660e01b8152600401808473ffffffffffffffffffffffffffffffffffffffff1673ffffffffffffffffffffffffffffffffffffffff1681526020018373ffffffffffffffffffffffffffffffffffffffff1673ffffffffffffffffffffffffffffffffffffffff1681526020018281526020019350505050600060405180830381600087803b15801561273e57600080fd5b505af1158015612752573d6000803e3d6000fd5b50505050600160009054906101000a900473ffffffffffffffffffffffffffffffffffffffff1673ffffffffffffffffffffffffffffffffffffffff16637779d51e8685858560026040518663ffffffff1660e01b8152600401808681526020018573ffffffffffffffffffffffffffffffffffffffff1673ffffffffffffffffffffffffffffffffffffffff16815260200184815260200183815260200182815260200195505050505050600060405180830381600087803b15801561281857600080fd5b505af115801561282c573d6000803e3d6000fd5b50505050600160009054906101000a900473ffffffffffffffffffffffffffffffffffffffff1673ffffffffffffffffffffffffffffffffffffffff16634565f482868560026040518463ffffffff1660e01b8152600401808481526020018373ffffffffffffffffffffffffffffffffffffffff1673ffffffffffffffffffffffffffffffffffffffff1681526020018281526020019350505050600060405180830381600087803b1580156128e257600080fd5b505af11580156128f6573d6000803e3d6000fd5b5050505060008090505b600760008781526020019081526020016000205481101561294f576006600087815260200190815260200160002080548091906001900361294191906136db565b508080600101915050612900565b50600060076000878152602001908152602001600020819055505050505050565b6000806000806000809054906101000a900473ffffffffffffffffffffffffffffffffffffffff1673ffffffffffffffffffffffffffffffffffffffff1663efe7d1ae87876040518363ffffffff1660e01b8152600401808381526020018273ffffffffffffffffffffffffffffffffffffffff1673ffffffffffffffffffffffffffffffffffffffff168152602001925050506101006040518083038186803b158015612a1d57600080fd5b505afa158015612a31573d6000803e3d6000fd5b505050506040513d610100811015612a4857600080fd5b8101908080519060200190929190805190602001909291908051906020019092919080519060200190929190805190602001909291908051906020019092919080519060200190929190805190602001909291905050509750975097505050955050506000811480612aba5750600181145b612ac357600080fd5b600080600090505b6004600089815260200190815260200160002080549050811015612b81573373ffffffffffffffffffffffffffffffffffffffff16600460008a81526020019081526020016000208281548110612b1e57fe5b906000526020600020906005020160040160009054906101000a900473ffffffffffffffffffffffffffffffffffffffff1673ffffffffffffffffffffffffffffffffffffffff161415612b7457809150612b81565b8080600101915050612acb565b50600460008881526020019081526020016000206001600460008a8152602001908152602001600020805490500381548110612bb957fe5b9060005260206000209060050201600460008981526020019081526020016000208281548110612be557fe5b90600052602060002090600502016000820154816000015560018201548160010155600282015481600201556003820160009054906101000a900473ffffffffffffffffffffffffffffffffffffffff168160030160006101000a81548173ffffffffffffffffffffffffffffffffffffffff021916908373ffffffffffffffffffffffffffffffffffffffff1602179055506004820160009054906101000a900473ffffffffffffffffffffffffffffffffffffffff168160040160006101000a81548173ffffffffffffffffffffffffffffffffffffffff021916908373ffffffffffffffffffffffffffffffffffffffff1602179055506004820160149054906101000a900460ff168160040160146101000a81548160ff02191690836001811115612d1057fe5b021790555090505060046000888152602001908152602001600020805480919060019003612d3e919061377a565b50600560008881526020019081526020016000206000815480929190600190039190505550600182148015612d9e57503373ffffffffffffffffffffffffffffffffffffffff168473ffffffffffffffffffffffffffffffffffffffff16145b15612eb5576000809054906101000a900473ffffffffffffffffffffffffffffffffffffffff1673ffffffffffffffffffffffffffffffffffffffff166360e73f3a88888960648881612ded57fe5b048a0260006040518663ffffffff1660e01b8152600401808681526020018573ffffffffffffffffffffffffffffffffffffffff1673ffffffffffffffffffffffffffffffffffffffff1681526020018473ffffffffffffffffffffffffffffffffffffffff1673ffffffffffffffffffffffffffffffffffffffff16815260200183815260200182815260200195505050505050600060405180830381600087803b158015612e9c57600080fd5b505af1158015612eb0573d6000803e3d6000fd5b505050505b50505050505050565b60008060009054906101000a900473ffffffffffffffffffffffffffffffffffffffff1673ffffffffffffffffffffffffffffffffffffffff1663efe7d1ae84336040518363ffffffff1660e01b8152600401808381526020018273ffffffffffffffffffffffffffffffffffffffff1673ffffffffffffffffffffffffffffffffffffffff168152602001925050506101006040518083038186803b158015612f6757600080fd5b505afa158015612f7b573d6000803e3d6000fd5b505050506040513d610100811015612f9257600080fd5b8101908080519060200190929190805190602001909291908051906020019092919080519060200190929190805190602001909291908051906020019092919080519060200190929190805190602001909291905050505050955050505050508173ffffffffffffffffffffffffffffffffffffffff168173ffffffffffffffffffffffffffffffffffffffff161415613094576040517f08c379a000000000000000000000000000000000000000000000000000000000815260040180806020018281038252601c8152602001807f416c72656164792061636365707465642074686973206f66666572210000000081525060200191505060405180910390fd5b600080600090505b6004600086815260200190815260200160002080549050811015613152578373ffffffffffffffffffffffffffffffffffffffff166004600087815260200190815260200160002082815481106130ef57fe5b906000526020600020906005020160040160009054906101000a900473ffffffffffffffffffffffffffffffffffffffff1673ffffffffffffffffffffffffffffffffffffffff16141561314557809150613152565b808060010191505061309c565b506004600085815260200190815260200160002060016004600087815260200190815260200160002080549050038154811061318a57fe5b90600052602060002090600502016004600086815260200190815260200160002082815481106131b657fe5b90600052602060002090600502016000820154816000015560018201548160010155600282015481600201556003820160009054906101000a900473ffffffffffffffffffffffffffffffffffffffff168160030160006101000a81548173ffffffffffffffffffffffffffffffffffffffff021916908373ffffffffffffffffffffffffffffffffffffffff1602179055506004820160009054906101000a900473ffffffffffffffffffffffffffffffffffffffff168160040160006101000a81548173ffffffffffffffffffffffffffffffffffffffff021916908373ffffffffffffffffffffffffffffffffffffffff1602179055506004820160149054906101000a900460ff168160040160146101000a81548160ff021916908360018111156132e157fe5b02179055509050506004600085815260200190815260200160002080548091906001900361330f919061377a565b5060056000858152602001908152602001600020600081548092919060019003919050555050505050565b600080600080600160009054906101000a900473ffffffffffffffffffffffffffffffffffffffff1673ffffffffffffffffffffffffffffffffffffffff1663af877a00866040518263ffffffff1660e01b8152600401808281526020019150506101206040518083038186803b1580156133b457600080fd5b505afa1580156133c8573d6000803e3d6000fd5b505050506040513d6101208110156133df57600080fd5b8101908080519060200190929190805190602001909291908051906020019092919080519060200190929190805190602001909291908051906020019092919080519060200190929190805190602001909291908051906020019092919050505098505050965096505095505050600181146134c3576040517f08c379a000000000000000000000000000000000000000000000000000000000815260040180806020018281038252601e8152602001807f4c6f616e20686173206e6f74206265656e206170706c69656420666f7221000081525060200191505060405180910390fd5b3373ffffffffffffffffffffffffffffffffffffffff168473ffffffffffffffffffffffffffffffffffffffff161415613565576040517f08c379a000000000000000000000000000000000000000000000000000000000815260040180806020018281038252601e8152602001807f596f752063616e6e6f74206c656e6420746f20796f757273656c662e2e2e000081525060200191505060405180910390fd5b61356d6137ac565b6040518060a001604052808781526020018673ffffffffffffffffffffffffffffffffffffffff1681526020013373ffffffffffffffffffffffffffffffffffffffff1681526020018581526020018481525090506006600087815260200190815260200160002081908060018154018082558091505090600182039060005260206000209060050201600090919290919091506000820151816000015560208201518160010160006101000a81548173ffffffffffffffffffffffffffffffffffffffff021916908373ffffffffffffffffffffffffffffffffffffffff16021790555060408201518160020160006101000a81548173ffffffffffffffffffffffffffffffffffffffff021916908373ffffffffffffffffffffffffffffffffffffffff16021790555060608201518160030155608082015181600401555050506007600087815260200190815260200160002060008154809291906001019190505550505050505050565b815481835581811115613708576005028160050283600052602060002091820191016137079190613807565b5b505050565b6040518060c00160405280600081526020016000815260200160008152602001600073ffffffffffffffffffffffffffffffffffffffff168152602001600073ffffffffffffffffffffffffffffffffffffffff1681526020016000600181111561377457fe5b81525090565b8154818355818111156137a7576005028160050283600052602060002091820191016137a6919061388c565b5b505050565b6040518060a0016040528060008152602001600073ffffffffffffffffffffffffffffffffffffffff168152602001600073ffffffffffffffffffffffffffffffffffffffff16815260200160008152602001600081525090565b61388991905b80821115613885576000808201600090556001820160006101000a81549073ffffffffffffffffffffffffffffffffffffffff02191690556002820160006101000a81549073ffffffffffffffffffffffffffffffffffffffff0219169055600382016000905560048201600090555060050161380d565b5090565b90565b61392291905b8082111561391e57600080820160009055600182016000905560028201600090556003820160006101000a81549073ffffffffffffffffffffffffffffffffffffffff02191690556004820160006101000a81549073ffffffffffffffffffffffffffffffffffffffff02191690556004820160146101000a81549060ff021916905550600501613892565b5090565b9056fe596f7520617265206e6f7420746865206c656e64657220666f722074686973206c6f616e21596f752063616e6e6f742061636365707420796f7572206f776e206f6666657221a265627a7a7231582003d66c8a468b0dc3e9638d9e34ef9770548e1467d865509142f96567b13dab4b64736f6c63430005100032",
  "source": "pragma solidity ^0.5.0;\r\nimport \"./Props.sol\";\r\nimport \"./Loans.sol\";\r\n\r\ncontract Marketplace {\r\n\r\n    Props propsContract;\r\n    Loans loansContract;\r\n    uint256 commissionFee;\r\n    address _owner = msg.sender;\r\n    enum PropEscrowState {NONE, AWAITING_PAYMENT, AWAITING_TRANSFER, COMPLETE}\r\n    struct PropEscrow {\r\n        uint propID;\r\n        uint percentage;\r\n        uint value;\r\n        uint amount;\r\n        address payable stakeOwner;\r\n        address payable buyer;\r\n        uint salePercent;\r\n        PropEscrowState currState;\r\n    }\r\n    enum PropOfferState {NONE, IN_PROCESS}\r\n    struct PropOffer {\r\n        uint propID;\r\n        uint percentage;\r\n        uint amount;\r\n        address payable stakeOwner;\r\n        address payable buyer;\r\n        PropOfferState currState;\r\n    }\r\n    \r\n    enum loanState {NONE, APPLIED, IN_FORCE, COMPLETE}\r\n    struct Loan {\r\n        uint loanID;\r\n        uint propID;\r\n        address payable buyer;\r\n        address payable provider;\r\n        uint amount;\r\n        uint duration;\r\n        uint balamount;\r\n        uint balduration;\r\n        loanState currState;\r\n    }\r\n    enum loanEscrowState {NONE, ACCEPTED, DISBURSED, COMPLETE}\r\n    struct LoanEscrow {\r\n        uint loanID;\r\n        address payable buyer;\r\n        address payable provider;\r\n        uint amount;\r\n        uint duration;\r\n        loanEscrowState currState;\r\n    }\r\n    struct LoanOffer {\r\n        uint loanID;\r\n        address payable buyer;\r\n        address payable provider;\r\n        uint amount;\r\n        uint duration;\r\n    }\r\n\r\n    mapping(uint => PropOffer[]) public allPropOffers;\r\n    mapping(uint => uint) public countPropOffers;\r\n    mapping(uint => LoanOffer[]) public allLoanOffers;\r\n    mapping(uint => uint) public countLoanOffers;\r\n\r\n    event CreatedPropOffer(uint _propID, uint _percentage, uint _amount, address payable _stakeOwner, address payable _buyer, PropOfferState _currState);\r\n    event PurchasedStake(uint _propID, uint _percentage, uint _amount, address payable _stakeOwner);\r\n\r\n    constructor (Props propsAddress, Loans loansAddress, uint256 fee) public {\r\n        propsContract = propsAddress;\r\n        loansContract = loansAddress;\r\n        commissionFee = fee;\r\n    }\r\n\r\n    //For potential buyers to make offers\r\n    function makeOffer(uint _propID, uint _amount, address payable _stakeOwner) public {\r\n\r\n        ( , , , , address payable own, , uint sale, ) = propsContract.findPropEscrow(_propID, _stakeOwner);\r\n\r\n        require(sale > 0, \"That property is not for sale.\");\r\n        require(msg.sender != own, 'You are the property owner!');\r\n        require(_amount > 0, 'Enter a valid offer value!');\r\n\r\n        PropOffer memory myOffer = PropOffer({\r\n            propID: _propID,\r\n            percentage: sale,\r\n            amount: _amount,\r\n            stakeOwner: _stakeOwner,\r\n            buyer: msg.sender,\r\n            currState: PropOfferState.NONE\r\n        });\r\n        allPropOffers[_propID].push(myOffer);\r\n        countPropOffers[_propID]++;\r\n\r\n        emit CreatedPropOffer(_propID, sale, _amount, _stakeOwner, msg.sender, PropOfferState.NONE);\r\n    }\r\n\r\n    //For sellers to accept the offer of their choice\r\n    function acceptOffer(uint _propID, address payable _buyer) public {\r\n\r\n        ( , , , , , , , uint stat) = propsContract.findPropEscrow(_propID, msg.sender);\r\n        require(stat == 0);\r\n        require(_buyer != msg.sender, \"You cannot accept your own offer!\");\r\n\r\n        uint index;\r\n        for(uint i=0; i<allPropOffers[_propID].length; i++) {\r\n            if(allPropOffers[_propID][i].buyer == _buyer) {\r\n                index = i;\r\n                break;\r\n            }\r\n        }\r\n        PropOffer memory myOffer = allPropOffers[_propID][index];\r\n        // Update offer status\r\n        allPropOffers[_propID][index].currState = PropOfferState.IN_PROCESS;\r\n\r\n        // Update escrow\r\n        propsContract.updatePropEscrowStatus(_propID, msg.sender, _buyer, myOffer.amount, 1);\r\n    }\r\n\r\n    //For the seller to reject offers.\r\n    function rejectOffer(uint _propID, address payable _buyer) public {\r\n\r\n        ( , , , , , address payable buy, , ) = propsContract.findPropEscrow(_propID, msg.sender);\r\n        require(buy != _buyer, \"Already accepted this offer!\");\r\n\r\n        uint index;\r\n        for(uint i=0; i<allPropOffers[_propID].length; i++) {\r\n            if(allPropOffers[_propID][i].buyer == _buyer) {\r\n                index = i;\r\n                break;\r\n            }\r\n        }\r\n        //Remove offer\r\n        allPropOffers[_propID][index] = allPropOffers[_propID][(allPropOffers[_propID].length-1)];\r\n        allPropOffers[_propID].length--;\r\n        countPropOffers[_propID]--;\r\n    }\r\n\r\n    //For the buyer to back out of offers, even if they have been accepted by seller. Must be before payment. Resets escrow.\r\n    function cancelOffer(uint _propID, address payable _stakeOwner) public {\r\n        ( , , uint val, , , address payable buy, uint sale, uint stat) = propsContract.findPropEscrow(_propID, _stakeOwner);\r\n        require(stat == 0 || stat == 1);\r\n\r\n        uint index;\r\n        for(uint i=0; i<allPropOffers[_propID].length; i++) {\r\n            if(allPropOffers[_propID][i].buyer == msg.sender) {\r\n                index = i;\r\n                break;\r\n            }\r\n        }\r\n        //Remove offer\r\n        allPropOffers[_propID][index] = allPropOffers[_propID][(allPropOffers[_propID].length-1)];\r\n        allPropOffers[_propID].length--;\r\n        countPropOffers[_propID]--;\r\n\r\n        //If buyer is cancelling an offer that has already been accepted by a seller.\r\n        if (stat == 1 && buy == msg.sender) {\r\n            //Reset the fields in the escrow.\r\n            propsContract.updatePropEscrowStatus(_propID, _stakeOwner, _stakeOwner, val*(sale/100), 0);\r\n        }\r\n    }\r\n\r\n    //For the seller to back out of offers before payment. Will not remove the related offer.\r\n    function cancelDeal(uint _propID) public {\r\n        uint index;\r\n        for(uint i=0; i<allPropOffers[_propID].length; i++) {\r\n            if(allPropOffers[_propID][i].stakeOwner == msg.sender) {\r\n                index = i;\r\n                break;\r\n            }\r\n        }\r\n        ( , , uint val, , , , uint sale, uint stat) = propsContract.findPropEscrow(_propID, msg.sender);\r\n        require(stat == 1);\r\n        // Reset offer status\r\n        allPropOffers[_propID][index].currState = PropOfferState.NONE;\r\n        // Reset the fields in the escrow.\r\n        propsContract.updatePropEscrowStatus(_propID, msg.sender, msg.sender, val*(sale/100), 0);\r\n    }\r\n\r\n    //For buyers to complete the sale after their offer is accepted by the seller\r\n    function purchaseProperty(uint _propID, address payable _stakeOwner) public {\r\n        (, , , uint amt, , address payable _buyer, uint sale, ) = propsContract.findPropEscrow(_propID, _stakeOwner);\r\n        require(propsContract.checkBalance(msg.sender) >= amt, \"Insufficient funds!\");\r\n        //make payment\r\n        require(_buyer == msg.sender, \"You are not the buyer!\");\r\n        propsContract.transferMWT(_buyer, _stakeOwner, amt);\r\n        //transfer property\r\n        propsContract.transferPropEscrow(_propID, _stakeOwner, msg.sender);\r\n\r\n        //Set loan escrow status if required\r\n        //for(uint j=0; j<totalLoansCounter; j++) {\r\n        //    if(allLoans[j].propID == _propID) {\r\n        //        allLoanEscrows[j].currState = loanEscrowState.COMPLETE;\r\n        //    }\r\n        //}\r\n\r\n        //Remove all offers on the property\r\n        for(uint i=0; i<allPropOffers[_propID].length; i++) {\r\n            allPropOffers[_propID].length--;\r\n        }\r\n        countPropOffers[_propID] = 0;\r\n        emit PurchasedStake(_propID, sale, amt, _buyer);\r\n    }\r\n\r\n    //Loans\r\n    //For potential lenders to offer loans based on the requests\r\n    function offerLoan(uint _loanID) public {\r\n        ( , , address payable buyr, , uint amnt, uint durn, , , uint stat) = loansContract.findLoan(_loanID);\r\n        require(stat == 1, \"Loan has not been applied for!\");\r\n        require(buyr != msg.sender, \"You cannot lend to yourself...\");\r\n        LoanOffer memory myLoanOffer = LoanOffer({\r\n            loanID: _loanID,\r\n            buyer: buyr,\r\n            provider: msg.sender,\r\n            amount: amnt,\r\n            duration: durn\r\n        });\r\n        allLoanOffers[_loanID].push(myLoanOffer);\r\n        countLoanOffers[_loanID]++;\r\n    }\r\n\r\n    //For borrowers to accept the loan of their choice\r\n    function acceptLoan(uint _loanID, address payable _provider) public {\r\n        uint index;\r\n        for(uint i=0; i<countLoanOffers[_loanID]; i++) {\r\n            if(allLoanOffers[_loanID][i].provider == _provider) {\r\n                index = i;\r\n                break;\r\n            }\r\n        }\r\n        loansContract.updateLoanEscrow(_loanID, _provider, allLoanOffers[_loanID][index].amount, allLoanOffers[_loanID][index].duration, 1);\r\n    }\r\n\r\n    //For lenders to disburse the funds after the borrower accepts their loan offer\r\n    function disburseLoan(uint _loanID) public payable {\r\n        ( , address payable buyr, address payable prov, uint amnt, uint durn, ) = loansContract.findLoanEscrow(_loanID);\r\n        require(prov == msg.sender, \"You are not the lender for this loan!\");\r\n        loansContract.transferMWT(prov, buyr, amnt);\r\n\r\n        //update loan escrow\r\n        loansContract.updateLoanEscrow(_loanID, prov, amnt, durn, 2);\r\n        \r\n        //update loan\r\n        loansContract.updateLoan(_loanID, prov, 2);\r\n        \r\n        //remove all other loan offers\r\n        for(uint i=0; i<countLoanOffers[_loanID]; i++) {\r\n            allLoanOffers[_loanID].length--;\r\n        }\r\n        countLoanOffers[_loanID] = 0;  \r\n    }\r\n\r\n    //For borrowers to reject loan offers\r\n    function refuseLoan(uint _loanID, address payable _provider) public {\r\n        uint index;\r\n        for(uint i=0; i<allLoanOffers[_loanID].length; i++) {\r\n            if(allLoanOffers[_loanID][i].provider == _provider) {\r\n                index = i;\r\n                break;\r\n            }\r\n        }\r\n\r\n        allLoanOffers[_loanID][index] = allLoanOffers[_loanID][(allLoanOffers[_loanID].length-1)];\r\n        allLoanOffers[_loanID].length--;\r\n        countLoanOffers[_loanID]--;\r\n    }\r\n\r\n    //For lenders to pull out of loan offers after they have been accepted\r\n    function denyLoan(uint _loanID, address payable _provider) public {\r\n        require(_provider == msg.sender, \"You are not the lender!\");\r\n\r\n        uint index;\r\n        for(uint i=0; i<allLoanOffers[_loanID].length; i++) {\r\n            if(allLoanOffers[_loanID][i].provider == _provider) {\r\n                index = i;\r\n                break;\r\n            }\r\n        }\r\n\r\n        //update loan escrow\r\n        loansContract.updateLoanEscrow(_loanID, allLoanOffers[_loanID][index].buyer, allLoanOffers[_loanID][index].amount, allLoanOffers[_loanID][index].duration, 0);\r\n\r\n        //remove loan offer\r\n        allLoanOffers[_loanID][index] = allLoanOffers[_loanID][(allLoanOffers[_loanID].length-1)];\r\n        allLoanOffers[_loanID].length--;\r\n        countLoanOffers[_loanID]--;\r\n    \r\n    }\r\n\r\n}",
  "sourcePath": "C:/Users/arvin/Documents/1Personal/Education/Masters/middlewhere/src/contracts/Marketplace.sol",
  "compiler": {
    "name": "solc",
    "version": "0.5.16+commit.9c3226ce.Emscripten.clang"
  },
  "schemaVersion": "3.2.3",
  "updatedAt": "2022-03-03T21:27:27.593Z",
  "networkType": "ethereum",
  "devdoc": {
    "methods": {}
  },
  "userdoc": {
    "methods": {}
  }
}