{
  "contractName": "Props",
  "abi": [
    {
      "inputs": [
        {
          "internalType": "contract MWToken",
          "name": "mwtAddress",
          "type": "address"
        }
      ],
      "payable": false,
      "stateMutability": "nonpayable",
      "type": "constructor"
    },
    {
      "anonymous": false,
      "inputs": [
        {
          "indexed": false,
          "internalType": "uint256",
          "name": "_propID",
          "type": "uint256"
        },
        {
          "indexed": false,
          "internalType": "uint256",
          "name": "_percentage",
          "type": "uint256"
        },
        {
          "indexed": false,
          "internalType": "uint256",
          "name": "_value",
          "type": "uint256"
        },
        {
          "indexed": false,
          "internalType": "uint256",
          "name": "_amount",
          "type": "uint256"
        },
        {
          "indexed": false,
          "internalType": "address payable",
          "name": "_propOwner",
          "type": "address"
        },
        {
          "indexed": false,
          "internalType": "address payable",
          "name": "_buyer",
          "type": "address"
        },
        {
          "indexed": false,
          "internalType": "uint256",
          "name": "_salePercent",
          "type": "uint256"
        },
        {
          "indexed": false,
          "internalType": "enum Props.PropEscrowState",
          "name": "_currState",
          "type": "uint8"
        }
      ],
      "name": "CreatedPropEscrow",
      "type": "event"
    },
    {
      "anonymous": false,
      "inputs": [
        {
          "indexed": false,
          "internalType": "uint256",
          "name": "_propID",
          "type": "uint256"
        },
        {
          "indexed": false,
          "internalType": "string",
          "name": "_propTitle",
          "type": "string"
        },
        {
          "indexed": false,
          "internalType": "string",
          "name": "_propAddress",
          "type": "string"
        },
        {
          "indexed": false,
          "internalType": "string",
          "name": "_propDescription",
          "type": "string"
        },
        {
          "indexed": false,
          "internalType": "string",
          "name": "_imgURL",
          "type": "string"
        },
        {
          "indexed": false,
          "internalType": "uint256",
          "name": "_accounted",
          "type": "uint256"
        }
      ],
      "name": "CreatedProperty",
      "type": "event"
    },
    {
      "constant": true,
      "inputs": [
        {
          "internalType": "uint256",
          "name": "",
          "type": "uint256"
        },
        {
          "internalType": "uint256",
          "name": "",
          "type": "uint256"
        }
      ],
      "name": "allPropEscrows",
      "outputs": [
        {
          "internalType": "uint256",
          "name": "propID",
          "type": "uint256"
        },
        {
          "internalType": "uint256",
          "name": "percentage",
          "type": "uint256"
        },
        {
          "internalType": "uint256",
          "name": "value",
          "type": "uint256"
        },
        {
          "internalType": "uint256",
          "name": "amount",
          "type": "uint256"
        },
        {
          "internalType": "address payable",
          "name": "stakeOwner",
          "type": "address"
        },
        {
          "internalType": "address payable",
          "name": "buyer",
          "type": "address"
        },
        {
          "internalType": "uint256",
          "name": "salePercent",
          "type": "uint256"
        },
        {
          "internalType": "enum Props.PropEscrowState",
          "name": "currState",
          "type": "uint8"
        }
      ],
      "payable": false,
      "stateMutability": "view",
      "type": "function"
    },
    {
      "constant": true,
      "inputs": [
        {
          "internalType": "uint256",
          "name": "",
          "type": "uint256"
        }
      ],
      "name": "allProperty",
      "outputs": [
        {
          "internalType": "uint256",
          "name": "propID",
          "type": "uint256"
        },
        {
          "internalType": "string",
          "name": "propTitle",
          "type": "string"
        },
        {
          "internalType": "string",
          "name": "propAddress",
          "type": "string"
        },
        {
          "internalType": "string",
          "name": "propDescription",
          "type": "string"
        },
        {
          "internalType": "string",
          "name": "imgURL",
          "type": "string"
        },
        {
          "internalType": "uint256",
          "name": "accounted",
          "type": "uint256"
        }
      ],
      "payable": false,
      "stateMutability": "view",
      "type": "function"
    },
    {
      "constant": true,
      "inputs": [
        {
          "internalType": "uint256",
          "name": "",
          "type": "uint256"
        }
      ],
      "name": "countPropEscrows",
      "outputs": [
        {
          "internalType": "uint256",
          "name": "",
          "type": "uint256"
        }
      ],
      "payable": false,
      "stateMutability": "view",
      "type": "function"
    },
    {
      "constant": true,
      "inputs": [],
      "name": "totalPropertyCounter",
      "outputs": [
        {
          "internalType": "uint256",
          "name": "",
          "type": "uint256"
        }
      ],
      "payable": false,
      "stateMutability": "view",
      "type": "function"
    },
    {
      "constant": false,
      "inputs": [
        {
          "internalType": "uint256",
          "name": "_propID",
          "type": "uint256"
        },
        {
          "internalType": "uint256",
          "name": "_percentage",
          "type": "uint256"
        },
        {
          "internalType": "uint256",
          "name": "_value",
          "type": "uint256"
        },
        {
          "internalType": "address payable",
          "name": "_owner",
          "type": "address"
        },
        {
          "internalType": "address payable",
          "name": "_buyer",
          "type": "address"
        }
      ],
      "name": "addPropEscrow",
      "outputs": [],
      "payable": false,
      "stateMutability": "nonpayable",
      "type": "function"
    },
    {
      "constant": false,
      "inputs": [
        {
          "internalType": "string",
          "name": "_propTitle",
          "type": "string"
        },
        {
          "internalType": "string",
          "name": "_propAddress",
          "type": "string"
        },
        {
          "internalType": "string",
          "name": "_propDescription",
          "type": "string"
        },
        {
          "internalType": "uint256",
          "name": "_percentage",
          "type": "uint256"
        },
        {
          "internalType": "uint256",
          "name": "_value",
          "type": "uint256"
        },
        {
          "internalType": "string",
          "name": "_imgURL",
          "type": "string"
        }
      ],
      "name": "addProperty",
      "outputs": [],
      "payable": false,
      "stateMutability": "nonpayable",
      "type": "function"
    },
    {
      "constant": false,
      "inputs": [
        {
          "internalType": "uint256",
          "name": "_propID",
          "type": "uint256"
        },
        {
          "internalType": "string",
          "name": "_propTitle",
          "type": "string"
        },
        {
          "internalType": "string",
          "name": "_propDescription",
          "type": "string"
        },
        {
          "internalType": "uint256",
          "name": "_value",
          "type": "uint256"
        },
        {
          "internalType": "uint256",
          "name": "_salePercent",
          "type": "uint256"
        },
        {
          "internalType": "string",
          "name": "_imgURL",
          "type": "string"
        }
      ],
      "name": "editProperty",
      "outputs": [],
      "payable": false,
      "stateMutability": "nonpayable",
      "type": "function"
    },
    {
      "constant": true,
      "inputs": [
        {
          "internalType": "uint256",
          "name": "_propID",
          "type": "uint256"
        }
      ],
      "name": "getPropertyDetails",
      "outputs": [
        {
          "internalType": "uint256",
          "name": "",
          "type": "uint256"
        },
        {
          "internalType": "string",
          "name": "",
          "type": "string"
        },
        {
          "internalType": "string",
          "name": "",
          "type": "string"
        },
        {
          "internalType": "string",
          "name": "",
          "type": "string"
        },
        {
          "internalType": "string",
          "name": "",
          "type": "string"
        }
      ],
      "payable": false,
      "stateMutability": "view",
      "type": "function"
    },
    {
      "constant": true,
      "inputs": [],
      "name": "getOwnersPropertyCount",
      "outputs": [
        {
          "internalType": "uint256",
          "name": "",
          "type": "uint256"
        }
      ],
      "payable": false,
      "stateMutability": "view",
      "type": "function"
    },
    {
      "constant": true,
      "inputs": [
        {
          "internalType": "address",
          "name": "_user",
          "type": "address"
        }
      ],
      "name": "checkBalance",
      "outputs": [
        {
          "internalType": "uint256",
          "name": "",
          "type": "uint256"
        }
      ],
      "payable": false,
      "stateMutability": "view",
      "type": "function"
    },
    {
      "constant": true,
      "inputs": [
        {
          "internalType": "uint256",
          "name": "_propID",
          "type": "uint256"
        },
        {
          "internalType": "address",
          "name": "_owner",
          "type": "address"
        }
      ],
      "name": "findPropEscrow",
      "outputs": [
        {
          "internalType": "uint256",
          "name": "",
          "type": "uint256"
        },
        {
          "internalType": "uint256",
          "name": "",
          "type": "uint256"
        },
        {
          "internalType": "uint256",
          "name": "",
          "type": "uint256"
        },
        {
          "internalType": "uint256",
          "name": "",
          "type": "uint256"
        },
        {
          "internalType": "address payable",
          "name": "",
          "type": "address"
        },
        {
          "internalType": "address payable",
          "name": "",
          "type": "address"
        },
        {
          "internalType": "uint256",
          "name": "",
          "type": "uint256"
        },
        {
          "internalType": "uint256",
          "name": "",
          "type": "uint256"
        }
      ],
      "payable": false,
      "stateMutability": "view",
      "type": "function"
    },
    {
      "constant": false,
      "inputs": [
        {
          "internalType": "uint256",
          "name": "_propID",
          "type": "uint256"
        },
        {
          "internalType": "address",
          "name": "_user",
          "type": "address"
        },
        {
          "internalType": "address payable",
          "name": "_buyer",
          "type": "address"
        },
        {
          "internalType": "uint256",
          "name": "_amt",
          "type": "uint256"
        },
        {
          "internalType": "uint256",
          "name": "_status",
          "type": "uint256"
        }
      ],
      "name": "updatePropEscrowStatus",
      "outputs": [],
      "payable": false,
      "stateMutability": "nonpayable",
      "type": "function"
    },
    {
      "constant": false,
      "inputs": [
        {
          "internalType": "uint256",
          "name": "_propID",
          "type": "uint256"
        },
        {
          "internalType": "address payable",
          "name": "_from",
          "type": "address"
        },
        {
          "internalType": "address payable",
          "name": "_to",
          "type": "address"
        }
      ],
      "name": "transferPropEscrow",
      "outputs": [],
      "payable": false,
      "stateMutability": "nonpayable",
      "type": "function"
    },
    {
      "constant": false,
      "inputs": [
        {
          "internalType": "address",
          "name": "_from",
          "type": "address"
        },
        {
          "internalType": "address",
          "name": "_to",
          "type": "address"
        },
        {
          "internalType": "uint256",
          "name": "_amt",
          "type": "uint256"
        }
      ],
      "name": "transferMWT",
      "outputs": [],
      "payable": false,
      "stateMutability": "nonpayable",
      "type": "function"
    }
  ],
  "bytecode": "0x6080604052600060015534801561001557600080fd5b506040516133723803806133728339818101604052602081101561003857600080fd5b8101908080519060200190929190505050806000806101000a81548173ffffffffffffffffffffffffffffffffffffffff021916908373ffffffffffffffffffffffffffffffffffffffff160217905550506132d9806100996000396000f3fe608060405234801561001057600080fd5b50600436106100ea5760003560e01c8063793cd3411161008c578063d31a95ff11610066578063d31a95ff14610b9f578063efe7d1ae14610c0d578063f0e78b2b14610cf8578063fdde5af914610d16576100ea565b8063793cd341146108e85780638785388b14610956578063b053c10914610998576100ea565b80635f515226116100c85780635f5152261461055c57806360e73f3a146105b45780636f4bab6414610636578063739b1fa2146108ca576100ea565b8063048ede58146100ef578063126dbe43146102e8578063552de21c146104da575b600080fd5b61011b6004803603602081101561010557600080fd5b8101908080359060200190929190505050610df9565b604051808781526020018060200180602001806020018060200186815260200185810385528a818151815260200191508051906020019080838360005b83811015610173578082015181840152602081019050610158565b50505050905090810190601f1680156101a05780820380516001836020036101000a031916815260200191505b50858103845289818151815260200191508051906020019080838360005b838110156101d95780820151818401526020810190506101be565b50505050905090810190601f1680156102065780820380516001836020036101000a031916815260200191505b50858103835288818151815260200191508051906020019080838360005b8381101561023f578082015181840152602081019050610224565b50505050905090810190601f16801561026c5780820380516001836020036101000a031916815260200191505b50858103825287818151815260200191508051906020019080838360005b838110156102a557808201518184015260208101905061028a565b50505050905090810190601f1680156102d25780820380516001836020036101000a031916815260200191505b509a505050505050505050505060405180910390f35b610314600480360360208110156102fe57600080fd5b8101908080359060200190929190505050611095565b6040518086815260200180602001806020018060200180602001858103855289818151815260200191508051906020019080838360005b8381101561036657808201518184015260208101905061034b565b50505050905090810190601f1680156103935780820380516001836020036101000a031916815260200191505b50858103845288818151815260200191508051906020019080838360005b838110156103cc5780820151818401526020810190506103b1565b50505050905090810190601f1680156103f95780820380516001836020036101000a031916815260200191505b50858103835287818151815260200191508051906020019080838360005b83811015610432578082015181840152602081019050610417565b50505050905090810190601f16801561045f5780820380516001836020036101000a031916815260200191505b50858103825286818151815260200191508051906020019080838360005b8381101561049857808201518184015260208101905061047d565b50505050905090810190601f1680156104c55780820380516001836020036101000a031916815260200191505b50995050505050505050505060405180910390f35b61055a600480360360a08110156104f057600080fd5b81019080803590602001909291908035906020019092919080359060200190929190803573ffffffffffffffffffffffffffffffffffffffff169060200190929190803573ffffffffffffffffffffffffffffffffffffffff16906020019092919050505061138f565b005b61059e6004803603602081101561057257600080fd5b81019080803573ffffffffffffffffffffffffffffffffffffffff169060200190929190505050611638565b6040518082815260200191505060405180910390f35b610634600480360360a08110156105ca57600080fd5b8101908080359060200190929190803573ffffffffffffffffffffffffffffffffffffffff169060200190929190803573ffffffffffffffffffffffffffffffffffffffff169060200190929190803590602001909291908035906020019092919050505061171a565b005b6108c8600480360360c081101561064c57600080fd5b810190808035906020019064010000000081111561066957600080fd5b82018360208201111561067b57600080fd5b8035906020019184600183028401116401000000008311171561069d57600080fd5b91908080601f016020809104026020016040519081016040528093929190818152602001838380828437600081840152601f19601f8201169050808301925050505050505091929192908035906020019064010000000081111561070057600080fd5b82018360208201111561071257600080fd5b8035906020019184600183028401116401000000008311171561073457600080fd5b91908080601f016020809104026020016040519081016040528093929190818152602001838380828437600081840152601f19601f8201169050808301925050505050505091929192908035906020019064010000000081111561079757600080fd5b8201836020820111156107a957600080fd5b803590602001918460018302840111640100000000831117156107cb57600080fd5b91908080601f016020809104026020016040519081016040528093929190818152602001838380828437600081840152601f19601f82011690508083019250505050505050919291929080359060200190929190803590602001909291908035906020019064010000000081111561084257600080fd5b82018360208201111561085457600080fd5b8035906020019184600183028401116401000000008311171561087657600080fd5b91908080601f016020809104026020016040519081016040528093929190818152602001838380828437600081840152601f19601f8201169050808301925050505050505091929192905050506119fd565b005b6108d2611fb2565b6040518082815260200191505060405180910390f35b610954600480360360608110156108fe57600080fd5b8101908080359060200190929190803573ffffffffffffffffffffffffffffffffffffffff169060200190929190803573ffffffffffffffffffffffffffffffffffffffff169060200190929190505050611fb8565b005b6109826004803603602081101561096c57600080fd5b8101908080359060200190929190505050612587565b6040518082815260200191505060405180910390f35b610b9d600480360360c08110156109ae57600080fd5b8101908080359060200190929190803590602001906401000000008111156109d557600080fd5b8201836020820111156109e757600080fd5b80359060200191846001830284011164010000000083111715610a0957600080fd5b91908080601f016020809104026020016040519081016040528093929190818152602001838380828437600081840152601f19601f82011690508083019250505050505050919291929080359060200190640100000000811115610a6c57600080fd5b820183602082011115610a7e57600080fd5b80359060200191846001830284011164010000000083111715610aa057600080fd5b91908080601f016020809104026020016040519081016040528093929190818152602001838380828437600081840152601f19601f820116905080830192505050505050509192919290803590602001909291908035906020019092919080359060200190640100000000811115610b1757600080fd5b820183602082011115610b2957600080fd5b80359060200191846001830284011164010000000083111715610b4b57600080fd5b91908080601f016020809104026020016040519081016040528093929190818152602001838380828437600081840152601f19601f82011690508083019250505050505050919291929050505061259f565b005b610c0b60048036036060811015610bb557600080fd5b81019080803573ffffffffffffffffffffffffffffffffffffffff169060200190929190803573ffffffffffffffffffffffffffffffffffffffff16906020019092919080359060200190929190505050612aef565b005b610c5960048036036040811015610c2357600080fd5b8101908080359060200190929190803573ffffffffffffffffffffffffffffffffffffffff169060200190929190505050612be8565b604051808981526020018881526020018781526020018681526020018573ffffffffffffffffffffffffffffffffffffffff1673ffffffffffffffffffffffffffffffffffffffff1681526020018473ffffffffffffffffffffffffffffffffffffffff1673ffffffffffffffffffffffffffffffffffffffff1681526020018381526020018281526020019850505050505050505060405180910390f35b610d00612ef4565b6040518082815260200191505060405180910390f35b610d4c60048036036040811015610d2c57600080fd5b810190808035906020019092919080359060200190929190505050612fe2565b604051808981526020018881526020018781526020018681526020018573ffffffffffffffffffffffffffffffffffffffff1673ffffffffffffffffffffffffffffffffffffffff1681526020018473ffffffffffffffffffffffffffffffffffffffff1673ffffffffffffffffffffffffffffffffffffffff168152602001838152602001826003811115610dde57fe5b60ff1681526020019850505050505050505060405180910390f35b6002602052806000526040600020600091509050806000015490806001018054600181600116156101000203166002900480601f016020809104026020016040519081016040528092919081815260200182805460018160011615610100020316600290048015610eab5780601f10610e8057610100808354040283529160200191610eab565b820191906000526020600020905b815481529060010190602001808311610e8e57829003601f168201915b505050505090806002018054600181600116156101000203166002900480601f016020809104026020016040519081016040528092919081815260200182805460018160011615610100020316600290048015610f495780601f10610f1e57610100808354040283529160200191610f49565b820191906000526020600020905b815481529060010190602001808311610f2c57829003601f168201915b505050505090806003018054600181600116156101000203166002900480601f016020809104026020016040519081016040528092919081815260200182805460018160011615610100020316600290048015610fe75780601f10610fbc57610100808354040283529160200191610fe7565b820191906000526020600020905b815481529060010190602001808311610fca57829003601f168201915b505050505090806004018054600181600116156101000203166002900480601f0160208091040260200160405190810160405280929190818152602001828054600181600116156101000203166002900480156110855780601f1061105a57610100808354040283529160200191611085565b820191906000526020600020905b81548152906001019060200180831161106857829003601f168201915b5050505050908060050154905086565b600060608060608060026000878152602001908152602001600020600001546002600088815260200190815260200160002060010160026000898152602001908152602001600020600201600260008a8152602001908152602001600020600301600260008b8152602001908152602001600020600401838054600181600116156101000203166002900480601f0160208091040260200160405190810160405280929190818152602001828054600181600116156101000203166002900480156111a15780601f10611176576101008083540402835291602001916111a1565b820191906000526020600020905b81548152906001019060200180831161118457829003601f168201915b50505050509350828054600181600116156101000203166002900480601f01602080910402602001604051908101604052809291908181526020018280546001816001161561010002031660029004801561123d5780601f106112125761010080835404028352916020019161123d565b820191906000526020600020905b81548152906001019060200180831161122057829003601f168201915b50505050509250818054600181600116156101000203166002900480601f0160208091040260200160405190810160405280929190818152602001828054600181600116156101000203166002900480156112d95780601f106112ae576101008083540402835291602001916112d9565b820191906000526020600020905b8154815290600101906020018083116112bc57829003601f168201915b50505050509150808054600181600116156101000203166002900480601f0160208091040260200160405190810160405280929190818152602001828054600181600116156101000203166002900480156113755780601f1061134a57610100808354040283529160200191611375565b820191906000526020600020905b81548152906001019060200180831161135857829003601f168201915b505050505090509450945094509450945091939590929450565b611397613091565b6040518061010001604052808781526020018681526020018581526020018581526020018473ffffffffffffffffffffffffffffffffffffffff1681526020018373ffffffffffffffffffffffffffffffffffffffff168152602001600081526020016000600381111561140757fe5b81525090506003600087815260200190815260200160002081908060018154018082558091505090600182039060005260206000209060080201600090919290919091506000820151816000015560208201518160010155604082015181600201556060820151816003015560808201518160040160006101000a81548173ffffffffffffffffffffffffffffffffffffffff021916908373ffffffffffffffffffffffffffffffffffffffff16021790555060a08201518160050160006101000a81548173ffffffffffffffffffffffffffffffffffffffff021916908373ffffffffffffffffffffffffffffffffffffffff16021790555060c0820151816006015560e08201518160070160006101000a81548160ff0219169083600381111561152f57fe5b021790555050505060046000878152602001908152602001600020600081548092919060010191905055507f91bda75e0246db5426db864dbe33afbee082e3514cb94a2e98fcaaf4c3f33306868686878787600080604051808981526020018881526020018781526020018681526020018573ffffffffffffffffffffffffffffffffffffffff1673ffffffffffffffffffffffffffffffffffffffff1681526020018473ffffffffffffffffffffffffffffffffffffffff1673ffffffffffffffffffffffffffffffffffffffff16815260200183815260200182600381111561161657fe5b60ff1681526020019850505050505050505060405180910390a1505050505050565b60008060009054906101000a900473ffffffffffffffffffffffffffffffffffffffff1673ffffffffffffffffffffffffffffffffffffffff1663584a0927836040518263ffffffff1660e01b8152600401808273ffffffffffffffffffffffffffffffffffffffff1673ffffffffffffffffffffffffffffffffffffffff16815260200191505060206040518083038186803b1580156116d857600080fd5b505afa1580156116ec573d6000803e3d6000fd5b505050506040513d602081101561170257600080fd5b81019080805190602001909291905050509050919050565b600080600090505b60036000888152602001908152602001600020805490508110156117d8578573ffffffffffffffffffffffffffffffffffffffff1660036000898152602001908152602001600020828154811061177557fe5b906000526020600020906008020160040160009054906101000a900473ffffffffffffffffffffffffffffffffffffffff1673ffffffffffffffffffffffffffffffffffffffff1614156117cb578091506117d8565b8080600101915050611722565b50836003600088815260200190815260200160002082815481106117f857fe5b906000526020600020906008020160050160006101000a81548173ffffffffffffffffffffffffffffffffffffffff021916908373ffffffffffffffffffffffffffffffffffffffff1602179055508260036000888152602001908152602001600020828154811061186657fe5b90600052602060002090600802016003018190555060008214156118da5760006003600088815260200190815260200160002082815481106118a457fe5b906000526020600020906008020160070160006101000a81548160ff021916908360038111156118d057fe5b02179055506119f5565b600182141561193957600160036000888152602001908152602001600020828154811061190357fe5b906000526020600020906008020160070160006101000a81548160ff0219169083600381111561192f57fe5b02179055506119f4565b600282141561199857600260036000888152602001908152602001600020828154811061196257fe5b906000526020600020906008020160070160006101000a81548160ff0219169083600381111561198e57fe5b02179055506119f3565b60038214156119f257600380600088815260200190815260200160002082815481106119c057fe5b906000526020600020906008020160070160006101000a81548160ff021916908360038111156119ec57fe5b02179055505b5b5b5b505050505050565b6000855111611a0b57600080fd5b6000600190506000809050600080905060006001541115611c5a576000600190505b6001548111611c5857886040516020018082805190602001908083835b60208310611a6d5780518252602082019150602081019050602083039250611a4a565b6001836020036101000a03801982511681845116808217855250505050505090500191505060405160208183030381529060405280519060200120600260008381526020019081526020016000206002016040516020018082805460018160011615610100020316600290048015611b1c5780601f10611afa576101008083540402835291820191611b1c565b820191906000526020600020905b815481529060010190602001808311611b08575b5050915050604051602081830303815290604052805190602001201415611c4b5760009350809150866002600083815260200190815260200160002060050154019250606460026000838152602001908152602001600020600501541415611bcf576040517f08c379a000000000000000000000000000000000000000000000000000000000815260040180806020018281038252603c815260200180613269603c913960400191505060405180910390fd5b6064831115611c46576040517f08c379a00000000000000000000000000000000000000000000000000000000081526004018080602001828103825260208152602001807f5374616b652073697a6520636c61696d656420697320746f6f206c617267652181525060200191505060405180910390fd5b611c58565b8080600101915050611a2d565b505b600115158315151415611f7e5760008511611c7457600080fd5b6001805401600181905550600060046000600154815260200190815260200160002081905550611ca261310d565b6040518060c0016040528060015481526020018b81526020018a815260200189815260200186815260200188815250905080600260006001548152602001908152602001600020600082015181600001556020820151816001019080519060200190611d0f929190613143565b506040820151816002019080519060200190611d2c929190613143565b506060820151816003019080519060200190611d49929190613143565b506080820151816004019080519060200190611d66929190613143565b5060a082015181600501559050507f2a6f0d713cae921cdaebce3a0436b13a961b3a7f39a6d2df7a9e931a3d9fb3dc6001548b8b8b898c604051808781526020018060200180602001806020018060200186815260200185810385528a818151815260200191508051906020019080838360005b83811015611df5578082015181840152602081019050611dda565b50505050905090810190601f168015611e225780820380516001836020036101000a031916815260200191505b50858103845289818151815260200191508051906020019080838360005b83811015611e5b578082015181840152602081019050611e40565b50505050905090810190601f168015611e885780820380516001836020036101000a031916815260200191505b50858103835288818151815260200191508051906020019080838360005b83811015611ec1578082015181840152602081019050611ea6565b50505050905090810190601f168015611eee5780820380516001836020036101000a031916815260200191505b50858103825287818151815260200191508051906020019080838360005b83811015611f27578082015181840152602081019050611f0c565b50505050905090810190601f168015611f545780820380516001836020036101000a031916815260200191505b509a505050505050505050505060405180910390a1611f786001548888333361138f565b50611fa7565b611f8b818787333361138f565b8160026000838152602001908152602001600020600501819055505b505050505050505050565b60015481565b600080600090505b6003600086815260200190815260200160002080549050811015612076578373ffffffffffffffffffffffffffffffffffffffff1660036000878152602001908152602001600020828154811061201357fe5b906000526020600020906008020160040160009054906101000a900473ffffffffffffffffffffffffffffffffffffffff1673ffffffffffffffffffffffffffffffffffffffff16141561206957809150612076565b8080600101915050611fc0565b5061207f613091565b60036000868152602001908152602001600020828154811061209d57fe5b906000526020600020906008020160405180610100016040529081600082015481526020016001820154815260200160028201548152602001600382015481526020016004820160009054906101000a900473ffffffffffffffffffffffffffffffffffffffff1673ffffffffffffffffffffffffffffffffffffffff1673ffffffffffffffffffffffffffffffffffffffff1681526020016005820160009054906101000a900473ffffffffffffffffffffffffffffffffffffffff1673ffffffffffffffffffffffffffffffffffffffff1673ffffffffffffffffffffffffffffffffffffffff168152602001600682015481526020016007820160009054906101000a900460ff1660038111156121b357fe5b60038111156121be57fe5b81525050905060028160e0019060038111156121d657fe5b908160038111156121e357fe5b81525050600260038111156121f457fe5b8160e00151600381111561220457fe5b1461220e57600080fd5b60648160c0015114156123b1578060a00151816080019073ffffffffffffffffffffffffffffffffffffffff16908173ffffffffffffffffffffffffffffffffffffffff1681525050806060015181604001818152505060008160e00190600381111561227757fe5b9081600381111561228457fe5b8152505060008160c0018181525050806003600087815260200190815260200160002083815481106122b257fe5b90600052602060002090600802016000820151816000015560208201518160010155604082015181600201556060820151816003015560808201518160040160006101000a81548173ffffffffffffffffffffffffffffffffffffffff021916908373ffffffffffffffffffffffffffffffffffffffff16021790555060a08201518160050160006101000a81548173ffffffffffffffffffffffffffffffffffffffff021916908373ffffffffffffffffffffffffffffffffffffffff16021790555060c0820151816006015560e08201518160070160006101000a81548160ff021916908360038111156123a457fe5b0217905550905050612580565b6123c6858260c001518360600151868761138f565b806060015181604001510381604001818152505080604001518160600181815250508060c0015181602001510381602001818152505060008160e00190600381111561240e57fe5b9081600381111561241b57fe5b8152505080608001518160a0019073ffffffffffffffffffffffffffffffffffffffff16908173ffffffffffffffffffffffffffffffffffffffff168152505060008160c00181815250508060036000878152602001908152602001600020838154811061248557fe5b90600052602060002090600802016000820151816000015560208201518160010155604082015181600201556060820151816003015560808201518160040160006101000a81548173ffffffffffffffffffffffffffffffffffffffff021916908373ffffffffffffffffffffffffffffffffffffffff16021790555060a08201518160050160006101000a81548173ffffffffffffffffffffffffffffffffffffffff021916908373ffffffffffffffffffffffffffffffffffffffff16021790555060c0820151816006015560e08201518160070160006101000a81548160ff0219169083600381111561257757fe5b02179055509050505b5050505050565b60046020528060005260406000206000915090505481565b600080600090505b600360008981526020019081526020016000208054905081101561265d573373ffffffffffffffffffffffffffffffffffffffff16600360008a815260200190815260200160002082815481106125fa57fe5b906000526020600020906008020160040160009054906101000a900473ffffffffffffffffffffffffffffffffffffffff1673ffffffffffffffffffffffffffffffffffffffff1614156126505780915061265d565b80806001019150506125a7565b5060008110156126d5576040517f08c379a00000000000000000000000000000000000000000000000000000000081526004018080602001828103825260168152602001807f596f7520617265206e6f7420746865206f776e6572210000000000000000000081525060200191505060405180910390fd5b6126dd613091565b6003600089815260200190815260200160002082815481106126fb57fe5b906000526020600020906008020160405180610100016040529081600082015481526020016001820154815260200160028201548152602001600382015481526020016004820160009054906101000a900473ffffffffffffffffffffffffffffffffffffffff1673ffffffffffffffffffffffffffffffffffffffff1673ffffffffffffffffffffffffffffffffffffffff1681526020016005820160009054906101000a900473ffffffffffffffffffffffffffffffffffffffff1673ffffffffffffffffffffffffffffffffffffffff1673ffffffffffffffffffffffffffffffffffffffff168152602001600682015481526020016007820160009054906101000a900460ff16600381111561281157fe5b600381111561281c57fe5b8152505090506000600381111561282f57fe5b8160e00151600381111561283f57fe5b1480612864575060038081111561285257fe5b8160e00151600381111561286257fe5b145b6128d6576040517f08c379a00000000000000000000000000000000000000000000000000000000081526004018080602001828103825260208152602001807f546865726520697320616e206f6e676f696e67207472616e73616374696f6e2181525060200191505060405180910390fd5b86600260008a815260200190815260200160002060010190805190602001906129009291906131c3565b5085600260008a8152602001908152602001600020600301908051906020019061292b9291906131c3565b5082600260008a815260200190815260200160002060040190805190602001906129569291906131c3565b5084816040018181525050838160c00151146129cc57838160c001818152505060008411156129a75760008160e00190600381111561299157fe5b9081600381111561299e57fe5b815250506129cb565b60038160e0019060038111156129b957fe5b908160038111156129c657fe5b815250505b5b80600360008a815260200190815260200160002083815481106129eb57fe5b90600052602060002090600802016000820151816000015560208201518160010155604082015181600201556060820151816003015560808201518160040160006101000a81548173ffffffffffffffffffffffffffffffffffffffff021916908373ffffffffffffffffffffffffffffffffffffffff16021790555060a08201518160050160006101000a81548173ffffffffffffffffffffffffffffffffffffffff021916908373ffffffffffffffffffffffffffffffffffffffff16021790555060c0820151816006015560e08201518160070160006101000a81548160ff02191690836003811115612add57fe5b02179055509050505050505050505050565b6000809054906101000a900473ffffffffffffffffffffffffffffffffffffffff1673ffffffffffffffffffffffffffffffffffffffff1663beabacc88484846040518463ffffffff1660e01b8152600401808473ffffffffffffffffffffffffffffffffffffffff1673ffffffffffffffffffffffffffffffffffffffff1681526020018373ffffffffffffffffffffffffffffffffffffffff1673ffffffffffffffffffffffffffffffffffffffff1681526020018281526020019350505050600060405180830381600087803b158015612bcb57600080fd5b505af1158015612bdf573d6000803e3d6000fd5b50505050505050565b600080600080600080600080600080600090505b600360008d815260200190815260200160002080549050811015612cb2578a73ffffffffffffffffffffffffffffffffffffffff16600360008e81526020019081526020016000208281548110612c4f57fe5b906000526020600020906008020160040160009054906101000a900473ffffffffffffffffffffffffffffffffffffffff1673ffffffffffffffffffffffffffffffffffffffff161415612ca557809150612cb2565b8080600101915050612bfc565b506000612cbd613091565b600360008e81526020019081526020016000208381548110612cdb57fe5b906000526020600020906008020160405180610100016040529081600082015481526020016001820154815260200160028201548152602001600382015481526020016004820160009054906101000a900473ffffffffffffffffffffffffffffffffffffffff1673ffffffffffffffffffffffffffffffffffffffff1673ffffffffffffffffffffffffffffffffffffffff1681526020016005820160009054906101000a900473ffffffffffffffffffffffffffffffffffffffff1673ffffffffffffffffffffffffffffffffffffffff1673ffffffffffffffffffffffffffffffffffffffff168152602001600682015481526020016007820160009054906101000a900460ff166003811115612df157fe5b6003811115612dfc57fe5b81525050905060006003811115612e0f57fe5b8160e001516003811115612e1f57fe5b1415612e2e5760009150612eb0565b60016003811115612e3b57fe5b8160e001516003811115612e4b57fe5b1415612e5a5760019150612eaf565b60026003811115612e6757fe5b8160e001516003811115612e7757fe5b1415612e865760029150612eae565b600380811115612e9257fe5b8160e001516003811115612ea257fe5b1415612ead57600391505b5b5b5b806000015181602001518260400151836060015184608001518560a001518660c00151889a509a509a509a509a509a509a509a505050509295985092959890939650565b600080600090506000600190505b6001548111612fda5760008090505b6003600083815260200190815260200160002080549050811015612fcc573373ffffffffffffffffffffffffffffffffffffffff16600360008481526020019081526020016000208281548110612f6457fe5b906000526020600020906008020160040160009054906101000a900473ffffffffffffffffffffffffffffffffffffffff1673ffffffffffffffffffffffffffffffffffffffff161415612fbf578280600101935050612fcc565b8080600101915050612f11565b508080600101915050612f02565b508091505090565b60036020528160005260406000208181548110612ffb57fe5b9060005260206000209060080201600091509150508060000154908060010154908060020154908060030154908060040160009054906101000a900473ffffffffffffffffffffffffffffffffffffffff16908060050160009054906101000a900473ffffffffffffffffffffffffffffffffffffffff16908060060154908060070160009054906101000a900460ff16905088565b60405180610100016040528060008152602001600081526020016000815260200160008152602001600073ffffffffffffffffffffffffffffffffffffffff168152602001600073ffffffffffffffffffffffffffffffffffffffff168152602001600081526020016000600381111561310757fe5b81525090565b6040518060c001604052806000815260200160608152602001606081526020016060815260200160608152602001600081525090565b828054600181600116156101000203166002900490600052602060002090601f016020900481019282601f1061318457805160ff19168380011785556131b2565b828001600101855582156131b2579182015b828111156131b1578251825591602001919060010190613196565b5b5090506131bf9190613243565b5090565b828054600181600116156101000203166002900490600052602060002090601f016020900481019282601f1061320457805160ff1916838001178555613232565b82800160010185558215613232579182015b82811115613231578251825591602001919060010190613216565b5b50905061323f9190613243565b5090565b61326591905b80821115613261576000816000905550600101613249565b5090565b9056fe546869732070726f706572747920697320616c7265616479207265676973746572656420616e642066756c6c79206163636f756e74656420666f7221a265627a7a72315820f944cc2562692ba9f3900bad0ec16ad6c6693de87aea76e5c9629b95224e58d364736f6c63430005100032",
  "source": "pragma solidity ^0.5.0;\r\nimport \"./MWToken.sol\";\r\n\r\ncontract Props {\r\n\r\n    MWToken mwtContract;\r\n\r\n    constructor (MWToken mwtAddress) public {\r\n        mwtContract = mwtAddress;\r\n    }\r\n\r\n    uint public totalPropertyCounter = 0;\r\n    enum PropEscrowState {NONE, AWAITING_PAYMENT, AWAITING_TRANSFER, COMPLETE}\r\n    struct Property {\r\n        uint propID;\r\n        string propTitle;\r\n        string propAddress;\r\n        string propDescription;\r\n        string imgURL;\r\n        uint accounted;\r\n    }\r\n    struct PropEscrow {\r\n        uint propID;\r\n        uint percentage;\r\n        uint value;\r\n        uint amount;\r\n        address payable stakeOwner;\r\n        address payable buyer;\r\n        uint salePercent;\r\n        PropEscrowState currState;\r\n    }\r\n    mapping(uint => Property) public allProperty;\r\n    mapping(uint => PropEscrow[]) public allPropEscrows;\r\n    mapping(uint => uint) public countPropEscrows;\r\n\r\n    event CreatedProperty(uint _propID, string _propTitle, string _propAddress, string _propDescription, string _imgURL, uint _accounted);\r\n    event CreatedPropEscrow(uint _propID, uint _percentage, uint _value, uint _amount, address payable _propOwner, address payable _buyer, uint _salePercent, PropEscrowState _currState);\r\n\r\n    function addPropEscrow(uint _propID, uint _percentage, uint _value, address payable _owner, address payable _buyer) public {\r\n        PropEscrow memory nullEscrow = PropEscrow({\r\n            propID: _propID,\r\n            percentage: _percentage,\r\n            value: _value,\r\n            amount: _value,\r\n            stakeOwner: _owner,\r\n            buyer: _buyer,\r\n            salePercent: 0,\r\n            currState: PropEscrowState.NONE\r\n        });\r\n        allPropEscrows[_propID].push(nullEscrow);\r\n        countPropEscrows[_propID]++;\r\n        emit CreatedPropEscrow(_propID, _percentage, _value, _value, _owner, _buyer, 0, PropEscrowState.NONE);\r\n    }\r\n\r\n    function addProperty(string memory _propTitle, string memory _propAddress, string memory _propDescription, uint _percentage, uint _value, string memory _imgURL) public {\r\n        require(bytes(_propAddress).length > 0);\r\n\r\n        // Check if unique property and/or all owners are registered\r\n        bool isUnique = true;\r\n        uint percentAcc = 0;\r\n        uint propID = 0;\r\n        if(totalPropertyCounter > 0) {\r\n            for(uint i=1; i<=totalPropertyCounter; i++) {\r\n                if (keccak256(abi.encodePacked(allProperty[i].propAddress)) == keccak256(abi.encodePacked(_propAddress))) {\r\n                    isUnique = false;\r\n                    propID = i;\r\n                    percentAcc = allProperty[i].accounted + _percentage;\r\n                    if (allProperty[i].accounted == 100) {\r\n                        revert(\"This property is already registered and fully accounted for!\");\r\n                    } else if (percentAcc > 100) {\r\n                        revert(\"Stake size claimed is too large!\");\r\n                    }\r\n                    break;\r\n                }\r\n            }\r\n        }\r\n        // Create new property if unique\r\n        if (isUnique == true) {\r\n            require(_value > 0);\r\n            totalPropertyCounter = totalPropertyCounter + 1;\r\n            countPropEscrows[totalPropertyCounter] = 0;\r\n            \r\n            Property memory myProperty = Property({\r\n                propID: totalPropertyCounter,\r\n                propTitle: _propTitle,\r\n                propAddress: _propAddress,\r\n                propDescription: _propDescription,\r\n                imgURL: _imgURL,\r\n                accounted: _percentage\r\n            });\r\n\r\n            allProperty[totalPropertyCounter] = myProperty;\r\n            emit CreatedProperty(totalPropertyCounter, _propTitle, _propAddress, _propDescription, _imgURL, _percentage);\r\n            // Add stake for person first adding the property\r\n            addPropEscrow(totalPropertyCounter, _percentage, _value, msg.sender, msg.sender);\r\n\r\n        } else {\r\n            // Only need to add new stake owner as property already exists. Need to update accounted percentage of property.\r\n            addPropEscrow(propID, _percentage, _value, msg.sender, msg.sender);\r\n            allProperty[propID].accounted = percentAcc;\r\n        }\r\n    }\r\n\r\n    function editProperty(uint _propID, string memory _propTitle, string memory _propDescription, uint _value, uint _salePercent, string memory _imgURL) public {\r\n        uint index;\r\n        for(uint i=0; i<allPropEscrows[_propID].length; i++) {\r\n            if(allPropEscrows[_propID][i].stakeOwner == msg.sender) {\r\n                index = i;\r\n                break;\r\n            }\r\n        }\r\n        require(index >= 0, \"You are not the owner!\");\r\n        PropEscrow memory myEscrow = allPropEscrows[_propID][index];\r\n        require(myEscrow.currState == PropEscrowState.NONE || myEscrow.currState == PropEscrowState.COMPLETE, \"There is an ongoing transaction!\");\r\n\r\n        allProperty[_propID].propTitle = _propTitle;\r\n        allProperty[_propID].propDescription = _propDescription;\r\n        allProperty[_propID].imgURL = _imgURL;\r\n        myEscrow.value = _value;\r\n        if (myEscrow.salePercent != _salePercent) {\r\n            myEscrow.salePercent = _salePercent;\r\n            if (_salePercent > 0) {\r\n                myEscrow.currState = PropEscrowState.NONE;\r\n            } else {\r\n                myEscrow.currState = PropEscrowState.COMPLETE;\r\n            }\r\n        }\r\n        allPropEscrows[_propID][index] = myEscrow;\r\n    }\r\n    \r\n    function getPropertyDetails(uint _propID) public view returns (uint, string memory, string memory, string memory, string memory) {\r\n        return (allProperty[_propID].propID,\r\n            allProperty[_propID].propTitle, \r\n            allProperty[_propID].propAddress,\r\n            allProperty[_propID].propDescription,\r\n            allProperty[_propID].imgURL);\r\n    }\r\n\r\n    function getOwnersPropertyCount() public view returns (uint) {\r\n        uint propCount = 0;\r\n        for(uint i=1; i<=totalPropertyCounter; i++) {\r\n            for(uint j=0; j<allPropEscrows[i].length; j++) {\r\n                if(allPropEscrows[i][j].stakeOwner == msg.sender) {\r\n                    propCount++;\r\n                    break;\r\n                }\r\n            }\r\n        }\r\n        return propCount;\r\n    }\r\n\r\n    function checkBalance(address _user) public view returns(uint256) {\r\n        return mwtContract.checkBal(_user);\r\n    }\r\n\r\n    function findPropEscrow(uint _propID, address _owner) public view returns(uint, uint, uint, uint, address payable, address payable, uint, uint) {\r\n        uint index;\r\n        for(uint i=0; i<allPropEscrows[_propID].length; i++) {\r\n            if(allPropEscrows[_propID][i].stakeOwner == _owner) {\r\n                index = i;\r\n                break;\r\n            }\r\n        }\r\n        uint _status;\r\n        PropEscrow memory myEscrow = allPropEscrows[_propID][index];\r\n        if (myEscrow.currState == PropEscrowState.NONE) {\r\n            _status=0;\r\n        } else if (myEscrow.currState == PropEscrowState.AWAITING_PAYMENT) {\r\n            _status=1;\r\n        } else if (myEscrow.currState == PropEscrowState.AWAITING_TRANSFER) {\r\n            _status=2;\r\n        } else if (myEscrow.currState == PropEscrowState.COMPLETE) {\r\n            _status=3;\r\n        }\r\n        return (myEscrow.propID, myEscrow.percentage, myEscrow.value, myEscrow.amount, myEscrow.stakeOwner, myEscrow.buyer, myEscrow.salePercent, _status);\r\n    }\r\n\r\n    function updatePropEscrowStatus(uint _propID, address _user, address payable _buyer, uint _amt, uint _status) public {\r\n        uint index;\r\n        for(uint i=0; i<allPropEscrows[_propID].length; i++) {\r\n            if(allPropEscrows[_propID][i].stakeOwner == _user) {\r\n                index = i;\r\n                break;\r\n            }\r\n        }\r\n        allPropEscrows[_propID][index].buyer = _buyer;\r\n        allPropEscrows[_propID][index].amount = _amt;\r\n        if (_status == 0) {\r\n            allPropEscrows[_propID][index].currState = PropEscrowState.NONE;\r\n        } else if (_status == 1) {\r\n            allPropEscrows[_propID][index].currState = PropEscrowState.AWAITING_PAYMENT;\r\n        } else if (_status == 2) {\r\n            allPropEscrows[_propID][index].currState = PropEscrowState.AWAITING_TRANSFER;\r\n        } else if (_status == 3) {\r\n            allPropEscrows[_propID][index].currState = PropEscrowState.COMPLETE;\r\n        }\r\n    }\r\n\r\n    function transferPropEscrow(uint _propID, address payable _from, address payable _to) public {\r\n        uint index;\r\n        for(uint i=0; i<allPropEscrows[_propID].length; i++) {\r\n            if(allPropEscrows[_propID][i].stakeOwner == _from) {\r\n                index = i;\r\n                break;\r\n            }\r\n        }\r\n\r\n        PropEscrow memory myEscrow = allPropEscrows[_propID][index];\r\n        myEscrow.currState = PropEscrowState.AWAITING_TRANSFER;\r\n\r\n        //transfer property by updating escrow\r\n        require(myEscrow.currState == PropEscrowState.AWAITING_TRANSFER);\r\n        // if 100% transfer, just change existing escrow. else, modify existing escrow and create new one for new stakeholder.\r\n        if (myEscrow.salePercent == 100) {\r\n            myEscrow.stakeOwner = myEscrow.buyer;\r\n            myEscrow.value = myEscrow.amount;\r\n            myEscrow.currState = PropEscrowState.NONE;\r\n            myEscrow.salePercent = 0;\r\n            allPropEscrows[_propID][index] = myEscrow;\r\n        } else {\r\n            addPropEscrow(_propID, myEscrow.salePercent, myEscrow.amount, _to, _to);\r\n            myEscrow.value = myEscrow.value - myEscrow.amount;\r\n            myEscrow.amount = myEscrow.value;\r\n            myEscrow.percentage = myEscrow.percentage - myEscrow.salePercent;\r\n            myEscrow.currState = PropEscrowState.NONE;\r\n            myEscrow.buyer = myEscrow.stakeOwner;\r\n            myEscrow.salePercent = 0;\r\n            allPropEscrows[_propID][index] = myEscrow;\r\n        }\r\n    }\r\n\r\n    //function to transfer DT tokens between accounts\r\n    function transferMWT(address _from, address _to, uint256 _amt) public {\r\n        mwtContract.transfer(_from, _to, _amt);\r\n    }\r\n\r\n    //modifier to ensure a function is callable only by its owner    \r\n    modifier ownerOnly(uint _propID) {\r\n        uint index;\r\n        for(uint i=0; i<allPropEscrows[_propID].length; i++) {\r\n            if(allPropEscrows[_propID][i].stakeOwner == msg.sender) {\r\n                index = i;\r\n                break;\r\n            }\r\n        }\r\n        require(index>=0, \"You are not a stakeholder in this property!\");\r\n        _;\r\n    }\r\n\r\n}",
  "sourcePath": "C:\\Users\\arvin\\Documents\\1Personal\\Education\\Masters\\middlewhere\\src\\contracts\\Props.sol",
  "compiler": {
    "name": "solc",
    "version": "0.5.16+commit.9c3226ce.Emscripten.clang"
  },
  "schemaVersion": "3.2.3",
  "updatedAt": "2022-03-03T21:27:27.560Z",
  "networkType": "ethereum",
  "devdoc": {
    "methods": {}
  },
  "userdoc": {
    "methods": {}
  }
}